:020000040000FA
:10000000680200106D010000710100007301000022
:100010007501000077010000790100000000000078
:100020000000000000000000000000007B01000054
:100030007D010000000000007F0100008101000040
:1000400083010000830100008301000083010000A0
:100050008301000083010000830100008301000090
:100060008301000083010000830100008301000080
:100070008301000083010000830100008301000070
:100080008301000083010000830100008301000060
:100090008301000083010000830100008301000050
:1000A0008301000083010000830100008301000040
:1000B0008301000083010000830100008301000030
:1000C00083010000830100008301000000F002F8BA
:1000D00000F03CF80AA090E8000C82448344AAF1A6
:1000E0000107DA4501D100F031F8AFF2090EBAE8A4
:1000F0000F0013F0010F18BFFB1A43F0010318475C
:10010000C0070000E0070000103A24BF78C878C19B
:10011000FAD8520724BF30C830C144BF04680C600D
:10012000704700000023002400250026103A28BF55
:1001300078C1FBD8520728BF30C148BF0B60704759
:100140001FB500F0CAF81FBD10B510BD00F08AF849
:100150001146FFF7F5FF00F023F800F0A8F803B40C
:10016000FFF7F2FF03BC00F0B1F8000008480047B9
:10017000FEE7FEE7FEE7FEE7FEE7FEE7FEE7FEE757
:10018000FEE7FEE703480449024A044B70470000BB
:10019000CD00000068000010680200106800001028
:1001A00000F0E2FAFF2000F023F90F2000F09FF9A1
:1001B0002FE0002413E02146012000F027F921461A
:1001C000022000F023F92146042000F01FF9214607
:1001D000082000F01BF9052000F029F8641CFF2C12
:1001E000E9DBFF2413E02146012000F00FF921464E
:1001F000022000F00BF92146042000F007F9214607
:10020000082000F003F9052000F011F8641E002C0E
:10021000E9DCCEE70021002200BF05E0002200E07B
:10022000521C192AFCD3491C8142F7D3704730B5C0
:100230000446002504E04FF47A70FFF7EBFF6D1CD5
:10024000A542F8D330BD30B50446002504E04FF494
:100250007A70FFF7ECFF6D1CA542F8D330BD7047F4
:1002600070477047754600F029F8AE4605006946AC
:10027000534620F00700854618B020B5FFF782FFEF
:10028000BDE820404FF000064FF000074FF0000897
:100290004FF0000B21F00701AC46ACE8C009ACE818
:1002A000C009ACE8C009ACE8C0098D4670470446F7
:1002B000AFF300802046FFF752FF00000048704770
:1002C00008000010004870470C0000100149182079
:1002D000ABBEFEE726000200704710B5FFF7F2FF45
:1002E0004FF00001016010BD0000000000000000A0
:1002F000000000000000000000000000FFFFFFFF02
:1003000030B50A46A0281BDA032A19D8431100F099
:100310001F005B00102804DB5C1CE3B2A0F110049A
:10032000E0B24406200E304C04EB830103258540E7
:100330000C68AC430C6002FA00F50C682C430C60AE
:1003400030BD30B50B46A02811DA421100F01F0075
:10035000264C04EB42112BB10C68012585402C433F
:100360000C6004E00C6801258540AC430C6030BD96
:1003700030B50B46A02811DA421100F01F001B4CCB
:1003800004EB42112BB18C69012585402C438C6113
:1003900004E0CC69012585402C43CC6130BD10B50B
:1003A000A0280ADA421100F01F00104B03EB4211A3
:1003B0004B690124844063404B6110BD30B5014658
:1003C0000020A0290EDA4A1101F01F01074C04EBAE
:1003D00042135C6901258D402C4201D0012400E0CC
:1003E0000024E0B230BD000000C0024000C009207F
:1003F00002218B4A51600021D160032151611146D5
:1004000088610121116509215160704770B5054669
:100410000C4600268348006828B9FF20FFF7E8FF54
:1004200001208049086005F03F055DE0E843401C7D
:1004300000EA0506B543082E30D006DC012E09D0AF
:10044000022E13D0042E4DD11CE0102E32D0202EBF
:1004500048D13BE001214020FFF752FF7048C461C2
:10046000006D40F002006E4908653CE0012141202A
:10047000FFF746FF6A480462006D40F004006849D7
:10048000086530E001214220FFF73AFF64484462EA
:10049000006D40F008006249086524E00121432016
:1004A000FFF72EFF5E480464006D40F010005C49C9
:1004B000086518E001214420FFF722FF58484464F2
:1004C000006D40F02000564908650CE001214520F0
:1004D000FFF716FF52488464006D40F04000504919
:1004E000086500E000BF00BF002D9FD170BD10B5B2
:1004F000034600244B48006828B9FF20FFF778FF27
:1005000001204849086003F03F033FE0D843401C06
:1005100000EA0304A343082C21D006DC012C09D0F7
:10052000022C0ED0042C2FD112E0102C1ED0202C27
:100530002AD122E03A48C06C40F400703849C864BF
:1005400023E03748C06C40F480603549C8641CE043
:100550003348C06C40F400603149C86415E030484D
:10056000C06C40F480502E49C8640EE02C48C06C2A
:1005700040F400502A49C86407E02948C06C40F4A0
:1005800080402749C86400E000BF00BF002BBDD1F8
:1005900010BD002100F03F003FE0C243521C02EAC0
:1005A00000018843082821D006DC012809D0022850
:1005B0000ED004282FD112E010281ED020282AD1D6
:1005C00022E0174AD26C22F40072154BDA6423E061
:1005D000134AD26C22F48062114BDA641CE0104A98
:1005E000D26C22F400620E4BDA6415E00C4AD26C35
:1005F00022F480520A4BDA640EE0094AD26C22F4EB
:100600000052074BDA6407E0054AD26C22F48042BC
:10061000034BDA6400E000BF00BF0028BDD1704783
:10062000008001400000001091480068C0F30160A4
:10063000032868D18F48006810F0030006D0012815
:1006400023D002283FD003285CD100E000BF8848B7
:100650000068C0F30E0000F101004FEA4000864937
:1006600000FB01F08549D1F88810C1F3074101F181
:100670000101B0FBF1F182480068C0B200F1010055
:10068000B1FBF0F07F4908603CE079480068C0F3B6
:100690000E0000F101004FEA40007B4900FB01F031
:1006A0007649D1F88810C1F3074101F10101B0FB8F
:1006B000F1F173480068C0B200F10100B1FBF0F045
:1006C000704908601EE06A480068C0F30E0000F13F
:1006D00001004FEA40004FF4FA4100FB01F0674986
:1006E000D1F88810C1F3074101F10101B0FBF1F12C
:1006F00063480068C0B200F10100B1FBF0F061494D
:10070000086000BF2FE05B48006810F0030006D0CF
:10071000012810D0022819D0032823D100E000BFFF
:1007200057480068C0B200F101005349B1FBF0F036
:100730005449086016E052480068C0B200F1010058
:100740005149B1FBF0F04F4908600BE04C4800689C
:10075000C0B200F101004FF4FA41B1FBF0F0494999
:10076000086000BF00BF704720204849086000BFF4
:100770004648006810F0400FFAD003204049086056
:100780004FF001003D49C1F80C0141484149086062
:100790004FF0AA00404908604FF0550008604FF044
:1007A00001003E4908604FF0AA003B4908604FF045
:1007B00055003249C1F88C0000BF2D48006810F088
:1007C000806FFAD00320354908604FF0AA002B490A
:1007D000C1F88C004FF055002F49086000BF244835
:1007E000006810F0407FFAD023202D4908604FF0B8
:1007F000AA002249C1F8AC004FF055002949086011
:100800004FF00100284908604FF0AA002549086010
:100810004FF055001949C1F8AC0000BF23480068EB
:1008200010F4806FFAD003201F4908604FF0AA002F
:100830001249C1F8AC004FF055001A49086000BFDA
:100840001A48006810F4407FFAD000201849086068
:100850000A49C1F8AC011748174908604FF0000079
:100860001649086043F23A000449086070470000E6
:1008700088C00F400CC10F4000093D0000C00F4070
:1008800004C10F4004000010001BB700A0C10F40BE
:100890006300050084C00F408CC00F4080C00F4033
:1008A000A4C00F40ACC00F40A0C00F40A8C00F4074
:1008B000A8C10F40DE872804C4C00F40C8C10F4044
:1008C000E00800000000001008000000080100001F
:1008D000E808000008000010600200002401000089
:0808E0000000000000E1F50535
:040000050000016D89
:00000001FF
