:020000040000FA
:10000000600200105101000055010000570100007E
:10001000590100005B0100005D01000000000000CC
:100020000000000000000000000000005F01000070
:100030006101000000000000630100006501000094
:100040006701000067010000670100006701000010
:100050006701000067010000670100006701000000
:1000600067010000670100006701000067010000F0
:1000700067010000670100006701000067010000E0
:1000800067010000670100006701000067010000D0
:1000900067010000670100006701000067010000C0
:1000A00067010000670100006701000067010000B0
:1000B00067010000670100006701000067010000A0
:1000C00067010000670100006701000000F002F80E
:1000D00000F02EF80AA090E8000C82448344AAF1B4
:1000E0000107DA4501D100F023F8AFF2090EBAE8B2
:1000F0000F0013F0010F18BFFB1A43F0010318475C
:100100006802000078020000002300240025002679
:10011000103A28BF78C1FBD8520728BF30C148BF6A
:100120000B6070471FB500F018F91FBD10B510BD6A
:1001300000F0E6F81146FFF7F5FF00F023F800F0B5
:10014000CEF803B4FFF7F2FF03BC00F0FFF80000A5
:1001500008480047FEE7FEE7FEE7FEE7FEE7FEE7AA
:10016000FEE7FEE7FEE7FEE703480449024A044BC8
:1001700070470000CD000000600000106002001019
:10018000600000100121402000F04FF801214120C3
:1001900000F04BF80121422000F047F800214C20EC
:1001A00000F043F800214A2000F03FF800214B20E6
:1001B00000F03BF817E04C2000F074F804460146CC
:1001C000402000F049F84A2000F06CF8044601464F
:1001D000412000F041F84B2000F064F8044601464D
:1001E000422000F039F8E6E730B50A46A0281BDACD
:1001F000032A19D8431100F01F005B00102804DB0C
:100200005C1CE3B2A0F11004E0B24406200E304CB6
:1002100004EB8301032585400C68AC430C6002FAB3
:1002200000F50C682C430C6030BD30B50B46A0289F
:1002300011DA421100F01F00264C04EB42112BB1E1
:100240000C68012585402C430C6004E00C680125F6
:100250008540AC430C6030BD30B50B46A02811DAA8
:10026000421100F01F001B4C04EB42112BB18C69B2
:10027000012585402C438C6104E0CC690125854033
:100280002C43CC6130BD10B5A0280ADA421100F031
:100290001F00104B03EB42114B6901248440634063
:1002A0004B6110BD30B501460020A0290EDA4A117D
:1002B00001F01F01074C04EB42135C6901258D40DE
:1002C0002C4201D0012400E00024E0B230BD000047
:1002D00000C0024000C009207047704770470446C4
:1002E000AFF300802046FFF72CFF00000048704766
:1002F000000000100048704704000010FFFFFFFFDF
:100300007546FFF7F3FFAE4605006946534620F0F9
:100310000700854618B020B5FFF726FFBDE820404E
:100320004FF000064FF000074FF000084FF0000BB1
:1003300021F00701AC46ACE8C009ACE8C009ACE864
:10034000C009ACE8C0098D4670470000014918207B
:10035000ABBEFEE726000200704710B5FFF7CAFFEC
:100360004FF00001016010BD780300000000001094
:0803700060020000080100001A
:0400000500000151A5
:00000001FF
