:020000040000FA
:10000000700200106D01000071010000730100001A
:100010007501000077010000790100000000000078
:100020000000000000000000000000007B01000054
:100030007D010000000000007F0100008101000040
:1000400083010000830100008301000083010000A0
:100050008301000083010000830100008301000090
:100060008301000083010000830100008301000080
:100070008301000083010000830100008301000070
:100080008301000083010000830100008301000060
:100090008301000083010000830100008301000050
:1000A0008301000083010000830100008301000040
:1000B0008301000083010000830100008301000030
:1000C00083010000830100008301000000F002F8BA
:1000D00000F03CF80AA090E8000C82448344AAF1A6
:1000E0000107DA4501D100F031F8AFF2090EBAE8A4
:1000F0000F0013F0010F18BFFB1A43F0010318475C
:10010000A4100000C4100000103A24BF78C878C1C1
:10011000FAD8520724BF30C830C144BF04680C600D
:10012000704700000023002400250026103A28BF55
:1001300078C1FBD8520728BF30C148BF0B60704759
:100140001FB500F0D4F81FBD10B510BD00F074F855
:100150001146FFF7F5FF00F023F800F092F803B422
:10016000FFF7F2FF03BC00F09BF8000008480047CF
:10017000FEE7FEE7FEE7FEE7FEE7FEE7FEE7FEE757
:10018000FEE7FEE703480449024A044B70470000BB
:10019000CD00000070000010700200107000001010
:1001A0001FB500F097FA4FF41651002000F079FBCC
:1001B00047234622452144208DE80F004323422255
:1001C0004121402000F014F907E000F09FF90446B7
:1001D000224602A1002000F071FCF6E70A0D204B38
:1001E00065793A25630000000021002200BF05E088
:1001F000002200E0521C192AFCD3491C8142F7D38B
:10020000704730B50446002504E04FF47A70FFF7DC
:10021000EBFF6D1CA542F8D330BD30B50446002578
:1002200004E04FF47A70FFF7ECFF6D1CA542F8D3A1
:1002300030BD704770477047754600F029F8AE46EC
:1002400005006946534620F00700854618B020B5E2
:10025000FFF798FFBDE820404FF000064FF0000781
:100260004FF000084FF0000B21F00701AC46ACE85E
:10027000C009ACE8C009ACE8C009ACE8C0098D46CB
:1002800070470446AFF300802046FFF768FF000088
:10029000004870470C000010004870471000001024
:1002A00001491820ABBEFEE726000200704700009F
:1002B000C10DD1F19E0206DB4FEA002343F000435B
:1002C00023FA02F07047004207D54FEA4001B1F12E
:1002D000FE4F02D24FF00000704710B500F07FFED5
:1002E00049922480002070476FEA2000704710B5C3
:1002F000FFF7D2FF4FF00001016010BDFFFFFFFFCD
:1003000030B50A46A0281BDA032A19D8431100F099
:100310001F005B00102804DB5C1CE3B2A0F110049A
:10032000E0B24406200E304C04EB830103258540E7
:100330000C68AC430C6002FA00F50C682C430C60AE
:1003400030BD30B50B46A02811DA421100F01F0075
:10035000264C04EB42112BB10C68012585402C433F
:100360000C6004E00C6801258540AC430C6030BD96
:1003700030B50B46A02811DA421100F01F001B4CCB
:1003800004EB42112BB18C69012585402C438C6113
:1003900004E0CC69012585402C43CC6130BD10B50B
:1003A000A0280ADA421100F01F00104B03EB4211A3
:1003B0004B690124844063404B6110BD30B5014658
:1003C0000020A0290EDA4A1101F01F01074C04EBAE
:1003D00042135C6901258D402C4201D0012400E0CC
:1003E0000024E0B230BD000000C0024000C009207F
:1003F0002DE9F05F05460E4617469846DDE90BAB42
:10040000DDF82890604805704670877080F803809A
:100410005E4880F8009080F801A080F802B05B4947
:100420000D98C870002406E05749085D0121FFF7C8
:1004300088FF601CC4B2042CF6DB002406E053499C
:10044000085D0021FFF77DFF601CC4B2042CF6DBC1
:10045000BDE8F09F70B5002406E04B49085D00211F
:10046000FFF786FF601CC4B2042CF6DB00BF00BFA0
:100470000125002406E04549085DFFF79FFF054080
:10048000601CC4B2042CF6DB002DF1D00A20FFF76B
:10049000ABFE0125002406E03C49085DFFF78EFF16
:1004A0000540601CC4B2042CF6DB002DDFD070BD0B
:1004B00070B5002406E03449085D0021FFF758FFBD
:1004C000601CC4B2042CF6DB00BF00BF0125002471
:1004D00006E02E49085DFFF771FF0540601CC4B2BD
:1004E000042CF6DB002DF1D10A20FFF77DFE01255B
:1004F000002406E02549085DFFF760FF0540601C09
:10050000C4B2042CF6DB002DDFD170BD70B500261F
:10051000FFF7A0FFFFF7CCFF002406E01A49085DB3
:100520000121FFF725FF601CC4B2042CF6DB002478
:100530001CE01549085D0021FFF71AFF002508E0BF
:100540001249485DFFF73AFF08B9012603E0681C2D
:10055000C5B2042DF4DB00BF012E00D108E00A492A
:10056000085D0121FFF704FF601CC4B2042CE0DB2E
:1005700000BF042C04DA064800EB8400465D00E06E
:100580007826304670BD0000000000100400001006
:100590007211000091480068C0F30160032868D11F
:1005A0008F48006810F0030006D0012823D00228ED
:1005B0003FD003285CD100E000BF88480068C0F34A
:1005C0000E0000F101004FEA4000864900FB01F0F7
:1005D0008549D1F88810C1F3074101F10101B0FB51
:1005E000F1F182480068C0B200F10100B1FBF0F007
:1005F0007F4908603CE079480068C0F30E0000F1D4
:1006000001004FEA40007B4900FB01F07649D1F838
:100610008810C1F3074101F10101B0FBF1F173480A
:100620000068C0B200F10100B1FBF0F07049086051
:100630001EE06A480068C0F30E0000F101004FEAB6
:1006400040004FF4FA4100FB01F06749D1F88810EF
:10065000C1F3074101F10101B0FBF1F1634800680A
:10066000C0B200F10100B1FBF0F06149086000BFC9
:100670002FE05B48006810F0030006D0012810D07E
:10068000022819D0032823D100E000BF5748006892
:10069000C0B200F101005349B1FBF0F054490860C9
:1006A00016E052480068C0B200F101005149B1FBA8
:1006B000F0F04F4908600BE04C480068C0B200F110
:1006C00001004FF4FA41B1FBF0F04949086000BF66
:1006D00000BF704720204849086000BF46480068B6
:1006E00010F0400FFAD00320404908604FF001009D
:1006F0003D49C1F80C014148414908604FF0AA004A
:10070000404908604FF0550008604FF001003E4935
:1007100008604FF0AA003B4908604FF0550032498D
:10072000C1F88C0000BF2D48006810F0806FFAD02F
:100730000320354908604FF0AA002B49C1F88C000E
:100740004FF055002F49086000BF2448006810F0A2
:10075000407FFAD023202D4908604FF0AA0022499B
:10076000C1F8AC004FF05500294908604FF0010076
:10077000284908604FF0AA00254908604FF055004D
:100780001949C1F8AC0000BF2348006810F4806F1D
:10079000FAD003201F4908604FF0AA001249C1F89F
:1007A000AC004FF055001A49086000BF1A480068B5
:1007B00010F4407FFAD00020184908600A49C1F8B7
:1007C000AC011748174908604FF00000164908604F
:1007D00043F23A00044908607047000088C00F40A7
:1007E0000CC10F4000093D0000C00F4004C10F4084
:1007F00008000010001BB700A0C10F4063000500F7
:1008000084C00F408CC00F4080C00F40A4C00F4078
:10081000ACC00F40A0C00F40A8C00F40A8C10F40FF
:10082000DE872804C4C00F40C8C10F4070B50B4616
:10083000042835D2F54D2D68C5F3811434B1012C4F
:1008400008D0022C09D0032C0FD10AE0F04D2D68FE
:10085000A9080AE0EE4D296807E0ED4D2D6869080A
:1008600003E0EB4D2D68E90800BF00BF1D01B1FB9F
:10087000F5F2E84E06EBC00676683270150AE54ED2
:1008800006EBC00676683571E24D05EBC0056D6874
:100890002D7B25F08005DF4E06EBC00676683573AC
:1008A00070BD70B504460D46042C33D2D94A02EB14
:1008B000C4029178D74A12F83400FFF721FDD54AD7
:1008C00002EBC4029178D34A02EBC4025078FFF7DE
:1008D00017FDD1480068CF4901EBC401CA784FF039
:1008E000010101FA02F140EA0100CC49C1F8C4005B
:1008F0004FF00700C74901EBC401496808724FF087
:100900008300C44901EBC4014968087329462046A5
:10091000FFF78CFF70BD0146002004290DD200BFF7
:10092000BC4A02EBC1025268127D12F0010FF7D0EF
:10093000B84A02EBC10252681078704704280DD201
:1009400000BFB44A02EBC0025268127D12F0200FC1
:10095000F7D0B04A02EBC00252681170704710B570
:1009600004460B4604E013F8011B2046FFF7E6FFA0
:1009700018780028F7D110BD70B506460D46002343
:1009800018E03046FFF7C7FF044621463046FFF720
:10099000D5FF0D2C01D00A2C03D15BB10020E85407
:1009A00009E0082C03D113B1581EC3B202E0EC5485
:1009B000581CC3B2E5E700BF184670BDFEB5074638
:1009C0000E4614461D460023022E15D111E0681E66
:1009D000012101FA00F0204201D0012000E00020B6
:1009E000C3B203F13000C1B23846FFF7A7FF681E5B
:1009F000C5B2002DEBD136E024B930213846FFF7DF
:100A00009DFF30E0002314E04CB1B4FBF6F006FB90
:100A10001040C0B20DF80300B4FBF6F407E0FF2D60
:100A200001D00A2D00D906E000200DF80300581C63
:100A3000C3B2AB42E8DB00BF13E0581E1DF8000054
:100A4000092804DD581E1DF80000373003E0581E49
:100A50001DF800003030C1B23846FFF76FFF581E56
:100A6000C3B2002BE9D1FEBD2DE9F04106460C468C
:100A70002046FFF71DFC0546FF232A460A21304683
:100A8000FFF79CFF2E213046FFF758FF284600F065
:100A900011FA0746214600F0EDFA04466049204667
:100AA00000F01CFA0746FFF703FC0546FF232A4621
:100AB0000A213046FFF782FFBDE8F0810FB42DE92F
:100AC000FF5F10A803900F9F09E13E78252E73D198
:100AD0007F1C3E78302E13DB392E11DC4FF00008DE
:100AE00009E0A6F1300008EB880100EB410000F0BE
:100AF000FF087F1C3E78302E04DB392EF1DD01E04B
:100B00004FF0FF08582E71D010DC442E40D006DC88
:100B1000252E6CD0422E6BD0432E21D117E0462ECD
:100B200067D0532E7ED0552EF7D152E0662E7AD064
:100B300006DC622E78D0632E0AD0642EEDD110E050
:100B4000732E72D0752E38D0782EE6D152E000BFC9
:100B5000039802C8CEB2039031460E98FFF7EEFE1E
:100B6000B7E0039802C80FFA81F90390B9F1000FBA
:100B700007DAC9F100000FFA80F92D210E98FFF76E
:100B8000DDFE43464A460A210E98FFF717FFA0E014
:100B9000039850F804AB0390BAF1000F05DACAF1DC
:100BA000000A2D210E98FFF7C9FE434652460A213E
:100BB0000E98FFF703FF8CE08CE0039802C80390C7
:100BC00088B2029043460A21029A0E98FFF7F6FE79
:100BD0007FE00398006801900398001D039043464E
:100BE0000A21019A0E98FFF7E9FE72E01EE06BE021
:100BF0003AE04BE0039802C8039088B20290434663
:100C00001021029A0E98FFF7D9FE62E0A8C10F40AA
:100C10000800001084110000C4C00F4000C00F4045
:100C20000024744946E032E00DE044E00398006897
:100C300001900398001D039043461021019A0E98DD
:100C4000FFF7BCFE45E0039802C8039088B202900B
:100C5000B8F1FF0F01D14FF0100843460221029A6C
:100C60000E98FFF7ABFE34E00398006801900398FC
:100C7000001D0390B8F1FF0F01D14FF0100843465B
:100C80000221019A0E98FFF799FE22E000BF039817
:100C9000C01D20F007000390D0E900450830039004
:100CA0002046294600F024F8014600900E98FFF7F0
:100CB000DBFE0EE000BF039850F804BB03905946DA
:100CC0000E98FFF74CFE04E025210E98FFF736FE44
:100CD00000BF03E031460E98FFF730FE7F1C3878E6
:100CE00000287FF4F2AE0390BDE8FF1F5DF814FB0F
:100CF00021F00042A2F16052B2F5801F01F00043E2
:100D000028BFD2F17F6C0BD95FEA001C43EAC20214
:100D100042EB507018BF704728BF20F001007047A9
:100D2000B2F5801FBCBF184670474FEA410C1CF556
:100D3000001F02D2084600F098B970B500F009F81B
:100D400000000089FFF7F6BF4FF00040A0F58000DB
:100D500070470EF1020E2EF0030E5EF8046B364261
:100D600005D4012A43EB030515F5001F12D801280D
:100D700041EB010C1CF5001F0CD80ED14FEAD17CC1
:100D800015F5001F0CEB4C0C0CF1020C08BF4CEBE2
:100D9000D37C04E04FF0080C01E04FEAD37C0CEB6D
:100DA0004C0526FA05F606F00706B6F1040C06D245
:100DB0000EEB860CBDE870404CF0010C6047DFE89C
:100DC0000CF0090B02024FF000414FF00000A1F5BA
:100DD000002170BD19461046012851EB010418BFCF
:100DE000D4F5001484BF002001F0004170BD000064
:100DF00090EA010F48BF81F0004100F14C81421A96
:100E00003CBF801A89184FEAD0524FF07F4C1CEA41
:100E1000410FA2EBD15318BF9CEA026F00F03B8058
:100E20004FF0004C4CEA00204CEA012121FA03FC6F
:100E300010EB0C0C1ED202F1FF325FEA1C2040EBDB
:100E4000C25038BF70471CF07F0F4FEA400C18BFEC
:100E5000BCF17F4F38BF7047C3F12003994008BFF2
:100E600020F00100BCF17F4F38BF7047A0F1C040B7
:100E700000F0FBB84FEA3C00000A40EBC25028BF2C
:100E80001CF0FF0F4FEA400CE6D018BFBCF17F4FBB
:100E900038BF7047EAE79CEA026F05D010EA5C0FA2
:100EA00008BF00F00040704710B500F098F800BF90
:100EB00064FBBE3EB0FA80F310FA03F2C3F19D0367
:100EC0000AD0D90501EB1220530638BF704700F154
:100ED000010008BF20F00100704700004FF47F0CB4
:100EE0001CEAD0121EBF1CEAD11392EA0C0F93EA3F
:100EF0000C0F00F0478090EA010F48BF42F4807267
:100F00004FF0004C4CEA00204CEA012102EB0302B6
:100F1000A0FB0113A2F50002002918BF43F0010352
:100F20005B0028BF4FEA330342EB22425FEA132CF7
:100F30004CEBC2502EBFBCEB436FB2F57C0F704739
:100F40004FEA036CBCF1004F08BF20F00100B2F57E
:100F50007C0F38BF70470BD582F0FF0212F5803F3F
:100F6000C8BF704700F1C040D8BF00F000407047D4
:100F700000F5000C5FEA4C0C48BF7047B0F1C04070
:100F800000F073B890EA010F0CEAD11348BF42F4A5
:100F90008072624538BF634504D280EA010000F0E8
:100FA0000040704710B500F01AF800BF8900013EFC
:100FB00000F007B800F009B85FEA410C5FEA1C6C6A
:100FC00008D080EA010000F050B85FEA400C5FEA08
:100FD0001C6CF6D14FF00040A0F5800070470EF178
:100FE000020E2EF0030E5EF8044B244204D44FEAA6
:100FF0004102B2F17F4F11D84FEA4003B3F17F4F66
:101000000CD80ED14FEAD07CB2F17F4F0CEB4C0CD8
:101010000CF1020C08BF4CEBD17C04E04FF0080C43
:1010200001E04FEAD17C0CEB4C0324FA03F404F00A
:101030000704B4F1040C06D20EEB840CBDE810409A
:101040004CF0010C6047DFE80CF0070802024FF09B
:101050000040A0F5800010BD0846420018BFD2F144
:10106000807288BF00F0004010BDFF2141EAD050DF
:10107000C005704780F0004090EA010F7FF5BFAED9
:1010800081F0004100F007B890EA010F48BF81F0FD
:1010900000413FF5B4AE421A04D882F00042A0EB02
:1010A000020011444FEAD0524FF07F4C1CEA410F2E
:1010B000A2EBD15318BF9CEA026F4AD04FF0004C0C
:1010C0004CEA00204CEA012121FA03FCB0EB0C0CA5
:1010D0000FD412F0FE0F36D05FEA4C001DD500127F
:1010E00040EBC25038BF70471CF03F0F18BF70472D
:1010F0000BE0A2F101025FEA1C2040EBC25038BFB6
:1011000070471CF07F0F18BF7047C3F12003994050
:1011100014BF401E20F00100704780084FEA1223E0
:1011200008BF7047B0FA80FCA2EB0C02CCF1280C8F
:1011300060FA0CF093EA122F04BF00EBC250704724
:101140004FEAC3707047130A5FEADC1008BF7047AC
:10115000F6E79CEA026F04D010EA5C0F08BF00209B
:10116000704710B5FFF73BFF40DFF63E81F00040CF
:1011700070473031323334353637383941424344A1
:10118000454600000203010300C000404041020444
:10119000000001400A0B01180080094000010219FB
:1011A00000C00940C4110000000000100C00000045
:1011B00008010000D01100000C00001064020000C3
:1011C00024010000000000000000000000E1F5051F
:040000050000016D89
:00000001FF
