:020000040000FA
:10000000800200106D01000071010000730100000A
:100010007501000077010000790100000000000078
:100020000000000000000000000000007B01000054
:100030007D010000000000007F0100008101000040
:1000400083010000830100008301000083010000A0
:100050008301000083010000830100008301000090
:100060008301000083010000830100008301000080
:100070008301000083010000830100008301000070
:100080008301000083010000830100008301000060
:100090008301000083010000830100008301000050
:1000A0008301000083010000830100008301000040
:1000B0008301000083010000830100008301000030
:1000C00083010000830100008301000000F002F8BA
:1000D00000F03CF80AA090E8000C82448344AAF1A6
:1000E0000107DA4501D100F031F8AFF2090EBAE8A4
:1000F0000F0013F0010F18BFFB1A43F0010318475C
:10010000380C0000580C0000103A24BF78C878C1A1
:10011000FAD8520724BF30C830C144BF04680C600D
:10012000704700000023002400250026103A28BF55
:1001300078C1FBD8520728BF30C148BF0B60704759
:100140001FB500F0D2F81FBD10B510BD00F0CFFDF7
:100150001146FFF7F5FF00F023F800F0B0F803B404
:10016000FFF7F2FF03BC00F0B9F8000008480047B1
:10017000FEE7FEE7FEE7FEE7FEE7FEE7FEE7FEE757
:10018000FEE7FEE703480449024A044B70470000BB
:10019000CD000000800000108002001080000010E0
:1001A00088B000F0ADF83B233A2239213820CDE960
:1001B0000523CDE90301FF2300930193422241214E
:1001C0004020029300F00EFA1021022000F051FBB3
:1001D0002BE000F024FB15A1012000F0E2FB00F071
:1001E0001EFB22A000F078FC032000F074FD00F05C
:1001F00016FB40F2D24124A000F06EFC4AF6CD314D
:1002000024A000F069FC032000F065FD00F007FB6E
:1002100023A000F061FC00F057FB41F2342124A040
:1002200000F05AFC032000F056FDD2E720202020E9
:1002300020202020202050726F6772616D20746F23
:100240002064656D6F6E7374726174652074686587
:10025000204578706C6F7265456D62656464656495
:10026000204C6962205573616765000048656C6CBD
:100270006F2C20576F726C64200A476F6F64204D9B
:100280006F726E696E6700004465634E756D3A2546
:10029000346400000A4865784E756D3A253478005C
:1002A00031362D6269742042696E3A31323334003E
:1002B00025313662000000007047704770470446E1
:1002C000AFF300802046FFF74AFF00000048704768
:1002D0001C00001000487047200000100149182041
:1002E000ABBEFEE726000200704710B5FFF7F2FF35
:1002F0004FF00001016010BD00000000FFFFFFFF94
:1003000020207649086000BF7448006810F0400F54
:10031000FAD00320724908604FF000007149C1F81B
:10032000A801714908604FF00100704908607048E9
:10033000704908604FF00100A1F1040108604FF01E
:10034000AA006D4908604FF055006649C1F88C005D
:1003500000BF6A48006810F0806FFAD00320684937
:1003600008604FF0AA005F49C1F88C004FF05500BB
:10037000614908604FF000006249086062486349C3
:1003800008604FF000005749C1F8C8015B48006899
:10039000C0F30160032868D15448006810F00300DE
:1003A00006D0012823D002283FD003285CD100E0EA
:1003B00000BF52480068C0F30E0000F101004FEA90
:1003C0004000534900FB01F04649D1F88810C1F3C1
:1003D000074101F10101B0FBF1F141480068C0B2F1
:1003E00000F10100B1FBF0F04A4908603CE04348ED
:1003F0000068C0F30E0000F101004FEA40004649DA
:1004000000FB01F03749D1F88810C1F3074101F131
:100410000101B0FBF1F132480068C0B200F1010007
:10042000B1FBF0F03B4908601EE034480068C0F3BF
:100430000E0000F101004FEA40004FF4FA4100FBCA
:1004400001F02849D1F88810C1F3074101F10101F9
:10045000B0FBF1F122480068C0B200F10100B1FB2D
:10046000F0F02C49086000BF2FE02048006810F031
:10047000030006D0012810D0022819D0032823D168
:1004800000E000BF16480068C0B200F1010020493A
:10049000B1FBF0F01F49086016E011480068C0B2D7
:1004A00000F101001C49B1FBF0F01A4908600BE0B3
:1004B0000B480068C0B200F101004FF4FA41B1FBF3
:1004C000F0F01449086000BF00BF0648006820F43F
:1004D000704040F48040034908607047A0C10F405D
:1004E00004C10F4000C00F40ACC10F400CC10F4011
:1004F0006300050084C00F408CC00F4088C00F40CF
:1005000080C00F4008C10F40DE872804C4C00F40E0
:1005100000093D0000000010001BB70070B5024646
:100520000C461046531100F01F005B00102804DB3E
:100530005D1CEBB2A0F11005E8B24506280E274D70
:1005400005EB8301032686400D68B5430D6004FA70
:1005500000F60D6835430D6070BD70B50B46024660
:10056000441102F01F021E4D05EB44112BB10D6822
:100570000126964035430D6004E00D680126964043
:10058000B5430D6070BD70B50B460246441102F0D4
:100590001F02134D05EB44112BB14D690126964006
:1005A00035434D6104E04D6901269640B5434D61E8
:1005B00070BD70B5014600200A464B1102F01F02C3
:1005C000074D05EB4314656901269640354201D07D
:1005D000012500E00025E8B270BD000000C0024027
:1005E00000C009202DE9F05F82460D4616461C46E4
:1005F0000AAF97E8800BFC4880F803A005714671AC
:100600008471C77180F8088080F8099080F80AB07A
:10061000F5490E98C8720F98087310984873FF2C0C
:1006200007D0FF2F05D0B8F1FF0F02D0B9F1FF0FAF
:1006300003D10420EC49887012E00820EA49887050
:1006400001212046FFF789FF01213846FFF785FF8A
:1006500001214046FFF781FF01214846FFF77DFF5A
:1006600001215046FFF779FF01212846FFF775FF6A
:1006700001213046FFF771FF01215846FFF76DFF5A
:1006800001210E98FFF769FF01210F98FFF765FF21
:1006900001211098FFF761FFBDE8F09F10B5D24926
:1006A000C8780021FFF76FFFCF4908790021FFF7D5
:1006B0006AFFCD4948790121FFF765FF0A2000F064
:1006C000F1FAC94948790021FFF75DFF10BD10B567
:1006D0000446C549887AC4F30011FFF754FFC249A4
:1006E000C87AC4F34011FFF74EFFBF49087BC4F33B
:1006F0008011FFF748FFBC49487BE109FFF743FF42
:1007000010BD10B5044604F00101B74A9079FFF717
:100710003AFFB549C879C4F34001FFF734FFB24945
:10072000087AC4F38001FFF72EFFAF49487AC4F37B
:10073000C001FFF728FF10BD10B5AB480079FF28B6
:1007400040D0A949487B0021FFF707FFA649C87898
:100750000021FFF718FFA44908790121FFF713FFD3
:1007600000BFA14948790021FFF70DFF0A2000F0E2
:1007700099FA9D4948790121FFF705FF0A2000F009
:1007800091FA9949487BFFF714FF04469648807810
:1007900004280FD1944948790021FFF7F4FE0A207C
:1007A00000F080FA904948790121FFF7ECFE0A2019
:1007B00000F078FA002CD4D18B49487B0121FFF757
:1007C000CCFE02E0012000F07AFA10BD10B504461C
:1007D000FFF7B2FF84488078082803D12046FFF74E
:1007E00090FF06E02046FFF772FFFFF757FF200754
:1007F000040E2046FFF76BFFFFF750FF10BD10B54A
:10080000044679480078A04208DB00207749087048
:10081000774804707749085DFFF7D8FF10BD10B521
:100820000120FFF7D3FF0020FFF7E9FF10BD10B54F
:100830003020FFF74CFFFFF731FF642000F03FFA54
:100840003020FFF744FFFFF729FFC82000F02AFA05
:100850003020FFF73CFFFFF721FFC82000F022FA0D
:100860002020FFF734FFFFF719FFC82000F01AFA25
:1008700010BD70B505460C465B4844700570022DEE
:1008800008DD04F00F0090305A49487004F00F0062
:10089000D030C870642000F012FA534880780828DD
:1008A00003D13820FFF792FF08E04F4880780428F2
:1008B00004D1FFF7BCFF2820FFF788FF0E20FFF7C9
:1008C00085FFFFF7ACFF70BD10B549480078401CAC
:1008D000474908700020454908704348007844495A
:1008E0000978884202DA0120414908704149404AAA
:1008F0001278885CFFF76AFF10BD10B53A49C878D6
:100900000121FFF740FE384908790021FFF73BFE3F
:10091000354948790121FFF736FE0A2000F0C2F977
:10092000314948790021FFF72EFE10BD10B504466D
:10093000FFF702FF2C488078082803D12046FFF7F4
:10094000E0FE06E02046FFF7C2FEFFF7D6FF2007D5
:10095000040E2046FFF7BBFEFFF7CFFF10BD10B51A
:1009600004462148407821490978884201DD0A2C53
:1009700001D1FFF7A9FF0A2C07D02046FFF7D6FFC9
:100980001A480078401C1949087010BD10B504467B
:1009900003E014F8010BFFF7E2FF20780028F8D1FC
:1009A00010BD2DE9F04107460E460F480078B842C9
:1009B00000DA01270C20FFF709FF00252AE038465E
:1009C000FFF71DFF002405E02919705CFFF7C7FF42
:1009D000601CC4B204484078A04203DD2819305C92
:1009E0000028F1D10DE000000C00001009000010FB
:1009F00008000010040000102020FFF7B0FF601C6A
:100A0000C4B2A7484078A042F6DC7D2000F057F938
:100A1000681CC5B2705D0028D1D10E20FFF7D6FE4C
:100A2000BDE8F081FEB507460E4615460024022FAC
:100A300014D110E0681E012101FA00F0304201D00B
:100A4000012000E00020C4B204F13000C0B2FFF782
:100A500086FF681EC5B2002DECD13CE05EB90024D3
:100A600004E03020FFF77BFF601CC4B2AC4232DAF6
:100A70000A2CF6D32FE0002414E04EB1B6FBF7F0B9
:100A800007FB1060C0B20DF80400B6FBF7F607E0F4
:100A9000FF2D01D00A2D00D906E000200DF804003A
:100AA000601CC4B2AC42E8DB00BF12E0611E1DF85E
:100AB0000110092904DD611E1DF80110373103E022
:100AC000611E1DF801103031C8B2FFF748FF601EEB
:100AD000C4B2002CEAD1FEBD0FB42DE9F84F0BA82B
:100AE00000900A9DD2E02C78252C72D16D1C2C78B8
:100AF000302C11DB392C0FDC002608E0A4F130008B
:100B000006EB860100EB4100C6B26D1C2C78302C40
:100B100003DB392CF2DD00E0FF26582C72D010DC0C
:100B2000442C39D006DC252C6AD0422C69D0432CC9
:100B300020D117E0462C6FD0532C6ED0552CF7D116
:100B400048E0662C6AD006DC622C69D0632C0AD09F
:100B5000642CEDD10FE0732C70D0752C2ED0782C36
:100B6000E6D141E000BF009802C8CCB20090204618
:100B7000FFF7F5FE85E0009802C80FB20090002F45
:100B800004DA784207B22D20FFF7E9FE32463946F3
:100B90000A20FFF747FF74E0009850F8048B00909C
:100BA000B8F1000F04DAC8F100082D20FFF7D7FED6
:100BB000324641460A20FFF735FF62E0009802C83E
:100BC0001FFA81FA0090324651460A20FFF72AFFA9
:100BD00057E057E0009850F804BB00903246594661
:100BE0000A20FFF71FFF4CE0009802C81FFA81FAA5
:100BF0000090324651461020FFF714FF41E001E01B
:100C00003BE01CE0009850F804BB00903246594687
:100C10001020FFF707FF34E01EE025E01DE0FFE7AE
:100C2000009802C81FFA81FA0090FF2E00D110260A
:100C3000324651460220FFF7F5FE22E015E000980B
:100C400050F804BB0090FF2E00D1102632465946C2
:100C50000220FFF7E7FE14E000BF0098C01D20F05F
:100C60000700083000900CE000BF009850F8049B8B
:100C700000904846FFF78AFE03E02520FFF76FFE4D
:100C800000BF02E02046FFF76AFE6D1C28780028AE
:100C90007FF429AF0090BDE8F80F5DF814FB000069
:100CA0000C0000100021002200BF05E0002200E03F
:100CB000521C192AFCD3491C8142F7D3704730B526
:100CC0000446002504E04FF47A70FFF7EBFF6D1C3B
:100CD000A542F8D330BD30B50446002504E04FF4FA
:100CE0007A70FFF7ECFF6D1CA542F8D330BD754656
:100CF000FFF7ECFAAE4605006946534620F00700C0
:100D0000854618B020B5FFF73DFABDE820404FF00A
:100D100000064FF000074FF000084FF0000B21F0E5
:100D20000701AC46ACE8C009ACE8C009ACE8C009B2
:100D3000ACE8C0098D467047580D00000000001057
:100D40000C00000008010000640D00000C00001001
:100D5000740200002401000000093D0080C090D012
:040D6000000000008F
:040000050000016D89
:00000001FF
