:020000040000FA
:10000000680200106D010000710100007301000022
:100010007501000077010000790100000000000078
:100020000000000000000000000000007B01000054
:100030007D010000000000007F0100008101000040
:1000400083010000830100008301000083010000A0
:100050008301000083010000830100008301000090
:100060008301000083010000830100008301000080
:100070008301000083010000830100008301000070
:100080008301000083010000830100008301000060
:100090008301000083010000830100008301000050
:1000A0008301000083010000830100008301000040
:1000B0008301000083010000830100008301000030
:1000C00083010000830100008301000000F002F8BA
:1000D00000F03CF80AA090E8000C82448344AAF1A6
:1000E0000107DA4501D100F031F8AFF2090EBAE8A4
:1000F0000F0013F0010F18BFFB1A43F0010318475C
:100100002801000048010000103A24BF78C878C1D7
:10011000FAD8520724BF30C830C144BF04680C600D
:10012000704700000023002400250026103A28BF55
:1001300078C1FBD8520728BF30C148BF0B60704759
:100140001FB500F06AF81FBD10B510BD00F02BF808
:100150001146FFF7F5FF00F067F900F049F803B426
:10016000FFF7F2FF03BC00F051F800000848004719
:10017000FEE7FEE7FEE7FEE7FEE7FEE7FEE7FEE757
:10018000FEE7FEE703480449024A044B70470000BB
:10019000CD00000068000010680200106800001028
:1001A000704770477047754600F028F8AE46050066
:1001B0006946534620F00700854618B020B5FFF782
:1001C000E1FFBDE820404FF000064FF000074FF080
:1001D00000084FF0000B21F00701AC46ACE8C00965
:1001E000ACE8C009ACE8C009ACE8C0098D4670476E
:1001F0000446AFF300802046FFF7B1FF0048704788
:100200000400001000487047080000100149182041
:10021000ABBEFEE726000200704710B5FFF7F2FF05
:100220004FF00001016010BD6C07000000000010DD
:100230000400000008010000700700000400001026
:100240006402000024010000000000000000000023
:10025000000000000000000000000000000000009E
:10026000000000000000000000000000000000008E
:10027000000000000000000000000000000000007E
:10028000000000000000000000000000000000006E
:10029000000000000000000000000000000000005E
:1002A000000000000000000000000000000000004E
:1002B000000000000000000000000000000000003E
:1002C000000000000000000000000000000000002E
:1002D000000000000000000000000000000000001E
:1002E000000000000000000000000000000000000E
:1002F000000000000000000000000000FFFFFFFF02
:10030000002100E0491C8142FCDB70476C49496BCD
:1003100021F07F616A4A51631146496B00F0010286
:1003200041EA0251664A51631146496BC0F34002EB
:1003300041EA4251624A51631146496BC0F380025F
:1003400041EA82515E4A51631146496BC0F3C002D3
:1003500041EAC2515A4A51631146496BC0F3001237
:1003600041EA0261564A51631146496BC0F340129B
:1003700041EA4261524A51631146496BC0F380120F
:1003800041EA82614E4A51631146496BC20941EA12
:10039000C2614B4A5163704700B503461846FFF7E8
:1003A000B5FF4748406D20F00100454948650846C3
:1003B000406D20F0020048650846406D40F00400A2
:1003C00048654FF47A70FFF79BFF3D48406D20F081
:1003D00004003B49486542F21070FFF791FF00BDF1
:1003E00000B503461846FFF791FF3548406D40F0D1
:1003F0000100334948650846406D20F00200486519
:100400000846406D40F0040048654FF47A70FFF7ED
:1004100077FF2B48406D20F004002949486542F2DF
:100420001070FFF76DFF00BD1FB526A30FCB8DE841
:100430000F0000F0EFF84FF07F60214908620720BD
:1004400008643820FFF7A8FF0120FFF7A5FF0E2062
:10045000FFF7A2FF8020FFF79FFF4820FFF7C0FFB4
:100460006520FFF7BDFF6C20FFF7BAFF6C20FFF798
:10047000B7FF6F20FFF7B4FF2020FFF7B1FF772011
:10048000FFF7AEFF6F20FFF7ABFF7220FFF7A8FF6B
:100490006C20FFF7A5FF6420FFF7A2FFC020FFF745
:1004A0007BFF002405E01DF80400FFF799FF601CA6
:1004B000C4B21DF804000028F5D100BFFEE700001B
:1004C00000C00920476F6F64206D6F726E696E67A0
:1004D0002100000091480068C0F30160032868D142
:1004E0008F48006810F0030006D0012823D00228AE
:1004F0003FD003285CD100E000BF88480068C0F30B
:100500000E0000F101004FEA4000864900FB01F0B7
:100510008549D1F88810C1F3074101F10101B0FB11
:10052000F1F182480068C0B200F10100B1FBF0F0C7
:100530007F4908603CE079480068C0F30E0000F194
:1005400001004FEA40007B4900FB01F07649D1F8F9
:100550008810C1F3074101F10101B0FBF1F17348CB
:100560000068C0B200F10100B1FBF0F07049086012
:100570001EE06A480068C0F30E0000F101004FEA77
:1005800040004FF4FA4100FB01F06749D1F88810B0
:10059000C1F3074101F10101B0FBF1F163480068CB
:1005A000C0B200F10100B1FBF0F06149086000BF8A
:1005B0002FE05B48006810F0030006D0012810D03F
:1005C000022819D0032823D100E000BF5748006853
:1005D000C0B200F101005349B1FBF0F0544908608A
:1005E00016E052480068C0B200F101005149B1FB69
:1005F000F0F04F4908600BE04C480068C0B200F1D1
:1006000001004FF4FA41B1FBF0F04949086000BF26
:1006100000BF704720204849086000BF4648006876
:1006200010F0400FFAD00320404908604FF001005D
:100630003D49C1F80C014148414908604FF0AA000A
:10064000404908604FF0550008604FF001003E49F6
:1006500008604FF0AA003B4908604FF0550032494E
:10066000C1F88C0000BF2D48006810F0806FFAD0F0
:100670000320354908604FF0AA002B49C1F88C00CF
:100680004FF055002F49086000BF2448006810F063
:10069000407FFAD023202D4908604FF0AA0022495C
:1006A000C1F8AC004FF05500294908604FF0010037
:1006B000284908604FF0AA00254908604FF055000E
:1006C0001949C1F8AC0000BF2348006810F4806FDE
:1006D000FAD003201F4908604FF0AA001249C1F860
:1006E000AC004FF055001A49086000BF1A48006876
:1006F00010F4407FFAD00020184908600A49C1F878
:10070000AC011748174908604FF00000164908600F
:1007100043F23A00044908607047000088C00F4067
:100720000CC10F4000093D0000C00F4004C10F4044
:1007300000000010001BB700A0C10F4063000500BF
:1007400084C00F408CC00F4080C00F40A4C00F4039
:10075000ACC00F40A0C00F40A8C00F40A8C10F40C0
:10076000DE872804C4C00F40C8C10F4000E1F50572
:040000050000016D89
:00000001FF
