:020000040000FA
:100000007002001035020000390200003B020000BF
:100010003D0200003F02000041020000000000001D
:10002000000000000000000000000000430200008B
:1000300045020000000000004702000049020000E5
:100040004B0200004B0200004B0200004B0200007C
:100050004B0200004B0200004B0200004B0200006C
:100060004B0200004B0200004B0200004B0200005C
:100070004B0200004B0200004B0200004B0200004C
:100080004B0200004B0200004B0200004B0200003C
:100090004B0200004B0200004B0200004B0200002C
:1000A0004B0200004B0200004B0200004B0200001C
:1000B0004B0200004B0200004B0200004B0200000C
:1000C0004B0200004B0200004B02000000F002F85F
:1000D00000F03CF80AA090E8000C82448344AAF1A6
:1000E0000107DA4501D100F031F8AFF2090EBAE8A4
:1000F0000F0013F0010F18BFFB1A43F0010318475C
:10010000080F0000280F0000103A24BF78C878C1FB
:10011000FAD8520724BF30C830C144BF04680C600D
:10012000704700000023002400250026103A28BF55
:1001300078C1FBD8520728BF30C148BF0B60704759
:100140001FB500F0CEF81FBD10B510BD00F08FF840
:100150001146FFF7F5FF00F041FC00F0ADF803B4E5
:10016000FFF7F2FF03BC00F0B5F8000070B50246DF
:100170000C461046531100F01F005B00102804DBF2
:100180005D1CEBB2A0F11005E8B24506280E274D24
:1001900005EB8301032686400D68B5430D6004FA24
:1001A00000F60D6835430D6070BD70B50B46024614
:1001B000441102F01F021E4D05EB44112BB10D68D6
:1001C0000126964035430D6004E00D6801269640F7
:1001D000B5430D6070BD70B50B460246441102F088
:1001E0001F02134D05EB44112BB18D69012696407A
:1001F00035438D6104E0CD69012696403543CD61DC
:1002000070BD70B5014600200A464B1102F01F0276
:10021000074D05EB4314656901269640354201D030
:10022000012500E00025E8B270BD000000C00240DA
:1002300000C0092008480047FEE7FEE7FEE7FEE7AA
:10024000FEE7FEE7FEE7FEE7FEE7FEE703480449B8
:10025000024A044B70470000CD00000070000010FF
:1002600070020010700000107047704770477546AC
:1002700000F028F8AE4605006946534620F0070016
:10028000854618B020B5FFF7E1FFBDE820404FF0EC
:1002900000064FF000074FF000084FF0000B21F070
:1002A0000701AC46ACE8C009ACE8C009ACE8C0093D
:1002B000ACE8C0098D4670470446AFF30080204685
:1002C000FFF74DFF004870471000001000487047CE
:1002D0001400001001491820ABBEFEE72600020002
:1002E000704710B5FFF7F2FF4FF00001016010BD3D
:1002F000FF2141EAD050C00570470000FFFFFFFF1B
:1003000020207649086000BF7448006810F0400F54
:10031000FAD00320724908604FF000007149C1F81B
:10032000A801714908604FF00100704908607048E9
:10033000704908604FF00100A1F1040108604FF01E
:10034000AA006D4908604FF055006649C1F88C005D
:1003500000BF6A48006810F0806FFAD00320684937
:1003600008604FF0AA005F49C1F88C004FF05500BB
:10037000614908604FF000006249086062486349C3
:1003800008604FF000005749C1F8C8015B48006899
:10039000C0F30160032868D15448006810F00300DE
:1003A00006D0012823D002283FD003285CD100E0EA
:1003B00000BF52480068C0F30E0000F101004FEA90
:1003C0004000534900FB01F04649D1F88810C1F3C1
:1003D000074101F10101B0FBF1F141480068C0B2F1
:1003E00000F10100B1FBF0F04A4908603CE04348ED
:1003F0000068C0F30E0000F101004FEA40004649DA
:1004000000FB01F03749D1F88810C1F3074101F131
:100410000101B0FBF1F132480068C0B200F1010007
:10042000B1FBF0F03B4908601EE034480068C0F3BF
:100430000E0000F101004FEA40004FF4FA4100FBCA
:1004400001F02849D1F88810C1F3074101F10101F9
:10045000B0FBF1F122480068C0B200F10100B1FB2D
:10046000F0F02C49086000BF2FE02048006810F031
:10047000030006D0012810D0022819D0032823D168
:1004800000E000BF16480068C0B200F1010020493A
:10049000B1FBF0F01F49086016E011480068C0B2D7
:1004A00000F101001C49B1FBF0F01A4908600BE0B3
:1004B0000B480068C0B200F101004FF4FA41B1FBF3
:1004C000F0F01449086000BF00BF0648006820F43F
:1004D000704040F48040034908607047A0C10F405D
:1004E00004C10F4000C00F40ACC10F400CC10F4011
:1004F0006300050084C00F408CC00F4088C00F40CF
:1005000080C00F4008C10F40DE872804C4C00F40E0
:1005100000093D0000000010001BB70070B50B463D
:10052000042835D2F44D2D68C5F3811434B1012C63
:1005300008D0022C09D0032C0FD10AE0EF4D2D6812
:10054000A9080AE0ED4D296807E0EC4D2D6869081F
:1005500003E0EA4D2D68E90800BF00BF1D01B1FBB3
:10056000F5F2E74E06EBC00676683270150AE44EE7
:1005700006EBC00676683571E14D05EBC0056D6888
:100580002D7B25F08005DE4E06EBC00676683573C0
:1005900070BD70B504460D46042C33D2D84A02EB28
:1005A000C4029178D64A12F83400FFF7DFFDD44A2E
:1005B00002EBC4029178D24A02EBC4025078FFF7F2
:1005C000D5FDD0480068CE4901EBC401CA784FF090
:1005D000010101FA02F140EA0100CB49C1F8C4006F
:1005E0004FF00700C64901EBC401496808724FF09B
:1005F0008300C34901EBC4014968087329462046BA
:10060000FFF78CFF70BD0146002004290DD200BF0A
:10061000BB4A02EBC1025268127D12F0010FF7D003
:10062000B74A02EBC10252681078704704280DD215
:1006300000BFB34A02EBC0025268127D12F0200FD5
:10064000F7D0AF4A02EBC00252681170704710B584
:1006500004460B4604E013F8011B2046FFF7E6FFB3
:1006600018780028F7D110BD30B505460C4610E0CB
:100670002846FFF7C8FF034619462846FFF7D6FF6E
:100680000D2B01D00A2B02D10020207002E0237034
:10069000641CEDE700BF30BDFEB507460E461546AB
:1006A0001C460023022E15D111E0601E012101FA23
:1006B00000F0284201D0012000E00020C3B203F185
:1006C0003000C1B23846FFF7B1FF601EC4B2002C43
:1006D000EBD13EE065B9002305E030213846FFF755
:1006E000A5FF581CC3B2A34233DA0A2BF5D330E07E
:1006F000002314E04DB1B5FBF6F006FB1050C0B27C
:100700000DF80300B5FBF6F507E0FF2C01D00A2C2D
:1007100000D906E000200DF80300581CC3B2A34224
:10072000E8DB00BF13E0581E1DF80000092804DDB7
:10073000581E1DF80000373003E0581E1DF8000059
:100740003030C1B23846FFF771FF581EC3B2002BDC
:10075000E9D1FEBD2DE9F04106460C46204600F0E9
:10076000C7FA0546FF232A460A213046FFF794FFC1
:100770002E213046FFF75AFF284600F0D9FA0746E7
:10078000214600F0B0FB04466049204600F0E4FA40
:10079000074600F0ADFA0546FF232A460A213046F7
:1007A000FFF77AFFBDE8F0810FB42DE9FF5F10A8D5
:1007B00003900F9F09E13E78252E73D17F1C3E7870
:1007C000302E13DB392E11DC4FF0000809E0A6F1C2
:1007D000300008EB880100EB410000F0FF087F1CAF
:1007E0003E78302E04DB392EF1DD01E04FF0FF08BA
:1007F000582E71D010DC442E40D006DC252E6CD053
:10080000422E6BD0432E21D117E0462E67D0532EB7
:100810007ED0552EF7D152E0662E7AD006DC622EBD
:1008200078D0632E0AD0642EEDD110E0732E72D0F2
:10083000752E38D0782EE6D152E000BF039802C85A
:10084000CEB2039031460E98FFF7F0FEB7E0039862
:1008500002C80FFA81F90390B9F1000F07DAC9F164
:1008600000000FFA80F92D210E98FFF7DFFE4346B6
:100870004A460A210E98FFF70FFFA0E0039850F8B0
:1008800004AB0390BAF1000F05DACAF1000A2D217A
:100890000E98FFF7CBFE434652460A210E98FFF70B
:1008A000FBFE8CE08CE0039802C8039088B20290B3
:1008B00043460A21029A0E98FFF7EEFE7FE0039866
:1008C000006801900398001D039043460A21019A95
:1008D0000E98FFF7E1FE72E01EE06BE03AE04BE0BD
:1008E000039802C8039088B2029043461021029AEE
:1008F0000E98FFF7D1FE62E0A8C10F400000001083
:10090000E80F0000C4C00F4000C00F40002474492D
:1009100046E032E00DE044E003980068019003985F
:10092000001D039043461021019A0E98FFF7B4FE74
:1009300045E0039802C8039088B20290B8F1FF0F17
:1009400001D14FF0100843460221029A0E98FFF79A
:10095000A3FE34E00398006801900398001D039003
:10096000B8F1FF0F01D14FF0100843460221019A60
:100970000E98FFF791FE22E000BF0398C01D20F003
:1009800007000390D0E9004508300390204629462F
:1009900000F0CCF8014600900E98FFF7DBFE0EE069
:1009A00000BF039850F804BB039059460E98FFF718
:1009B0004EFE04E025210E98FFF738FE00BF03E04D
:1009C00031460E98FFF732FE7F1C387800287FF4FE
:1009D000F2AE0390BDE8FF1F5DF814FBFFF790FC3B
:1009E0004FF416510020FFF7D4FD4FF416510120AB
:1009F000FFF7CFFD4FF416510220FFF7CAFD4FF469
:100A000016510320FFF7C5FD4AF6CD3340F2D2421E
:100A10001BA10020FFF7C8FEDD2341F22E621EA1BC
:100A20000120FFF7C1FEEE2340F65D5220A1022017
:100A3000FFF7BAFEFF2342F2D02223A10320FFF7E3
:100A4000B3FE4AF6CD3340F2D24225A10020FFF793
:100A5000ABFEDD2341F22E6227A10120FFF7A4FEA9
:100A6000EE2340F65D522AA10220FFF79DFEFF23F0
:100A70002D4815A102680320FFF796FE00BFFEE790
:100A80004368616E6E656C205A65726F2025346410
:100A90002C202025327800004368616E6E656C2042
:100AA0004F6E65202534642C2020202532780000EC
:100AB0004368616E6E656C2054776F202534642C1A
:100AC00020202025327800004368616E6E656C201E
:100AD0005468726565202534642C20253278000026
:100AE0004368616E6E656C205A65726F20253464B0
:100AF0002C202532780000004368616E6E656C2002
:100B00004F6E65202534642C2025327800000000CB
:100B10004368616E6E656C2054776F202534642CB9
:100B200020253278000000000C00001021F0004267
:100B3000A2F16052B2F5801F01F0004328BFD2F14C
:100B40007F6C0BD95FEA001C43EAC20242EB507093
:100B500018BF704728BF20F001007047B2F5801F12
:100B6000BCBF184670474FEA410C1CF5001F02D26B
:100B70000846FFF7BDBB70B500F009F8000000891A
:100B8000FFF7F6BF4FF00040A0F5800070470EF170
:100B9000020E2EF0030E5EF8046B364205D4012AD5
:100BA00043EB030515F5001F12D8012841EB010C9A
:100BB0001CF5001F0CD80ED14FEAD17C15F5001F93
:100BC0000CEB4C0C0CF1020C08BF4CEBD37C04E09A
:100BD0004FF0080C01E04FEAD37C0CEB4C0526FAF1
:100BE00005F606F00706B6F1040C06D20EEB860CED
:100BF000BDE870404CF0010C6047DFE80CF0090BD9
:100C000002024FF000414FF00000A1F5002170BD3D
:100C100019461046012851EB010418BFD4F5001401
:100C200084BF002001F0004170BD000090EA010F78
:100C300048BF81F0004100F16881421A3CBF801A30
:100C400089184FEAD0524FF07F4C1CEA410FA2EBBB
:100C5000D15318BF9CEA026F00F03B804FF0004C6C
:100C60004CEA00204CEA012121FA03FC10EB0C0CA9
:100C70001ED202F1FF325FEA1C2040EBC25038BFA7
:100C800070471CF07F0F4FEA400C18BFBCF17F4F3C
:100C900038BF7047C3F12003994008BF20F001001E
:100CA000BCF17F4F38BF7047A0F1C040FFF720BBB9
:100CB0004FEA3C00000A40EBC25028BF1CF0FF0F77
:100CC0004FEA400CE6D018BFBCF17F4F38BF7047E9
:100CD000EAE79CEA026F05D010EA5C0F08BF00F05B
:100CE0000040704710B500F0B8F800BF64FBBE3E8E
:100CF000C10DD1F19E0206DB4FEA002343F0004311
:100D000023FA02F07047004207D54FEA4001B1F1E3
:100D1000FE4F02D24FF00000704710B500F09DF872
:100D200049922480002070476FEA2000704700003D
:100D3000B0FA80F310FA03F2C3F19D030AD0D9058B
:100D400001EB1220530638BF704700F1010008BFC5
:100D500020F00100704700004FF47F0C1CEAD01215
:100D60001EBF1CEAD11392EA0C0F93EA0C0F00F09D
:100D7000478090EA010F48BF42F480724FF0004C68
:100D80004CEA00204CEA012102EB0302A0FB011314
:100D9000A2F50002002918BF43F001035B0028BF41
:100DA0004FEA330342EB22425FEA132C4CEBC25072
:100DB0002EBFBCEB436FB2F57C0F70474FEA036C5C
:100DC000BCF1004F08BF20F00100B2F57C0F38BF26
:100DD00070470BD582F0FF0212F5803FC8BF704705
:100DE00000F1C040D8BF00F00040704700F5000C93
:100DF0005FEA4C0C48BF7047B0F1C040FFF778BACB
:100E000090EA010F0CEAD11348BF42F480726245A8
:100E100038BF634504D280EA010000F0004070470B
:100E200010B500F01AF800BF8900013E00F007B8C5
:100E300000F009B85FEA410C5FEA1C6C08D080EA58
:100E40000100FFF755BA5FEA400C5FEA1C6CF6D16F
:100E50004FF00040A0F5800070470EF1020E2EF01A
:100E6000030E5EF8044B244204D44FEA4102B2F16F
:100E70007F4F11D84FEA4003B3F17F4F0CD80ED10A
:100E80004FEAD07CB2F17F4F0CEB4C0C0CF1020C12
:100E900008BF4CEBD17C04E04FF0080C01E04FEAB6
:100EA000D17C0CEB4C0324FA03F404F00704B4F1F6
:100EB000040C06D20EEB840CBDE810404CF0010C83
:100EC0006047DFE80CF0070802024FF00040A0F591
:100ED000800010BD0846420018BFD2F1807288BF62
:100EE00000F0004010BD80F0004090EA010F7FF557
:100EF000A4AE81F0004100F008B8000090EA010FB4
:100F000048BF81F000413FF598AE421A04D882F004
:100F10000042A0EB020011444FEAD0524FF07F4C48
:100F20001CEA410FA2EBD15318BF9CEA026F4AD0D2
:100F30004FF0004C4CEA00204CEA012121FA03FC5E
:100F4000B0EB0C0C0FD412F0FE0F36D05FEA4C0061
:100F50001DD5001240EBC25038BF70471CF03F0F48
:100F600018BF70470BE0A2F101025FEA1C2040EBC2
:100F7000C25038BF70471CF07F0F18BF7047C3F1D5
:100F80002003994014BF401E20F0010070478008E4
:100F90004FEA122308BF7047B0FA80FCA2EB0C02A4
:100FA000CCF1280C60FA0CF093EA122F04BF00EB8E
:100FB000C25070474FEAC3707047130A5FEADC10F3
:100FC00008BF7047F6E79CEA026F04D010EA5C0F96
:100FD00008BF0020704710B5FFF73FFF40DFF63E27
:100FE00081F00040704700000203010300C0004090
:100FF0000F100104000001400A0B01180080094095
:101000009C9D031900C0094028100000000000103A
:10101000100000000801000038100000100000104F
:10102000600200002401000000093D0057656C6368
:081030006F6D6500393000000E
:0400000500000235C0
:00000001FF
