:020000040000FA
:10000000980200106D0100007101000073010000F2
:100010007501000077010000790100000000000078
:100020000000000000000000000000007B01000054
:100030007D010000000000007F0100008101000040
:10004000830100006D04000089040000A504000085
:10005000C10400008301000083010000830100004F
:100060008301000083010000830100008301000080
:100070008301000083010000830100008301000070
:100080008301000083010000830100008301000060
:100090008301000083010000830100008301000050
:1000A0008301000083010000830100008301000040
:1000B0008301000083010000830100008301000030
:1000C00083010000830100008301000000F002F8BA
:1000D00000F03CF80AA090E8000C82448344AAF1A6
:1000E0000107DA4501D100F031F8AFF2090EBAE8A4
:1000F0000F0013F0010F18BFFB1A43F0010318475C
:100100001807000038070000103A24BF78C878C1EB
:10011000FAD8520724BF30C830C144BF04680C600D
:10012000704700000023002400250026103A28BF55
:1001300078C1FBD8520728BF30C148BF0B60704759
:100140001FB500F061FB1FBD10B510BD00F022FB14
:100150001146FFF7F5FF00F0A5F800F040FB03B4EF
:10016000FFF7F2FF03BC00F049FB0000084800471E
:10017000FEE7FEE7FEE7FEE7FEE7FEE7FEE7FEE757
:10018000FEE7FEE703480449024A044B70470000BB
:10019000CD00000098000010980200109800001098
:1001A00030B50A46A0281BDA032A19D8431100F0FB
:1001B0001F005B00102804DB5C1CE3B2A0F11004FC
:1001C000E0B24406200E304C04EB83010325854049
:1001D0000C68AC430C6002FA00F50C682C430C6010
:1001E00030BD30B50B46A02811DA421100F01F00D7
:1001F000264C04EB42112BB10C68012585402C43A1
:100200000C6004E00C6801258540AC430C6030BDF7
:1002100030B50B46A02811DA421100F01F001B4C2C
:1002200004EB42112BB18C69012585402C438C6174
:1002300004E0CC69012585402C43CC6130BD10B56C
:10024000A0280ADA421100F01F00104B03EB421104
:100250004B690124844063404B6110BD30B50146B9
:100260000020A0290EDA4A1101F01F01074C04EB0F
:1002700042135C6901258D402C4201D0012400E02D
:100280000024E0B230BD000000C0024000C00920E0
:1002900010B54020FFF7D3FF10BD10B54120FFF788
:1002A000CEFF10BD00F0CAF901214020FFF799FFF1
:1002B00001214120FFF795FF0C49002000F050F884
:1002C0000B49012000F04CF8AFF23B01002000F098
:1002D00099F8AFF23901012000F094F8002000F005
:1002E00074F8012000F071F800BFFEE7A08601005D
:1002F00020A107007047704770477047FFFFFFFF5E
:100300000146042906DC754B1B6823FA01F303F050
:10031000030205E0724B1B6823FA01F303F00302AA
:1003200032B1012A08D0022A09D0032A0FD10AE0EB
:100330006C4B1B689A080EE06A4B1A680BE0694B1D
:100340001B685A0807E0674B1B68DA0803E0654B37
:100350001B689A0800BF00BF634BB2FBF3F0704705
:1003600030B504460D46042C2EDA6048006804EBD4
:1003700044015F4A02EB81014A7A4FF0010101FA20
:1003800002F140EA01005B49C1F8C4004FF00300EC
:1003900004EB4401564A02EB81014968486104EBD1
:1003A000440102EB8101887AFFF7AAFF04EB4401C4
:1003B0004F4A02EB81014968C86004EB44001146D2
:1003C00001EB80004068856130BD04280EDA002111
:1003D00000EB4002464B03EB820252689160012120
:1003E00000EB400203EB8202526851607047042820
:1003F00007DA002100EB40023D4B03EB820252681A
:100400005160704730B50A46042818DA00EB400105
:10041000374B43F8212000EB4003354C04EB8303BA
:1004200093F9081001F01F040123A3404C094FF079
:10043000E02505EB8404C4F8003100BF00BF30BDE7
:1004400001460020042906DA01EB4102284B03EBA8
:100450008202526890687047042806DA00EB400276
:10046000234B03EB820252689161704710B522481A
:10047000006840F00100204908601D48006810B184
:100480001B490868804710BD10B51B48006840F044
:100490000200194908601648C06810B11449C868BC
:1004A000804710BD10B51448006840F004001249A0
:1004B00008600F48806910B10D498869804710BDF8
:1004C00010B50D48006840F008000B490860084866
:1004D000406A10B10649486A804710BDA8C10F4064
:1004E000ACC10F403000001040420F00C4C00F40AC
:1004F0000000001000C00F400080004091480068DC
:10050000C0F30160032868D18F48006810F0030031
:1005100006D0012823D002283FD003285CD100E078
:1005200000BF88480068C0F30E0000F101004FEAE8
:100530004000864900FB01F08549D1F88810C1F3DD
:10054000074101F10101B0FBF1F182480068C0B23E
:1005500000F10100B1FBF0F07F4908603CE0794810
:100560000068C0F30E0000F101004FEA40007B4933
:1005700000FB01F07649D1F88810C1F3074101F181
:100580000101B0FBF1F173480068C0B200F1010055
:10059000B1FBF0F0704908601EE06A480068C0F3E3
:1005A0000E0000F101004FEA40004FF4FA4100FB59
:1005B00001F06749D1F88810C1F3074101F1010149
:1005C000B0FBF1F163480068C0B200F10100B1FB7B
:1005D000F0F06149086000BF2FE05B48006810F050
:1005E000030006D0012810D0022819D0032823D1F7
:1005F00000E000BF57480068C0B200F10100534955
:10060000B1FBF0F05449086016E052480068C0B2EF
:1006100000F101005149B1FBF0F04F4908600BE0D7
:100620004C480068C0B200F101004FF4FA41B1FB40
:10063000F0F04949086000BF00BF704720204849DA
:10064000086000BF4648006810F0400FFAD0032051
:10065000404908604FF001003D49C1F80C01414894
:10066000414908604FF0AA00404908604FF055002A
:1006700008604FF001003E4908604FF0AA003B4976
:1006800008604FF055003249C1F88C0000BF2D487A
:10069000006810F0806FFAD00320354908604FF0F1
:1006A000AA002B49C1F88C004FF055002F49086073
:1006B00000BF2448006810F0407FFAD023202D4965
:1006C00008604FF0AA002249C1F8AC004FF0550075
:1006D000294908604FF00100284908604FF0AA003E
:1006E000254908604FF055001949C1F8AC0000BF1A
:1006F0002348006810F4806FFAD003201F49086077
:100700004FF0AA001249C1F8AC004FF055001A4949
:10071000086000BF1A48006810F4407FFAD000203B
:10072000184908600A49C1F8AC0117481749086020
:100730004FF000001649086043F23A00044908608F
:100740007047000088C00F400CC10F4000093D00F9
:1007500000C00F4004C10F4030000010001BB70064
:10076000A0C10F406300050084C00F408CC00F4043
:1007700080C00F40A4C00F40ACC00F40A0C00F40CD
:10078000A8C00F40A8C10F40DE872804C4C00F4096
:10079000C8C10F40754600F029F8AE46050069460D
:1007A000534620F00700854618B020B5FFF7EAFC55
:1007B000BDE820404FF000064FF000074FF0000862
:1007C0004FF0000B21F00701AC46ACE8C009ACE8E3
:1007D000C009ACE8C009ACE8C0098D4670470446C2
:1007E000AFF300802046FFF7BAFC000000487047D6
:1007F00034000010004870473800001001491820EC
:10080000ABBEFEE72600020010B5FFF7F3FF4FF086
:100810000001016010BD0000380800000000001059
:1008200034000000080100006C08000034000010D3
:1008300064020000240100000000000000400040AD
:1008400001010200000000000080004002020200DE
:100850000000000000000940031602000000000034
:0C086000004009400417020000E1F5050B
:040000050000016D89
:00000001FF
