:020000040000FA
:10000000C00A0010710100007501000077010000B6
:10001000790100007B0100007D010000000000006C
:100020000000000000000000000000007F01000050
:100030008101000000000000830100008501000034
:100040008701000087010000870100008701000090
:100050008701000087010000870100008701000080
:100060008701000087010000870100008701000070
:100070008701000087010000870100008701000060
:100080008701000087010000870100008701000050
:100090008701000087010000870100008701000040
:1000A00001100000870100008701000087010000A7
:1000B0008701000087010000870100008701000020
:1000C00087010000870100008701000000F002F8AE
:1000D00000F03AF80AA090E8000C82448344AAF1A8
:1000E0000107DA4501D100F02FF8AFF2090EBAE8A6
:1000F0000F0013F0010F18BFFB1A43F0010318475C
:100100006818000088180000103A24BF78C878C129
:10011000FAD8520724BF30C830C144BF04680C600D
:10012000704700000023002400250026103A28BF55
:1001300078C1FBD8520728BF30C148BF0B60704759
:100140001FB51FBD10B510BD00F05AF81146FFF7DE
:10015000F7FF01F026F900F044F803B4FFF7F2FFCF
:1001600003BC00F073F80000D0F800D0D0F804F021
:1001700008480047FEE7FEE7FEE7FEE7FEE7FEE78A
:10018000FEE7FEE7FEE7FEE703480449024A044BA8
:1001900070470000CD000000C0080010C00A001029
:1001A000C008001000F0EABC704770477047704705
:1001B000022803D0032803D100F092BC00F0ADBCAC
:1001C0007047704770477047704770477047704777
:1001D0007047704770477047704770477047704767
:1001E000704710B50446AFF300802046BDE81040CC
:1001F000FFF7B3BF004870475C080010443322117A
:100200007546FFF7F7FFAE4605006946534620F0F6
:100210000700854618B020B5FFF7B6FFBDE82040BF
:100220004FF000064FF000074FF000084FF0000BB2
:1002300021F00701AC46ACE8C009ACE8C009ACE865
:10024000C009ACE8C0098D4670470000014918207C
:10025000ABBEFEE72600020070470000194810B54B
:10026000007810F01F0F1748C07829D115490839B8
:10027000012806D0134A0228937806D003281FD1FC
:1002800012E011480860122012E01048002204E039
:1002900004780CB144882044521C9342F8D102786F
:1002A00072B10860408803E009481844086000788B
:1002B0008A88824200D9888000F06FFC012010BD3E
:1002C000002010BD3400001094170000A617000095
:1002D000C7170000EB3C904D53444F53352E300070
:1002E00002020100011000EC03F80200010001000D
:1002F000000020454E41424C45000000FFFFFFFF3B
:1003000070B554482021C0F8A01100BFD0F8A0114A
:100310004906FBD50324C0F804410023C0F8A831E6
:10032000C0F8AC310125C0F80C510B21C0F8841085
:10033000C0F88050AA21C0F88C105522C0F88C203B
:10034000D0F888607601FBD5C0F88040C0F88C10EA
:10035000C0F88C202326C0F8A460C0F8A050C0F8D4
:10036000AC10C0F8AC2000BFD0F8A8506D05FBD58C
:10037000C0F8A040C0F8AC10C0F8AC203649C0F8B6
:10038000C410C0F8C831D0F888106FEA11618A072C
:100390003249D0F80C2102F0030207D092B3012AAF
:1003A00046D0022A49D0032A50D13CE02AB1012A82
:1003B00012D0022A27D0032A48D1D0F88820C2F3CD
:1003C0000E02521C5300D0F88820C2F30742521C80
:1003D000B3FBF2F2224B0DE0D0F88820C2F30E02FC
:1003E000521C5300D0F88820C2F30742521CB3FBC2
:1003F000F2F21C4B5A43D0F80431DBB25B1CB2FB67
:10040000F3F222E00FE0D0F88820C2F30E02521C73
:100410005300D0F88820C2F30742521CB3FBF2F21B
:100420004FF4FA43E6E7D0F804210D4BD2B209E0CD
:10043000D0F804210B4BD2B204E0D0F804214FF4E1
:10044000FA43D2B2521CB3FBF2F20A6043F23A0111
:10045000016070BD00C00F40DE87288400000010DE
:1004600000093D00001BB700FE4900200870012074
:100470007047FD490020087001207047F0B5FB4C23
:100480000023FB4DA66840E0B0F5007F23D213287F
:100490000DD0142813D0B0F5FF7F18D0A0F58072CE
:1004A000FF3A16D01D282BD8F24A125C29E06A6F59
:1004B000A768D21B02F60102C2F3472221E06A6F4D
:1004C000A768D21B02F60102C2F3474219E0552287
:1004D00017E0AA2215E0B0F5006F06D2E64A024402
:1004E000A2F5805292F8002E0BE0E44AE44F126825
:1004F000BA4205D13218A2F5805292F8002800E0E5
:100500000022E04F401CFA545B1C8B42BCD3F0BD70
:1005100070B5D44DEC68402C00D94024D448416FCC
:10052000D2488068091AA86801F6010203199A42A4
:1005300004D20C1A0421297004F601042146FFF7A5
:100540009DFF2246CF49822000F021FDA86820446B
:10055000A860E868011BCB48E96000F19F00826851
:10056000A2EB0402826005D02978022901D0002183
:10057000017370BD03212970F9E7C24910B59F319D
:10058000C14808600D22822000F001FDB549052018
:10059000087010BD2DE9F05F0546B4480E46B5F56C
:1005A000007F80682CD3B5F5006F2BD2B54FDFF8F4
:1005B000DCA20024DFF8C4924037DFF8BC824FEAA7
:1005C0003A4B1BE0291901EB0802385DA2F5805275
:1005D000E52882F8000E10D1D9F80030534501D03B
:1005E0005B450AD1B1F5C46F07D19E48006920B9B7
:1005F00000F025FE9B4901200861641CB442E1D350
:10060000BDE8F09F2844BDE8F05F0A469D49A0F58B
:100610000060403100F0C5BD954810B5416F93486A
:10062000904C80686378081AA16800F601020B44B8
:100630009A4207D2401A401C6070052020700220A8
:1006400000F060FC6178A068FFF7A4FF6178A06803
:100650000844A060E068421A8A48E26000F19F0006
:100660008368A3EB0101816002D02178052904D1C0
:1006700000210173BDE810407FE710BD2DE9F04176
:100680007B48784C416F794863788068081AA16884
:1006900000F601020B449A4207D2401A401C6070D7
:1006A00005202070022000F02DFC764B00206178A0
:1006B00003F14005A26808E016182F5C9E5DBE425B
:1006C00002D00020606002E0401C8842F4D3501841
:1006D000A060E068421A6B48E26000F19F00836806
:1006E000A3EB0101816002D02178052908D161685E
:1006F00021B100210173BDE8F0413EE70121F9E796
:10070000BDE8F0815F4810B58030D0F81110027D4F
:1007100009BA21F0FF011143524A49029160C18A8E
:1007200049BA4902D160806888420DD0822000F029
:10073000E9FB022000F0E6FB524902209F310873DA
:10074000FFF71BFF002010BD012010BD70B54D4804
:1007500080300224816800F11F0529B1007B00066A
:1007600007D4022000F0CEFB2C73FFF706FF002019
:1007700070BD012070BD10B542483A4C8030806891
:100780006178884200D260703E49627840318220B0
:1007900000F0FDFB032020703A4862789F308168AA
:1007A000891A81600021017310BD364810B5803070
:1007B000816839B1007B000601D5822000E002206B
:1007C00000F0A0FB2F4900209F310873BDE81040C6
:1007D000D3E610B5FFF7BAFF00281FD029487021D3
:1007E000403002220170002141708270C17001719D
:1007F000417181710A22C271017241728172C172AA
:1008000030220273012242738173C17301744174F7
:10081000144912204870BDE81040ACE710BD70B517
:10082000FFF794FF002858D016480022403080235C
:100830000270437082700121C170202101714371E7
:100840008271C2714B2202726522427269238372E5
:100850006C22C272017341738173C1734C220274A2
:10086000502215E004000010F40600107818000073
:10087000F0180000D402000048000010FC01000045
:1008800044332211480600105553425321436587D3
:100890004274432282743124C47437220275302298
:1008A00042758275C1754425057643767323837638
:1008B0006B23C376017741778177C17780F8204039
:1008C0002E2380F8213080F8222080F82310A649BA
:1008D00024204870BDE870404DE770BD10B5FFF7AB
:1008E00035FF00280CD0A148032101700021417080
:1008F0008170C1709C4904204870BDE810403AE7FF
:1009000010BD10B5FFF722FF002810D09748002136
:100910000622017042708170C17001714171817154
:10092000C171914908204870BDE8104023E710BD0F
:1009300010B5FFF70BFF00281ED08D48416F8D4882
:100940008068081A4FF0FF3100F6010001EB5021DA
:1009500086480A0E02700A0C42700A0A8270C17040
:1009600000210171417102228271C1717E4908200A
:100970004870BDE81040FEE610BD10B5FFF7E6FE7A
:1009800000281FD079480021082201704170817031
:10099000C270774A0171536F764A92689A1A02F6CA
:1009A0000102530E4371530C8371520AC271022229
:1009B000027241728272C1726B490C204870BDE8AC
:1009C0001040D8E610BD2DE9F041674D674C00217D
:1009D00068784034654A02E0535C6354491C03461E
:1009E0008142F9D31F2B72D12068634988426ED1AE
:1009F0005E4E60685F364FF001087060A068B060BE
:100A0000607B18B9A07B08B1102802D986F80C8049
:100A100059E0E07B1E28F9D00FDC12282ED005DC2F
:100A200048B30328F2D1BDE8F041D2E61528EDD055
:100A30001A28EBD1BDE8F04150E702272A2828D038
:100A400010DC23281DD025281ED02828DED1FFF752
:100A500059FE002826D0207B000618D52F70BDE84F
:100A6000F04155E52F281ED05528CFD05A28CDD19A
:100A7000BDE8F04145E7BDE8F04196E6BDE8F0414C
:100A8000CDE6BDE8F04178E7BDE8F04150E702204F
:100A900016E0FFF737FE002804D0207B00060ED4B6
:100AA00085F800802CE6FFF72DFE0028FAD0207B89
:100AB000000604D485F80080C5F8048020E6822072
:100AC00000F020FA3773BDE8F04156E5FFE78220D9
:100AD00000F018FA022000F015FA062028700FE640
:100AE000214810B50178022908D003290ED0042925
:100AF0000FD0052901D10021017010BD1B484030E5
:100B0000C07B2828F9D1BDE8104001E5BDE81040C0
:100B100033E5822000F0F6F9F8E710B5134902201A
:100B200000F004FA10494870087858B101280CD038
:100B3000022000F0E7F90D4902205F310873BDE89B
:100B400010401AE5BDE810403DE708484030C07B42
:100B50002A2804D02F2805D1BDE810408EE5BDE835
:100B6000104059E510BD0000040000108806001078
:100B7000F0180000781800005553424366480021E1
:100B80004FF00112818001704170C0E9022170476D
:100B900061491C31002000F0C9B910B55E4C143415
:100BA000A288402A00D940228020216800F0EFF975
:100BB000216801442160A188081AA08010BD10B5E9
:100BC000554C00201434216800F0B0F9216801442C
:100BD0002160A188081AA08010BD00221146802043
:100BE00000F0D5B94D49002000F0A0B92DE9F04141
:100BF000494C00271C34484D2178A4F108060828E8
:100C000063D2DFE800F06204647262628381FFF7FE
:100C1000BFFF2078C00900F056F9E088B080207846
:100C2000C0F34111F1BB61780C294AD2DFE801F031
:100C30000609490B49101A1D1F25314200F0E6FB39
:100C40004DE0002000E0012000F020FC50B306E061
:100C500010F01F0F35D1A07840F080002870BDE85B
:100C6000F041BAE7FFF7FAFA39E000202AE010F085
:100C70001F0F26D12848401C1AE010F01F0F20D16A
:100C800000F04CFC70B1FFF7A8FFBDE8F041FFF7A2
:100C90008DBA00F01F00012813D1687810B12079B7
:100CA000A97800E00DE088420BD21B4910310844BE
:100CB00030601CE000F01F00012802D100F0D4FCDD
:100CC000C4E7802000F01EF9B780BDE8F081080677
:100CD00008D4B0880028F8D0FFF771FFB08800284A
:100CE000EFD0F2E7BDE8F0417CE7080602D5BDE8A9
:100CF000F04152E728780106E7D500F07F00287020
:100D0000BDE8F04100F041B8802000E00020BDE8DF
:100D1000F04100F001B9000018000010F4060010C6
:100D200001460007C00E090600D5401C7047E34984
:100D30001022C1F80822C1F8100200BFD1F8000249
:100D4000C006FBD57047DD4A1023C2F80832C2F84E
:100D5000100200BFD2F80002C006FBD5C2F808326C
:100D6000C2F81012D2F80002C006FBD57047D34972
:100D70003022C1F80822C1F8100200BFD1F80002E9
:100D80008006FBD5D1F81402704730B5CC49CD4D63
:100D900041EA004421462846FFF7D5FF2146284670
:100DA000BDE83040CFE7C5480021C0F848124021D7
:100DB000C0F84C120122C0F84822C0F84C1200BF03
:100DC000D0F80012C905FBD54FF0FF31C0F838123A
:100DD000C0F83412C0F808120C21C0F80412704791
:100DE000B94900B51A200860091D0A6830EA0202F4
:100DF000FBD1B648016921F440210161016941F448
:100E000080210161C16821F04051C160C16841F099
:100E10000051C160416821F070514160416841F06A
:100E2000A05141604FF0E0214FF08070C1F8000107
:100E3000FFF7B9FF00205DF804EBA6E700B1012041
:100E40004FF4807141EA0041A1487CE77047704748
:100E5000A0480078800702D59F499D4873E77047F6
:100E6000704710B500B101204FF4807444EA00418E
:100E70009A48FFF768FF91480321C0F8441200BF69
:100E8000D0F80012C905FBD5C0F8084210BD10B556
:100E900002468078FFF744FF8849D1F844320124A4
:100EA00084402343C1F84432C1F848029088C1F815
:100EB0004C0200BFD1F80002C005FBD54FF4807092
:100EC000C1F8080210BD704700B5FFF729FF84493B
:100ED0005DF804EB41EA0040891334E700B5FFF701
:100EE0001FFF7F495DF804EB41EA00407D492AE796
:100EF00000B5FFF715FF7A495DF804EB41EA0040C1
:100F0000891320E700B5FFF70BFF75495DF804EB87
:100F100041EA0040704916E700B5FFF701FF70494C
:100F20005DF804EB41EA004089130CE700F00F0282
:100F3000012370B503EB8203604AC2F8283200BF78
:100F4000D2F820321C05FBD5C3F309030024DD1CB5
:100F500005E000BFD2F8186241F8046B641CB4EBE2
:100F6000950FF7D30021C2F8281241F24821C14061
:100F7000C9070AD1FFF7D4FE4FF4A06141EA00404F
:100F8000FFF7D5FE5848FFF7D2FE184670BD70B582
:100F900013460546494C00F00F00022202EB800088
:100FA000C4F82802C4F824320020DA1C05E000BF8F
:100FB00051F8046BC4F81C62401CB0EB920FF7D3DD
:100FC0000020C4F828022846FFF7AAFE4FF4A061CB
:100FD00041EA0040FFF7ABFE4448FFF7A8FE184681
:100FE00070BD10B54248FFF7A2FE424C2046FFF705
:100FF000BEFE03462046FFF7BAFE43EA002010BDBE
:101000002DE9F0412D4DD5F80032C5F8083218070A
:101010001BD52F48FFF78BFE3748FFF7A8FEC10608
:1010200005D5FFF7C0FEBDE8F041FFF7BBB881076B
:1010300010D4010709D5400703D5BDE8F041FFF7FB
:10104000B3B8BDE8F041FFF7B0B82C4E58074FF0E9
:1010500001071DD4BDE8F0815FF00004D5F830121F
:1010600007FA04F0014210D06108C5F8380200BF49
:10107000D5F800028006FBD5D5F81402E2070CD0A3
:1010800056F8211009B103208847641C202CE5D3B1
:10109000D5F830020028DFD1DCE744B9400706D597
:1010A000306820B10146012088470124D6E756F870
:1010B00021100029E9D00220E6E7000000C000501E
:1010C000000180000005D000F4CF005000C00240B5
:1010D0000005FE001C000010000101000005D80002
:1010E00000054000000120000005F2000005FA00A4
:1010F0000005F5000002F5000002FE0038180000AF
:1011000062B67047574A104772B6704770B572B6EC
:101110003325554C2560C4E90330C4E9011204F1BC
:1011200014012046FFF7EEFF62B670BD30B44E4B9F
:10113000322410C383E8070030BC03F11001181FEC
:10114000E0E730B4484B342410C383E8070030BCD8
:1011500003F11001181FD5E770B5054672B60224D9
:10116000424800BF50F824208A4215D93F487838B9
:1011700050F82400884209D121462A460846FFF744
:10118000D5FF21462A460846FFF7DBFF21462A46BF
:101190000846FFF7CBFF02E0641C1D2CE2D962B6C3
:1011A00070BD2DE9F041324C636803B960602E4D8B
:1011B00000202835A36803E00F5C1E18401CAF55C3
:1011C0009042F9D398184FF48076A060B04215D1C0
:1011D000D4E90001FFF7C0FF234D1435286800B1A2
:1011E000FEE7214AD4E9000133462832FFF78EFF9B
:1011F000286800B1FEE70020A06060600020BDE824
:10120000F0811C494FF400500860FEF7ADBF16484E
:1012100010B53521016002214160816000F11401A7
:10122000FFF770FF104814300068002800D001203C
:1012300010BD1148406D000500D5E2E7704710B5BC
:101240000B4C1D2102202268FFF770FF1D21022098
:101250002268FFF776FF044814300068002800D0A9
:10126000FEE710BDF11FFF1F34070010F01800004B
:101270003C00001008ED00E000C00920002201E061
:1012800004C0091F0029FBD17047814203D1704778
:1012900008C8121F08C1002AFAD17047FFF730F8BA
:1012A000484801684FF2FF021140474A41F48071FB
:1012B0001143016045490020454A086045494648B8
:1012C000FFF7E3FF45494648FFF7D8FF4548F821B7
:1012D000454A0170FF214170444B8170526F9B68F9
:1012E0000324D21A02F601050223214603EB9526B8
:1012F00016E000BF4FF0FF3303EB95238B4202D182
:1013000040F6FF7300E04B1CC1F3032747EA031CC0
:10131000015507191B0987F801C0891CBB70E41C23
:101320008E42E7D8324B002145185C5C491C85F899
:1013300000444029F8D32F492F4C0B68A3421ED0FC
:101340002E4CA34202D1312480F803442C4C0B686C
:10135000A34202D1322480F803440968294B994200
:1013600002D1332380F80334274B04215C1845183D
:1013700014F8044C491C85F800440B29F6D3521C80
:1013800080F83C24110A80F83D14110C80F83E14BA
:10139000110E80F83F14FFF723FD0120FFF74EFDEB
:1013A000FEE7144817490068884204D1FFF72FFF71
:1013B00008B1FFF726FFFFF72AFF08B1FFF739FF53
:1013C000FFF76CFF0CED00E00000FA0514000010C0
:1013D000480000000000001088190000780A000092
:1013E0004800001048000010F018000078180000B5
:1013F00054170000FC0100004433221178563412C7
:101400002143658765872143F202000070B51D48BE
:101410001C4D0078A5F1080510F01F040AD01948EA
:10142000A5F11401184B4A780079012C06D0022C42
:1014300026D109E01348183828601DE002B38978E6
:1014400088421DD2002015E000F08F04200605D54B
:1014500004F00F064FF48030B04001E00120A040BE
:101460000AB922070CD18A68024209D0C968014230
:10147000E8D0012018802B60FFF78FFB012070BDA2
:10148000002070BD34000010F406001070B5024654
:101490002148A0F11C04017811F01F03014649887E
:1014A00004D0012B29D0022B27D111E0012924D10E
:1014B00032B10120FFF7D4FCA08840F0020005E023
:1014C0000020FFF7CDFCA08820F00200A08021E0E2
:1014D000007900F08F00030605D500F00F034FF4EC
:1014E00080359D4001E00125854063782BB10307DD
:1014F00003D0A3682B4200D009B1002070BD22B1F7
:10150000FFF700FDE068284303E0FFF705FDE06812
:10151000A843E060012070BD340000102DE9F84FB1
:101520004F4F4FF000094FF0010AB8784FF4803B5D
:10153000A7F11C0600286AD04A4C64E060780228B3
:1015400004D0042840D005285BD140E06179B87808
:10155000814237D170702079B070414900200C3938
:1015600001F80090401C0428FAD301254FEA060830
:101570000AFA05F0D8F80810084202D02846FFF70A
:10158000ADFCD8F808100BFA05F0084203D045F07E
:101590008000FFF7A3FC6D1C102DE9D34FF0011064
:1015A000C8E902090120FFF75CFCE0794006B8F8C1
:1015B000040002D540F0010001E020F00100A8F88D
:1015C00004001EE060881DE0E078009019E00098BB
:1015D000B8B9A07800F08F05280604D505F00F01F2
:1015E0000BFA01F001E00AFA05F0B1680143204668
:1015F000B160FFF74CFC2846FFF766FC2846FFF772
:1016000077FC207804442078002897D11FE086F8E2
:10161000019001245546D846B16805FA04F0084205
:1016200002D02046FFF75AFCB16808FA04F00842DD
:1016300003D044F08000FFF751FC641C102CEBD366
:101640004FF00110C6E902090020FFF70AFCB87844
:101650007178884202D10120BDE8F88F0020FBE7B5
:1016600034000010A61700002DE9FC5F374D6878A4
:10167000002868D00027364C05F11C065FE0607832
:10168000022804D0042808D0052856D11AE0607931
:101690006978884251D0608850E094F802803179AE
:1016A00094F803904FF0000A414546D1B17849457E
:1016B00043D126480127103010F80810019100F896
:1016C00008903AE03179414537D1A07800F08F0B8E
:1016D0005FEA0B6005D50BF00F014FF480308840B6
:1016E00002E0012000FA0BF00090B178494513D1D7
:1016F000A86800990843A860E8688843E860204625
:10170000FFF7C5FB5846FFF7DFFB5846FFF7F0FB36
:1017100000994AEA010A10E0019989450DD1009922
:101720001AEA010F09D1A8688843A860E9680098FF
:1017300081435846E960FFF7D1FB207804442078C4
:1017400000289CD13846BDE8FC9F0000180000101E
:10175000A61700004578706C6F72653137363828EF
:101760000000000000000000000000000000000079
:10177000000000004649524D5741524542494E2013
:1017800018BC41973738373800003D6E2B380200BF
:1017900000D00700120110010000004051C20313E5
:1017A00000010420480109022000010100803209E3
:1017B000040000020806506207058202400000078C
:1017C00005020240000000040309041C034E0058F7
:1017D0000050002000530065006D00690063006F39
:1017E000006E006400200028034E005800500020C6
:1017F000004C005000430031003700780078002092
:10180000004D0065006D006F007200790020001A25
:1018100003440045004D004F0030003000300030E0
:101820000030003000300030000E034D0065006DC8
:10183000006F007200790000ED0B00000000000056
:10184000B1010000000000000000000000000000E6
:101850000000000000000000000000000000000088
:101860000000000000000000000000000000000078
:101870000000000000000000000000000010000058
:101880000020000000300000004000000050000078
:101890000060000000700000008000000090000068
:1018A00000A0000000B0000000C0000000D0000058
:1018B00000E0000000F000000000010000800100D6
:1018C000000002000080020000000300008003000E
:1018D00000000400008004000000050000800500F6
:1018E00000000600008006000000070000800700DE
:1018F000FF0F0000FF1F0000FF2F0000FF3F000050
:10190000FF4F0000FF5F0000FF6F0000FF7F00003F
:10191000FF8F0000FF9F0000FFAF0000FFBF00002F
:10192000FFCF0000FFDF0000FFEF0000FFFF00001F
:10193000FF7F0100FFFF0100FF7F0200FFFF0200A9
:10194000FF7F0300FFFF0300FF7F0400FFFF040091
:10195000FF7F0500FFFF0500FF7F0600FFFF060079
:10196000FF7F0700FFFF070088190000000000103C
:101970004800000008010000D019000048000010D5
:10198000780A00002401000000093D00000000006A
:101990000000000000000000000000000000000047
:1019A0000000000000000000000000000000000037
:1019B0000000000000000000000000000000000027
:1019C0000000000080BB00000000000000000000DC
:04000005000000CD2A
:00000001FF
