:020000040000FA
:10000000A8020010690100006D0100006F010000EE
:100010007101000073010000750100000000000084
:100020000000000000000000000000007701000058
:1000300079010000000000007B0100007D0100004C
:100040007F0100007F0100007F0100007F010000B0
:100050007F0100007F0100007F0100007F010000A0
:100060007F0100007F0100007F0100007F01000090
:100070007F0100007F0100007F0100007F01000080
:100080007F0100007F01000005040000250400003E
:1000900045040000650400007F0100007F010000AE
:1000A0007F0100007F0100007F0100007F01000050
:1000B0007F0100007F0100007F0100007F01000040
:1000C0007F0100007F0100007F01000000F002F8C6
:1000D00000F03AF80AA090E8000C82448344AAF1A8
:1000E0000107DA4501D100F02FF8AFF2090EBAE8A6
:1000F0000F0013F0010F18BFFB1A43F0010318475C
:10010000F413000014140000103A24BF78C878C11A
:10011000FAD8520724BF30C830C144BF04680C600D
:10012000704700000023002400250026103A28BF55
:1001300078C1FBD8520728BF30C148BF0B60704759
:100140001FB51FBD10B510BD00F09CF81146FFF79C
:10015000F7FF00F02FF800F0BAF803B4FFF7F2FF52
:1001600003BC00F0C1F8000008480047FEE7FEE7C6
:10017000FEE7FEE7FEE7FEE7FEE7FEE7FEE7FEE757
:1001800003480449024A044B70470000CD000000B8
:10019000A8000010A8020010A80000101E48006867
:1001A000401C1D49086070471C480068401C1B49E2
:1001B0000860704788B000F020FE3B203A213922C9
:1001C0003823CDE90332CDE90510FF2000900190DE
:1001D0000346422241210290402000F0D1F9102133
:1001E000022000F015FB0222AFF24F01002000F0C8
:1001F00087F80022AFF24F01012000F081F809E0FA
:10020000002000F0CBFA054802680348016804A00A
:1002100000F05CFCF4E70000000000100400001097
:1002200045494E54303D2538752045494E54313AA4
:10023000253875000021002200BF05E0002200E003
:10024000521C192AFCD3491C8142F7D3704730B5A0
:100250000446002504E04FF47A70FFF7EBFF6D1CB5
:10026000A542F8D330BD30B50446002504E04FF474
:100270007A70FFF7ECFF6D1CA542F8D330BD7047D4
:1002800070477047754600F02BF8AE46050069468A
:10029000534620F00700854618B020B5FFF770FFE1
:1002A000BDE820404FF000064FF000074FF0000877
:1002B0004FF0000B21F00701AC46ACE8C009ACE8F8
:1002C000C009ACE8C009ACE8C0098D46704710B55C
:1002D0000446AFF300802046BDE81040FFF73DBF65
:1002E000004870474400001001491820ABBEFEE7EB
:1002F000260002007047000000000000FFFFFFFF23
:1003000070B504460D461646042C6ADA5D4901EBC9
:10031000C4014879012100F0BBF85A4901EBC4013E
:1003200091F9040000F01F0201219140420992005E
:1003300002F1E022C2F8001100BF524840F83450E8
:1003400036B1012E16D0022E26D0032E48D135E02C
:100350004D4801680120A04081434C48C0F8481135
:100360004948001D00680121A14088434749C1F860
:100370004C0135E0444800680121A14088434349CD
:10038000C1F848014048001D00680121A140084310
:100390003E49C1F84C0123E03B4800680121A140DF
:1003A00008433A49C1F848013748001D0068012157
:1003B000A14088433549C1F84C0111E0324800683A
:1003C0000121A14008433149C1F848012E48001DD0
:1003D00001680120A04001432C48C0F84C1100BF27
:1003E00000BF70BD10B50446042C0ADA254901EBA4
:1003F000C4014879002100F04BF80020214941F860
:10040000340010BD10B520480838006840F00100E5
:100410001E49C1F840011B48006810B1194908681D
:10042000804710BD10B518480838006840F0020039
:100430001649C1F840011348806810B11149886815
:10044000804710BD10B510480838006840F004001F
:100450000E49C1F840010B48006910B1094908690B
:10046000804710BD10B508480838006840F0080003
:100470000649C1F840010348806910B10149886903
:10048000804710BD0800001048C10F4000C00F4059
:1004900030B50A46A0281CDA032A1AD8431100F006
:1004A0001F005C06230E102804DB5C1CE3B2A0F1E5
:1004B0001004E0B24406200E2F4C04EB8301032508
:1004C00085400C68AC430C6002FA00F50C682C43C4
:1004D0000C6030BD30B50A46A02811DA431100F097
:1004E0001F00264C04EB43112AB10C6801258540FE
:1004F0002C430C6004E00C6801258540AC430C6083
:1005000030BD30B50A46A02811DA431100F01F00B3
:100510001A4C04EB43112AB18C69012585402C4308
:100520008C6104E0CC69012585402C43CC6130BD51
:1005300010B5A0280ADA421100F01F000F4B03EBA0
:1005400042114B690124844063404B6110BD30B5BA
:1005500001460020A0290EDA4A1101F01F01074CC4
:1005600004EB42135C6901258D402C400CB1012441
:1005700000E00024204630BD00C0024000C0092039
:100580002DE9F05F82460D4616461C460AAF97E8F5
:10059000800BFC4880F803A0057146718471C77117
:1005A00080F8088080F8099080F80AB0F5490E9824
:1005B000C8720F98087310984873FF2C07D0FF2F4C
:1005C00005D0B8F1FF0F02D0B9F1FF0F03D104201D
:1005D000EC49887012E00820EA4988700121204621
:1005E000FFF778FF01213846FFF774FF01214046ED
:1005F000FFF770FF01214846FFF76CFF01215046CD
:10060000FFF768FF01212846FFF764FF012130460C
:10061000FFF760FF01215846FFF75CFF01210E98AC
:10062000FFF758FF01210F98FFF754FF01211098A1
:10063000FFF750FFBDE8F09F10B5D249C878002100
:10064000FFF75FFFCF4908790021FFF75AFFCD4937
:1006500048790121FFF755FF0A20FFF7EBFDC94953
:1006600048790021FFF74DFF10BD10B50446C5497C
:10067000887AC4F30011FFF744FFC249C87AC4F373
:100680004011FFF73EFFBF49087BC4F38011FFF71D
:1006900038FFBC49487BC4F3C011FFF732FF10BDDF
:1006A00010B5044604F00101B64A9079FFF729FF1E
:1006B000B449C879C4F34001FFF723FFB149087A70
:1006C000C4F38001FFF71DFFAE49487AC4F3C001AF
:1006D000FFF717FF10BD10B5AA480079FF2840D0DA
:1006E000A849487B0021FFF7F5FEA649C8780021FC
:1006F000FFF707FFA34908790121FFF702FF00BFB9
:10070000A04948790021FFF7FCFE0A20FFF792FD7F
:100710009C4948790121FFF7F4FE0A20FFF78AFD82
:100720009849487BFFF713FF0446964880780428D1
:100730000FD1944948790021FFF7E3FE0A20FFF723
:1007400079FD904948790121FFF7DBFE0A20FFF788
:1007500071FD002CD4D18B49487B0121FFF7BAFEF3
:1007600002E00120FFF773FD10BD10B50446FFF74E
:10077000B2FF84488078082803D12046FFF790FF15
:1007800006E02046FFF771FFFFF756FF2007040E33
:100790002046FFF76AFFFFF74FFF10BD10B5044674
:1007A00078480078A04208DD002077490870774833
:1007B00004707749085DFFF7D8FF10BD10B5012020
:1007C000FFF7D3FF0020FFF7E9FF10BD10B5302081
:1007D000FFF74BFFFFF730FF6420FFF738FD3020B5
:1007E000FFF743FFFFF728FFC820FFF723FD302066
:1007F000FFF73BFFFFF720FFC820FFF71BFD20207E
:10080000FFF733FFFFF718FFC820FFF713FD10BDF8
:1008100070B505460C465B4844700570022D08DD36
:1008200004F00F0090305A49887004F00F00D03067
:10083000C8706420FFF70BFD52488078082803D168
:100840003820FFF792FF08E04E488078042804D152
:10085000FFF7BCFF2820FFF788FF0E20FFF785FF7A
:10086000FFF7ACFF70BD10B548480078401C474901
:1008700008700020444908704248007843490978CC
:10088000884202DC00204149087041493F4A127801
:10089000885CFFF76AFF10BD10B53A49C87801219E
:1008A000FFF72FFE374908790021FFF72AFE354967
:1008B00048790121FFF725FE0A20FFF7BBFC3149EB
:1008C00048790021FFF71DFE10BD10B50446FFF763
:1008D00002FF2C488078082803D12046FFF7E0FE6D
:1008E00006E02046FFF7C1FEFFF7D6FF2007040E03
:1008F0002046FFF7BAFEFFF7CFFF10BD10B5044644
:100900002048407820490978884201DD0A2C01D12D
:10091000FFF7A9FF0A2C07D02046FFF7D6FF1A4899
:100920000078401C1849087010BD10B5044603E05B
:1009300014F8010BFFF7E2FF20780028F8D110BD72
:100940002DE9F04107460E460E480078B84200DC1B
:1009500000270C20FFF709FF002529E03846FFF7A4
:100960001DFF002405E02919705CFFF7C7FF601C1C
:10097000C4B204484078A04203DD2819305C002846
:10098000F1D10CE034000010290000102800001004
:100990002A0000102020FFF7B1FF601CC4B2C84835
:1009A0004078A042F6DCC820FFF751FC681CC5B2B5
:1009B000705D0028D2D10E20FFF7D7FEBDE8F08190
:1009C000FEB507460E4615460024022F14D110E04E
:1009D000681E012101FA00F0304008B1012000E05A
:1009E0000020044604F13001C8B2FFF787FF681EFB
:1009F000C5B2002DECD13CE05EB9002404E030200B
:100A0000FFF77CFF601CC4B2AC4232DA0A2CF6D38A
:100A10002FE0002414E04EB1B6FBF7F007FB1060A6
:100A2000C0B20DF80400B6FBF7F607E0FF2D01D0C9
:100A30000A2D00D906E000200DF80400601CC4B2A5
:100A4000AC42E8DB00BF12E0611E1DF8011009296D
:100A500004DD611E1DF80110373103E0611E1DF831
:100A600001103031C8B2FFF749FF601EC4B2002C3C
:100A7000EAD1FEBD2DE9F04104460D462046294647
:100A800000F004FB8046FF2241460A20FFF798FF52
:100A90002E20FFF733FF404600F025FB0646224696
:100AA0002B4600F031FC04460D460022854B2046C3
:100AB000294600F02BFB064600F0E8FA8046FF22AC
:100AC00041460A20FFF77CFFBDE8F0810FB42DE915
:100AD000FE4F0DA802900C9DE8E02C78252C79D1D2
:100AE0006D1C2C78302C11DB392C0FDC002608E033
:100AF000A4F1300006EB860100EB4100C6B26D1C8C
:100B00002C78302C03DB392CF2DD00E0FF26582C4A
:100B100079D010DC442C3FD006DC252C74D0422C3C
:100B200073D0432C21D117E0462C6FD0532C6ED0BC
:100B3000552CF7D14FE0662C6AD006DC622C75D0BC
:100B4000632C0AD0642CEDD110E0732C7DD0752C71
:100B500034D0782CE6D14AE000BF029810F8041B8C
:100B6000CCB202902046FFF7C9FE9AE0029830F816
:100B7000041B0FFA81F90290B9F1000F06DAC9F1EE
:100B800000000FFA80F92D20FFF7B8FE32464946E3
:100B90000A20FFF715FF84E0029850F804AB02909A
:100BA000BAF1000F04DACAF1000A2D20FFF7A6FE01
:100BB000324651460A20FFF703FF72E0029830F8F0
:100BC000041B029088B2019032460A200199FFF777
:100BD000F7FE66E066E00298006800900298001D4B
:100BE000029032460A200099FFF7EAFE59E0029887
:100BF00030F8041B029088B201903246102001990F
:100C0000FFF7DEFE4DE005E047E01FE02DE03BE0B2
:100C10002CE00BE00298006800900298001D029002
:100C2000324610200099FFF7CBFE3AE0029830F8E8
:100C3000041B029088B20190FF2E00D1102632468C
:100C400002200199FFF7BCFE2BE01EE0029800682D
:100C500000900298001D0290FF2E00D1102632460F
:100C600002200099FFF7ACFE1BE000BF0298C01DF8
:100C700020F007000290D0E9007808300290384652
:100C80004146FFF7F7FE0CE000BF029850F804BBA6
:100C900002905846FFF749FE03E02520FFF72EFE9D
:100CA00000BF02E02046FFF729FE6D1C28780028CF
:100CB0007FF413AF0290BDE8FE0F5DF814FB000057
:100CC0003400001080842E4195480068C0F3016014
:100CD000032860D192488430006800F0030030B1EE
:100CE000012820D0022839D0032853D100E000BFCA
:100CF0008B480068C0F30E00401C400089494843FF
:100D000087498839D1F88810C1F30741491CB0FBE5
:100D1000F1F183487C300068C0B2401CB1FBF0F0B8
:100D20008149086036E07E480068C0F30E00401C30
:100D300040007E4948437A498839D1F88810C1F388
:100D40000741491CB0FBF1F175487C300068C0B226
:100D5000401CB1FBF0F0744908601BE0704800686B
:100D6000C0F30E00401C40004FF4FA4148436C4968
:100D70008839D1F88810C1F30741491CB0FBF1F163
:100D800067487C300068C0B2401CB1FBF0F0664997
:100D9000086000BF30E062488430006800F0030063
:100DA00030B1012810D0022819D0032823D100E047
:100DB00000BF5B487C300068C0B2401C5949B1FBA1
:100DC000F0F05949086016E055487C300068C0B220
:100DD000401C5649B1FBF0F0534908600BE0504805
:100DE0007C300068C0B2401C4FF4FA41B1FBF0F017
:100DF0004D49086000BF00BF704720204C49086083
:100E000000BF4B48006800F040000028F9D00320E4
:100E100043497C310860012041498839C1F80C01FF
:100E200044483F49091F0860AA203D49091D086040
:100E30005520086001203A4908390860AA2038493D
:100E4000091D0860552036498839C1F88C0000BF5B
:100E50003348006800F080600028F9D00320304952
:100E600008390860AA202E498839C1F88C0055201D
:100E70002B49091D086000BF2948006800F0407038
:100E80000028F9D0232026491C310860AA202449D3
:100E90008839C1F8AC00552021492431086001206F
:100EA0001F4918310860AA201D49243108605520C7
:100EB0001B498839C1F8AC0000BF194820300068D0
:100EC00000F480600028F8D003201549183108602C
:100ED000AA2013498839C1F8AC00552010492431A3
:100EE000086000BF0E482030006800F44070002801
:100EF000F8D000200E490831086009498839C1F846
:100F0000AC010D4806493C310860002008492831F1
:100F1000086043F23A0002498839086070470000CF
:100F200088C00F4000093D0030000010001BB700D2
:100F3000A0C10F4063000500DE87280410B591EAC8
:100F4000030F48BF83F0004300F1F281841A71EB74
:100F5000030C05D2121943EB0C03001B61EB0C01CF
:100F6000DFF824E14FEA1154A4EB135C1EEA430FAF
:100F700018BF9EEA445F73D023EA0E03DCF1200E13
:100F800021EA045143F4801332D322FA0CFE10EB11
:100F90000E0023FA0CFE41EB0E01CCF1200E03FAF9
:100FA0000EFE10EB0E0051F10001B1F5801FCCF1E7
:100FB000200E32D201EB045112FA0EF2BDE81040BD
:100FC00058BF7047401C38BF5FEA420218BF7047E5
:100FD000002814BF20F0010041F100014FEA410355
:100FE00013F5001F38BF7047A1F1C04100F086B96A
:100FF000012A43EB0302ACF1200CDCF11F0E32BFDF
:101000004FF0000E23FA0CF310EB030041EB0451F8
:10101000B4EB115FD0D0A1EB045101F58011490868
:101020005FEA300001EB04510ED350F1000038BFED
:1010300012FA0EFE08D1BDE81040C9E7401C38BFC7
:101040005FEA4202CAD1C3E7BDE810404FEA41035C
:1010500013F5001F38BF7047A1F1C04100F04EB931
:101060009EEA445F08D011EA5E0FBDE8104004BF5D
:1010700001F0004100207047BDE8104070B500F05D
:10108000EFF800BF64FBBE3E0000E0FF4FEA1153E3
:10109000A3F58063D3F11E03A8BFD3F1200C08DBB6
:1010A0004FF0004242EAC12252EA505232FA03F0B3
:1010B000704709420BD4102BC4BF0020704703F5C2
:1010C000787CBCF1FF3F05D04FF0FF3070474FF008
:1010D0000000704770B500F0C3F800BF499224804B
:1010E00000207047F0E7B0FA80F310FA03F10AD05D
:1010F000C3F11D0303F580634FEA41504FEA0352E9
:1011000002EBD12170474FF000007047DFF848C173
:1011100070B51CEA111E1EBF1CEA13159EEA0C0FC7
:1011200095EA0C0F00F06F8081EA030423EA4C1368
:101130004EEAD47E21EA4C1141F4801143F480132D
:10114000AE44A1FB024CA0FB0365AEF17F7E3619D5
:1011500055EB0C05A1FB034C4CF10003A0FB021C5A
:1011600016EB0C06654153F10003094218BF46F027
:10117000010613F4007F0BD14FEA03314FEA05302B
:10118000340341EA155140EA16506FF003020AE0B9
:101190004FEAC3214FEAC520F40241EA555140EA23
:1011A00056506FF0020202EB2E4201EB025585EA27
:1011B000CE710AD05FEA440C18BF24F0004450F10D
:1011C000000041F1000120EAD47040F2FE7C62454B
:1011D00000D270BDA84214BF4FF080444FF040448D
:1011E000002E08BF0024BEF1806FA8BFA1F1C0414E
:1011F000BDE8704080F282804FF0000001F1C041F4
:1012000001F0004170479EEA0C0F0CEA131518BF5D
:1012100095EA0C0F06D04FF0000081EA030E0EF0A5
:10122000004170BD00F01CF88900013E00F007B8D5
:1012300000F009B84FEA430C5FEA5C5C08D081EA31
:10124000030100F05BB84FEA410C5FEA5C5CF6D149
:101250004FF00000014970470000FF070000F87FD1
:101260000EF1020E2EF0030E5EF8046B364205D42A
:10127000012A43EB030515F5001F12D8012841EBA5
:10128000010C1CF5001F0CD80ED14FEAD17C15F5CE
:10129000001F0CEB4C0C0CF1020C08BF4CEBD37C88
:1012A00004E04FF0080C01E04FEAD37C0CEB4C0556
:1012B00026FA05F606F00706B6F1040C06D20EEB88
:1012C000860CBDE870404CF0010C6047DFE80CF084
:1012D000090B02024FF000414FF00000A1F5002180
:1012E00070BD19461046012851EB010418BFD4F512
:1012F000001484BF002001F0004170BD0808A0F573
:1013000000114FEA3101704791EA030F10B581F0E7
:1013100000413FF51BAE83F0004300F009B8000028
:1013200010B591EA030F48BF83F000433FF50EAEBE
:10133000841A71EB030C07D212198CF0004C43EBAA
:101340000C03001B61EB0C01DFF8A4E14FEA115420
:10135000A4EB135C1EEA430F18BF9EEA445F00F043
:10136000B08023EA6E03524221EA0451C3EB6E03BC
:1013700038BF5B1EDCF1200E25D322FA0CFE10EBE9
:101380000E0043FA0CFE41EB0E01CCF1200E03FAE5
:101390000EFE10EB0E0051F10001CCF1200E29D40D
:1013A00012FA0EF201EB0451BDE8104058BF70472D
:1013B000401C1CBFB2F1004F704700280CBF491CF5
:1013C00020F00100704712EB020E43EB030218BF3E
:1013D0004FF0010E4EEA4202ACF1200CDCF11E0E81
:1013E00054D943FA0CFE10EB0E0051F1FF31CCF151
:1013F0001E0ED5D50EF1010E12FA0EFE404141EB44
:10140000010101EB445C5FEA5C5C10D910EBDE701B
:1014100001EB045138BFBEF1004FBDE8104018BFCA
:10142000704700280CBF491C20F00100704730D2E3
:101430004FEAD42C11F5001124F400641BD0B1FA4A
:1014400081F20B3AA41AA41ED2F12003914030FA83
:1014500003F31943904001EBCC71002C01EB0451D4
:10146000BDE81040A8BF704701F1C0414FF0000037
:1014700001F000417047B0FA80F310FA03F100D197
:1014800010BDE41A173C4805C90AE4E701EB045112
:1014900010BD491001EB0451BDE810404FEA300087
:1014A00002E04FF0000170474A0008BF0042F8D048
:1014B000B2F5001F28BF704701F000414FF0000057
:1014C00070479EEA445F07D011EA5E0FBDE8104006
:1014D00004BF002100207047BDE8104070B5FFF741
:1014E000BFFE00BF40DFF63E83F00041104670476C
:1014F0000000E0FF141500000000001034000000A0
:1015000008010000481500003400001074020000BB
:1015100024010000000000000000000000000000A6
:10152000124A000000000000134B00000000000001
:10153000144C000000000000154D0000000080C0A9
:0815400090D0000000E1F50568
:04000005000001698D
:00000001FF
