:020000040000FA
:0402FC00FFFFFFFF02
:020000040000FA
:1020000080020010A52D0000A92D0000AB2D0000BE
:10201000AD2D0000AF2D0000B12D0000000000002C
:10202000000000000000000000000000B32D0000D0
:10203000B52D000000000000B72D0000B92D0000F4
:10204000BB2D0000BB2D0000BB2D0000BB2D0000F0
:10205000BB2D0000BB2D0000BB2D0000BB2D0000E0
:10206000BB2D0000BB2D0000BB2D0000BB2D0000D0
:10207000BB2D0000BB2D0000BB2D0000BB2D0000C0
:10208000BB2D0000BB2D0000BB2D0000BB2D0000B0
:10209000BB2D0000BB2D0000BB2D0000BB2D0000A0
:1020A000BB2D0000BB2D0000BB2D0000BB2D000090
:1020B000BB2D0000BB2D0000BB2D0000BB2D000080
:1020C000BB2D0000BB2D0000BB2D000000F002F86E
:1020D00000F03CF80AA090E8000C82448344AAF186
:1020E0000107DA4501D100F031F8AFF2090EBAE884
:1020F0000F0013F0010F18BFFB1A43F0010318473C
:102100002C1700004C170000103A24BF78C878C183
:10211000FAD8520724BF30C830C144BF04680C60ED
:10212000704700000023002400250026103A28BF35
:1021300078C1FBD8520728BF30C148BF0B60704739
:102140001FB501F05EFB1FBD10B510BD00F047FECE
:102150001146FFF7F5FF00F0A5FC00F065FE03B4A3
:10216000FFF7F2FF03BC00F06DFE00002E4A12687C
:10217000C2F3811131B1012908D0022909D0032904
:102180000FD10AE0294A126890080AE0274A10682D
:1021900007E0264A1268500803E0244A1268D00873
:1021A00000BF00BF704710B52148006840F4805060
:1021B0002049C1F8C400FFF7D9FF04461E48B4FB0C
:1021C000F0F0401E040244F400101C49086010BDE9
:1021D00070B50446082C24D2194A02EB4402517807
:1021E000174A12F8140000F053F81448006820F061
:1021F000FF000121A1400843104908600A2000F0B7
:1022000021F80E48006840F080700C49086000BF5B
:102210000A484068C00FFBD008484068C0F30B155F
:1022200000E00025284670BDA8C10F40080000103E
:10223000C4C00F4000C00F4040420F0000400340A8
:102240001A3800000021002200BF05E0002200E053
:10225000521C192AFCD3491C8142F7D3704730B570
:102260000446002504E04FF47A70FFF7EBFF6D1C85
:10227000A542F8D330BD30B50446002504E04FF444
:102280007A70FFF7ECFF6D1CA542F8D330BD00005B
:1022900070B502460C461046531100F01F005B005B
:1022A000102804DB5D1CEBB2A0F11005E8B2450676
:1022B000280E274D05EB8301032686400D68B543A4
:1022C0000D6004FA00F60D6835430D6070BD70B501
:1022D0000B460246441102F01F021E4D05EB44114D
:1022E0002BB10D680126964035430D6004E00D6862
:1022F00001269640B5430D6070BD70B50B46024691
:10230000441102F01F02134D05EB44112BB14D692E
:102310000126964035434D6104E04D690126964003
:10232000B5434D6170BD70B5014600200A464B11A2
:1023300002F01F02074D05EB431465690126964024
:10234000354201D0012500E00025E8B270BD000053
:1023500000C0024000C009202DE9F05F82460D4612
:1023600016461C460AAF97E8800BFC4880F803A08D
:10237000057146718471C77180F8088080F80990F2
:1023800080F80AB0F5490E98C8720F980873109833
:102390004873FF2C07D0FF2F05D0B8F1FF0F02D0F4
:1023A000B9F1FF0F03D10420EC49887012E0082036
:1023B000EA49887001212046FFF789FF012138464C
:1023C000FFF785FF01214046FFF781FF01214846C5
:1023D000FFF77DFF01215046FFF779FF01212846D5
:1023E000FFF775FF01213046FFF771FF01215846C5
:1023F000FFF76DFF01210E98FFF769FF01210F988C
:10240000FFF765FF01211098FFF761FFBDE8F09F1E
:1024100010B5D249C8780021FFF76FFFCF4908797E
:102420000021FFF76AFFCD4948790121FFF765FFD9
:102430000A20FFF707FFC94948790021FFF75DFF30
:1024400010BD10B50446C549887AC4F30011FFF7E2
:1024500054FFC249C87AC4F34011FFF74EFFBF4989
:10246000087BC4F38011FFF748FFBC49487BE109B2
:10247000FFF743FF10BD10B5044604F00101B74A51
:102480009079FFF73AFFB549C879C4F34001FFF7E7
:1024900034FFB249087AC4F38001FFF72EFFAF4939
:1024A000487AC4F3C001FFF728FF10BD10B5AB4850
:1024B0000079FF2840D0A949487B0021FFF707FF9A
:1024C000A649C8780021FFF718FFA449087901211F
:1024D000FFF713FF00BFA14948790021FFF70DFF67
:1024E0000A20FFF7AFFE9D4948790121FFF705FF5C
:1024F0000A20FFF7A7FE9949487BFFF714FF04461F
:102500009648807804280FD1944948790021FFF734
:10251000F4FE0A20FFF796FE904948790121FFF763
:10252000ECFE0A20FFF78EFE002CD4D18B49487BAD
:102530000121FFF7CCFE02E00120FFF790FE10BD65
:1025400010B50446FFF7B2FF84488078082803D10D
:102550002046FFF790FF06E02046FFF772FFFFF7E7
:1025600057FF2007040E2046FFF76BFFFFF750FFD1
:1025700010BD10B5044679480078A04208DB002061
:1025800077490870774804707749085DFFF7D8FFEE
:1025900010BD10B50120FFF7D3FF0020FFF7E9FFC2
:1025A00010BD10B53020FFF74CFFFFF731FF64205E
:1025B000FFF755FE3020FFF744FFFFF729FFC82043
:1025C000FFF740FE3020FFF73CFFFFF721FFC82058
:1025D000FFF738FE2020FFF734FFFFF719FFC82070
:1025E000FFF730FE10BD70B505460C465B484470E1
:1025F0000570022D08DD04F00F0090305A49487034
:1026000004F00F00D030C8706420FFF728FE534854
:102610008078082803D13820FFF792FF08E04F4860
:102620008078042804D1FFF7BCFF2820FFF788FF3B
:102630000E20FFF785FFFFF7ACFF70BD10B54948CE
:102640000078401C474908700020454908704348FD
:10265000007844490978884202DA0120414908702B
:102660004149404A1278885CFFF76AFF10BD10B5F7
:102670003A49C8780121FFF740FE3849087900211E
:10268000FFF73BFE354948790121FFF736FE0A2066
:10269000FFF7D8FD314948790021FFF72EFE10BD24
:1026A00010B50446FFF702FF2C488078082803D1B4
:1026B0002046FFF7E0FE06E02046FFF7C2FEFFF7E8
:1026C000D6FF2007040E2046FFF7BBFEFFF7CFFF23
:1026D00010BD10B504462148407821490978884248
:1026E00001DD0A2C01D1FFF7A9FF0A2C07D02046F3
:1026F000FFF7D6FF1A480078401C1949087010BD32
:1027000010B5044603E014F8010BFFF7E2FF207850
:102710000028F8D110BD2DE9F04107460E460F48BC
:102720000078B84200DA01270C20FFF709FF0025E6
:102730002AE03846FFF71DFF002405E02919705CE8
:10274000FFF7C7FF601CC4B204484078A04203DD15
:102750002819305C0028F1D10DE000000C000010B9
:102760000500001004000010000000102020FFF7FA
:10277000B0FF601CC4B2C9484078A042F6DC7D209E
:10278000FFF76DFD681CC5B2705D0028D1D10E2029
:10279000FFF7D6FEBDE8F081FEB507460E461546AA
:1027A0000024022F14D110E0681E012101FA00F06C
:1027B000304201D0012000E00020C4B204F130001A
:1027C000C0B2FFF786FF681EC5B2002DECD13CE019
:1027D0005EB9002404E03020FFF77BFF601CC4B228
:1027E000AC4232DA0A2CF6D32FE0002414E04EB1CA
:1027F000B6FBF7F007FB1060C0B20DF80400B6FBA3
:10280000F7F607E0FF2D01D00A2D00D906E00020E1
:102810000DF80400601CC4B2AC42E8DB00BF12E05B
:10282000611E1DF80110092904DD611E1DF801104B
:10283000373103E0611E1DF801103031C8B2FFF7D7
:1028400048FF601EC4B2002CEAD1FEBD2DE9F04164
:1028500004460D462046294600F02EFD8046FF2204
:1028600041460A20FFF798FF2E20FFF732FF40462F
:1028700000F04FFD064622462B4600F05BFE044664
:102880000D460022864B2046294600F055FD06469F
:1028900000F012FD8046FF2241460A20FFF77CFF30
:1028A000BDE8F0810FB42DE9FE4F0DA802900C9FFA
:1028B000EAE03E78252E79D17F1C3E78302E13DB5E
:1028C000392E11DC4FF0000809E0A6F1300008EBCA
:1028D000880100EB410000F0FF087F1C3E78302E9D
:1028E00004DB392EF1DD01E04FF0FF08582E7AD0DD
:1028F00010DC442E3DD006DC252E70D0422E6FD049
:10290000432E20D117E0462E6BD0532E6AD0552E81
:10291000F7D14CE0662E72D006DC622E72D0632EA8
:102920000AD0642EEDD10FE0732E6AD0752E32D00E
:10293000782EE6D147E000BF029802C8CEB20290DE
:102940003046FFF7C6FE9AE0029802C80FFA81F9F6
:102950000290B9F1000F06DAC9F100000FFA80F910
:102960002D20FFF7B6FE424649460A20FFF714FF26
:1029700085E0029850F804AB0290BAF1000F04DA37
:10298000CAF1000A2D20FFF7A4FE424651460A2054
:10299000FFF702FF73E0029802C8029088B201902C
:1029A00042460A200199FFF7F7FE68E068E00298C6
:1029B000006800900298001D029042460A2000998B
:1029C000FFF7EAFE5BE0029802C8029088B201902D
:1029D000424610200199FFF7DFFE50E003E04AE095
:1029E00020E030E03EE00298006800900298001D70
:1029F0000290424610200099FFF7CEFE3FE023E010
:102A000000E030E0029802C8029088B20190B8F16C
:102A1000FF0F01D14FF01008424602200199FFF745
:102A2000BBFE2CE00298006800900298001D029006
:102A3000B8F1FF0F01D14FF0100842460220009973
:102A4000FFF7AAFE1BE000BF0298C01D20F00700A0
:102A50000290D0E900450830029020462946FFF751
:102A6000F5FE0CE000BF029850F804BB02905846F7
:102A7000FFF746FE03E02520FFF72BFE00BF02E034
:102A80003046FFF726FE7F1C387800287FF411AF10
:102A90000290BDE8FE0F5DF814FB00000C00001072
:102AA00080842E418AB000F06FF83B233A2239210E
:102AB0003820CDE90523CDE903013723362235211E
:102AC0008DE80E003423422241214020FFF744FCD0
:102AD00010210220FFF787FDFFF765FB3CE0002097
:102AE000FFF776FB09900120FFF772FB08900220A8
:102AF000FFF76EFB0790079800F00BFC0646174A9D
:102B0000174B00F081FA044600F0D6FB1FFA80F85C
:102B1000099800F0FEFB04464FF06632114B00F0BE
:102B20000BFC06460022104B00F06EFA824600F0C5
:102B300091F981460020FFF71CFD484600F0F0FDAA
:102B4000044602460B4609A00999FFF7ABFE424630
:102B500009A00899FFF7A6FEC1E7000052B81E853C
:102B6000EBD1284066660A400000B040503A253458
:102B700064202566000000000A4C3A253464205485
:102B80003A2534640000000020207649086000BF28
:102B90007448006810F0400FFAD0032072490860B2
:102BA0004FF000007149C1F8A801714908604FF069
:102BB0000100704908607048704908604FF00100DA
:102BC000A1F1040108604FF0AA006D4908604FF0C0
:102BD00055006649C1F88C0000BF6A48006810F0D3
:102BE000806FFAD00320684908604FF0AA005F495F
:102BF000C1F88C004FF05500614908604FF00000AB
:102C0000624908606248634908604FF00000574914
:102C1000C1F8C8015B480068C0F30160032868D1AF
:102C20005448006810F0030006D0012823D0022881
:102C30003FD003285CD100E000BF52480068C0F3D9
:102C40000E0000F101004FEA4000534900FB01F083
:102C50004649D1F88810C1F3074101F10101B0FBE9
:102C6000F1F141480068C0B200F10100B1FBF0F0A1
:102C70004A4908603CE043480068C0F30E0000F198
:102C800001004FEA4000464900FB01F03749D1F806
:102C90008810C1F3074101F10101B0FBF1F13248A5
:102CA0000068C0B200F10100B1FBF0F03B490860E0
:102CB0001EE034480068C0F30E0000F101004FEA46
:102CC00040004FF4FA4100FB01F02849D1F8881088
:102CD000C1F3074101F10101B0FBF1F122480068A5
:102CE000C0B200F10100B1FBF0F02C49086000BF58
:102CF0002FE02048006810F0030006D0012810D013
:102D0000022819D0032823D100E000BF164800682C
:102D1000C0B200F101002049B1FBF0F01F4908608A
:102D200016E011480068C0B200F101001C49B1FB77
:102D3000F0F01A4908600BE00B480068C0B200F1DF
:102D400001004FF4FA41B1FBF0F01449086000BFF4
:102D500000BF0648006820F4704040F480400349FA
:102D600008607047A0C10F4004C10F4000C00F4071
:102D7000ACC10F400CC10F406300050084C00F4080
:102D80008CC00F4088C00F4080C00F4008C10F406A
:102D9000DE872804C4C00F4000093D000800001071
:102DA000001BB70008480047FEE7FEE7FEE7FEE726
:102DB000FEE7FEE7FEE7FEE7FEE7FEE7034804491D
:102DC000024A044B70470000CD2000008000001034
:102DD00080020010800000107047704770477546F1
:102DE00000F028F8AE4605006946534620F007007B
:102DF000854618B020B5FFF7E1FFBDE820404FF051
:102E000000064FF000074FF000084FF0000B21F0D4
:102E10000701AC46ACE8C009ACE8C009ACE8C009A1
:102E2000ACE8C0098D4670470446AFF300802046E9
:102E3000FFF795F9004870471C00001000487047E4
:102E40002000001001491820ABBEFEE7260002005A
:102E50007047000021F00042A2F16052B2F5801FDD
:102E600001F0004328BFD2F17F6C0BD95FEA001C50
:102E700043EAC20242EB507018BF704728BF20F0EF
:102E800001007047B2F5801FBCBF184670474FEA7B
:102E9000410C1CF5001F02D2084600F0B9BC70B509
:102EA00000F0F4FA00000089FFF7F6BF4FF0004091
:102EB000A0F580007047000010B591EA030F48BFED
:102EC00083F0004300F14A83841A71EB030C05D2AE
:102ED000121943EB0C03001B61EB0C01DFF824E13A
:102EE0004FEA1154A4EB135C1EEA430F18BF9EEA8D
:102EF000445F73D023EA0E03DCF1200E21EA045173
:102F000043F4801332D322FA0CFE10EB0E0023FAA6
:102F10000CFE41EB0E01CCF1200E03FA0EFE10EB7D
:102F20000E0051F10001B1F5801FCCF1200E32D21C
:102F300001EB045112FA0EF2BDE8104058BF704781
:102F4000401C38BF5FEA420218BF7047002814BF18
:102F500020F0010041F100014FEA410313F5001F89
:102F600038BF7047A1F1C04100F0DEBA012A43EB3F
:102F70000302ACF1200CDCF11F0E32BF4FF0000E4B
:102F800023FA0CF310EB030041EB0451B4EB115F97
:102F9000D0D0A1EB045101F5801149085FEA30005F
:102FA00001EB04510ED350F1000038BF12FA0EFEAF
:102FB00008D1BDE81040C9E7401C38BF5FEA4202B3
:102FC000CAD1C3E7BDE810404FEA410313F5001F23
:102FD00038BF7047A1F1C04100F0A6BA9EEA445F35
:102FE00008D011EA5E0FBDE8104004BF01F00041B7
:102FF00000207047BDE8104070B500F047FA00BFF0
:1030000064FBBE3E0000E0FF2DE9C04130B4DFF8B4
:10301000A0C23CEA111418BF3CEA131400F0EC8083
:1030200081EA03051CEA111444EAD57418BF1CEAAE
:10303000131500F0C780A4EB05044FF0004545EAE6
:10304000C12145EAC32341EA505143EA525304F1F6
:103050007F74994204F500344FEAC0204FEAC2223F
:1030600008BF904200F09C804FEA13650FF24016B3
:10307000765D4FEA134506FB05F7C7F1807706FB3F
:1030800007F74FEAD737A7FB03687642C8F58038C1
:10309000A7FB06CE38BFA8F1010807FB08E64FF0F2
:1030A000000EA6FB028CE6FB03CEDCF1000CCEF199
:1030B000004E38BFAEF1010EA6FB0C584FF00007D2
:1030C0004FF00005E6FB0E87A1FB08C6A0FB07CE6C
:1030D00016EB0E0645F10005E1FB076515F1E04E24
:1030E0007EBFA4F580345FEA46066D4116F1800785
:1030F00045F100054FEA17274FEA066647EA0567DC
:10310000A6F1DE46B6F1805F4FEA15251FD9384695
:1031100024F0010C05EBC471BCF1FE6F01EB0C1146
:1031200002D8F0BCBDE8008124425CBF01F5801EDE
:103130009EEAC47F02D4F0BCBDE80081244238D4AA
:10314000F0BCA1F1C041BDE8004100F0EDB94FEA8B
:10315000D22242EA43524FEAD323A7FB02864FEA28
:10316000D02040EA415007FB03661EEA0E0F4FEAEB
:10317000D12105FB026658BFA6EB0056B6EB005600
:103180004FEA520E4EEAC37E18EB0E0E56EB530E6C
:10319000BDD518EB02085E417F1C55F10005B6E76E
:1031A0004FF480154FF000074FF000064FF0000875
:1031B000ADE7F0BC4FF0000001F1C04101F000416B
:1031C000BDE8008111EA0C1F0CEA131500D00CE0D9
:1031D00013EA0C1F00F025804FF00000F0BC81EADC
:1031E000030101F00041BDE80081F0BCBDE80041F1
:1031F00081EA030100F098B9F0BCBDE8004170B568
:1032000000F044F9097EFC3E00F007B881EA0301B2
:103210004FF0000001F00041704781EA030100F027
:1032200083B9F0BCBDE800414FF000002149704770
:10323000FFFDFBF9F7F5F4F2F0EEEDEBE9E8E6E47B
:10324000E3E1E0DEDDDBDAD8D7D5D4D3D1D0CFCD02
:10325000CCCBCAC8C7C6C5C4C2C1C0BFBEBDBCBB3B
:10326000BAB9B8B7B6B5B4B3B2B1B0AFAEADACAB36
:10327000AAA9A8A8A7A6A5A4A3A3A2A1A09F9F9E10
:103280009D9C9C9B9A9999989797969595949393C2
:10329000929191908F8F8E8E8D8C8C8B8B8A898959
:1032A00088888787868585848483838282818180DC
:1032B0000000FF070000F87F4FEA1153A3F5806379
:1032C000D3F11E03A8BFD3F1200C08DB4FF000425E
:1032D00042EAC12252EA505232FA03F070470942E0
:1032E0000BD4102BC4BF0020704703F5787CBCF1D1
:1032F000FF3F05D04FF0FF3070474FF000007047A0
:1033000070B500F0C3F800BF4992248000207047D8
:10331000F0E7B0FA80F310FA03F10AD0C3F11D030D
:1033200003F580634FEA41504FEA035202EBD1218B
:1033300070474FF000007047DFF848C170B51CEAD5
:10334000111E1EBF1CEA13159EEA0C0F95EA0C0F06
:1033500000F06F8081EA030423EA4C134EEAD47E26
:1033600021EA4C1141F4801143F48013AE44A1FBD7
:10337000024CA0FB0365AEF17F7E361955EB0C05C0
:10338000A1FB034C4CF10003A0FB021C16EB0C0646
:10339000654153F10003094218BF46F0010613F4DA
:1033A000007F0BD14FEA03314FEA0530340341EA85
:1033B000155140EA16506FF003020AE04FEAC321AC
:1033C0004FEAC520F40241EA555140EA56506FF0E9
:1033D000020202EB2E4201EB025585EACE710AD0C1
:1033E0005FEA440C18BF24F0004450F1000041F1A2
:1033F000000120EAD47040F2FE7C624500D270BD2C
:10340000A84214BF4FF080444FF04044002E08BF44
:103410000024BEF1806FA8BFA1F1C041BDE870409B
:1034200080F282804FF0000001F1C04101F00041C4
:1034300070479EEA0C0F0CEA131518BF95EA0C0FA3
:1034400006D04FF0000081EA030E0EF0004170BD7F
:1034500000F01CF88900013E00F007B800F009B840
:103460004FEA430C5FEA5C5C08D081EA030100F09C
:103470005BB84FEA410C5FEA5C5CF6D14FF00000AC
:10348000014970470000FF070000F87F0EF1020EAF
:103490002EF0030E5EF8046B364205D4012A43EB8E
:1034A000030515F5001F12D8012841EB010C1CF58E
:1034B000001F0CD80ED14FEAD17C15F5001F0CEB84
:1034C0004C0C0CF1020C08BF4CEBD37C04E04FF029
:1034D000080C01E04FEAD37C0CEB4C0526FA05F60C
:1034E00006F00706B6F1040C06D20EEB860CBDE81A
:1034F00070404CF0010C6047DFE80CF0090B020251
:103500004FF000414FF00000A1F5002170BD1946B9
:103510001046012851EB010418BFD4F5001484BFF4
:10352000002001F0004170BD0808A0F500114FEA2D
:103530003101704791EA030F10B581F000413FF56A
:10354000C3AC83F0004300F009B8000010B591EA65
:10355000030F48BF83F000433FF5B6AC841A71EB0C
:10356000030C07D212198CF0004C43EB0C03001B28
:1035700061EB0C01DFF8A4E14FEA1154A4EB135CFA
:103580001EEA430F18BF9EEA445F00F0B08023EAB2
:103590006E03524221EA0451C3EB6E0338BF5B1E37
:1035A000DCF1200E25D322FA0CFE10EB0E0043FABC
:1035B0000CFE41EB0E01CCF1200E03FA0EFE10EBD7
:1035C0000E0051F10001CCF1200E29D412FA0EF2B6
:1035D00001EB0451BDE8104058BF7047401C1CBFB0
:1035E000B2F1004F704700280CBF491C20F00100C9
:1035F000704712EB020E43EB030218BF4FF0010EAF
:103600004EEA4202ACF1200CDCF11E0E54D943FA12
:103610000CFE10EB0E0051F1FF31CCF11E0ED5D592
:103620000EF1010E12FA0EFE404141EB010101EBD9
:10363000445C5FEA5C5C10D910EBDE7001EB045176
:1036400038BFBEF1004FBDE8104018BF70470028DA
:103650000CBF491C20F00100704730D24FEAD42C37
:1036600011F5001124F400641BD0B1FA81F20B3A79
:10367000A41AA41ED2F12003914030FA03F3194397
:10368000904001EBCC71002C01EB0451BDE81040DF
:10369000A8BF704701F1C0414FF0000001F00041A8
:1036A0007047B0FA80F310FA03F100D110BDE41AAC
:1036B000173C4805C90AE4E701EB045110BD491065
:1036C00001EB0451BDE810404FEA300002E04FF03A
:1036D000000170474A0008BF0042F8D0B2F5001F51
:1036E00028BF704701F000414FF0000070479EEA8C
:1036F000445F07D011EA5E0FBDE8104004BF00210F
:1037000000207047BDE8104070B5FFF7BFFE00BF56
:1037100040DFF63E83F00041104670470000E0FFB6
:1037200043004FEAD30C4FEA3C0C43401FBF400715
:103730000CF1605113F0FE4F70471CF0006F03D185
:1037400000200CF0004170470CF0004343EA507039
:1037500010B540EACC0000F00EF800BF0000009267
:103760004FEA0001FFF7E0BE4FF000414FF00000CC
:10377000A1F5002170470EF1020E2EF0030E5EF847
:10378000044B244204D44FEA4102B2F17F4F11D8D6
:103790004FEA4003B3F17F4F0CD80ED14FEAD07CF3
:1037A000B2F17F4F0CEB4C0C0CF1020C08BF4CEB50
:1037B000D17C04E04FF0080C01E04FEAD17C0CEB27
:1037C0004C0324FA03F404F00704B4F1040C06D209
:1037D0000EEB840CBDE810404CF0010C6047DFE8B4
:1037E0000CF0070802024FF00040A0F5800010BD69
:1037F0000846420018BFD2F1807288BF00F0004036
:1038000010BD10B5FFF71AFB4FF00001016010BDAD
:10381000FF2141EAD050C005704717011801190176
:103820001A013E033F030302020200004C3800006D
:10383000000000100C0000000821000058380000B3
:103840000C000010740200002421000080C090D001
:083850000000000000093D002A
:04000005000020CD0A
:00000001FF
