:020000040000FA
:10000000800200106D01000071010000730100000A
:100010007501000077010000790100000000000078
:100020000000000000000000000000007B01000054
:100030007D010000000000007F0100008101000040
:1000400083010000830100008301000083010000A0
:100050008301000083010000830100008301000090
:100060008301000083010000830100008301000080
:100070008301000083010000830100008301000070
:100080008301000083010000830100008301000060
:100090008301000083010000830100008301000050
:1000A0008301000083010000830100008301000040
:1000B0008301000083010000830100008301000030
:1000C00083010000830100008301000000F002F8BA
:1000D00000F03CF80AA090E8000C82448344AAF1A6
:1000E0000107DA4501D100F031F8AFF2090EBAE8A4
:1000F0000F0013F0010F18BFFB1A43F0010318475C
:100100002813000048130000103A24BF78C878C1B3
:10011000FAD8520724BF30C830C144BF04680C600D
:10012000704700000023002400250026103A28BF55
:1001300078C1FBD8520728BF30C148BF0B60704759
:100140001FB501F069F91FBD10B510BD00F068FEC4
:100150001146FFF7F5FF00F023F800F0B0F803B404
:10016000FFF7F2FF03BC00F0B9F8000008480047B1
:10017000FEE7FEE7FEE7FEE7FEE7FEE7FEE7FEE757
:10018000FEE7FEE703480449024A044B70470000BB
:10019000CD000000800000108002001080000010E0
:1001A00088B000F091FD3B233A2239213820CDE977
:1001B0000523CDE90301FF2300930193422241214E
:1001C0004020029300F03AF91021022000F07DFA5D
:1001D0002BE000F050FA15A1012000F00EFB00F01A
:1001E0004AFA22A000F0D0FB032000F0A2F800F0B1
:1001F00042FA40F2D24124A000F0C6FB4AF6CD31CB
:1002000024A000F0C1FB032000F093F800F033FAC3
:1002100023A000F0B9FB00F083FA41F2342124A0BE
:1002200000F0B2FB032000F084F8D2E72020202069
:1002300020202020202050726F6772616D20746F23
:100240002064656D6F6E7374726174652074686587
:10025000204578706C6F7265456D62656464656495
:10026000204C6962205573616765000048656C6CBD
:100270006F2C20576F726C64200A476F6F64204D9B
:100280006F726E696E6700004465634E756D3A2546
:10029000346400000A4865784E756D3A253478005C
:1002A00031362D6269742042696E3A31323334003E
:1002B00020253136620000007047704770470446C1
:1002C000AFF300802046FFF74AFF00000048704768
:1002D0001C00001000487047200000100149182041
:1002E000ABBEFEE72600020070470808A0F500112B
:1002F0004FEA31017047000000000000FFFFFFFFE0
:100300000021002200BF05E0002200E0521C192A53
:10031000FCD3491C8142F7D3704730B50446002511
:1003200004E04FF47A70FFF7EBFF6D1CA542F8D3A1
:1003300030BD30B50446002504E04FF47A70FFF775
:10034000ECFF6D1CA542F8D330BD000030B50A4665
:10035000A0281BDA032A19D8431100F01F005B0004
:10036000102804DB5C1CE3B2A0F11004E0B24406E8
:10037000200E304C04EB8301032585400C68AC4310
:100380000C6002FA00F50C682C430C6030BD30B5EF
:100390000B46A02811DA421100F01F00264C04EB96
:1003A00042112BB10C68012585402C430C6004E000
:1003B0000C6801258540AC430C6030BD30B50B4660
:1003C000A02811DA421100F01F001B4C04EB42116F
:1003D0002BB18C69012585402C438C6104E0CC69EC
:1003E000012585402C43CC6130BD10B5A0280ADA28
:1003F000421100F01F00104B03EB42114B69012426
:10040000844063404B6110BD30B501460020A029F7
:100410000EDA4A1101F01F01074C04EB42135C692C
:1004200001258D402C4201D0012400E00024E0B2DF
:1004300030BD000000C0024000C009202DE9F05F7F
:1004400082460D4616461C460AAF97E8800BFC48CC
:1004500080F803A0057146718471C77180F8088027
:1004600080F8099080F80AB0F5490E98C8720F9884
:10047000087310984873FF2C07D0FF2F05D0B8F1F0
:10048000FF0F02D0B9F1FF0F03D10420EC498870AF
:1004900012E00820EA49887001212046FFF777FF23
:1004A00001213846FFF773FF01214046FFF76FFF38
:1004B00001214846FFF76BFF01215046FFF767FF18
:1004C00001212846FFF763FF01213046FFF75FFF58
:1004D00001215846FFF75BFF01210E98FFF757FFF8
:1004E00001210F98FFF753FF01211098FFF74FFFED
:1004F000BDE8F09F10B5D249C8780021FFF75EFF34
:10050000CF4908790021FFF759FFCD4948790121EA
:10051000FFF754FF0A20FFF7F3FEC949487900218D
:10052000FFF74CFF10BD10B50446C549887AC4F3E7
:100530000011FFF743FFC249C87AC4F34011FFF727
:100540003DFFBF49087BC4F38011FFF737FFBC496B
:10055000487BE109FFF732FF10BD10B5044604F0F7
:100560000101B74A9079FFF729FFB549C879C4F36B
:100570004001FFF723FFB249087AC4F38001FFF777
:100580001DFFAF49487AC4F3C001FFF717FF10BD44
:1005900010B5AB480079FF2840D0A949487B00211D
:1005A000FFF7F5FEA649C8780021FFF707FFA44929
:1005B00008790121FFF702FF00BFA1494879002116
:1005C000FFF7FCFE0A20FFF79BFE9D4948790121B9
:1005D000FFF7F4FE0A20FFF793FE9949487BFFF7E7
:1005E00013FF04469648807804280FD1944948792F
:1005F0000021FFF7E3FE0A20FFF782FE90494879C9
:100600000121FFF7DBFE0A20FFF77AFE002CD4D190
:100610008B49487B0121FFF7BAFE02E00120FFF77A
:100620007CFE10BD10B50446FFF7B2FF8448807809
:10063000082803D12046FFF790FF06E02046FFF789
:1006400072FFFFF757FF2007040E2046FFF76BFFEE
:10065000FFF750FF10BD10B5044679480078A0425E
:1006600008DD002077490870774804707749085DF5
:10067000FFF7D8FF10BD10B50120FFF7D3FF002012
:10068000FFF7E9FF10BD10B53020FFF74CFFFFF773
:1006900031FF6420FFF741FE3020FFF744FFFFF7F2
:1006A00029FFC820FFF72CFE3020FFF73CFFFFF7A3
:1006B00021FFC820FFF724FE2020FFF734FFFFF7BB
:1006C00019FFC820FFF71CFE10BD70B505460C468B
:1006D0005B4844700570022D08DD04F00F00903077
:1006E0005A49887004F00F00D030C8706420FFF7BA
:1006F00014FE53488078082803D13820FFF792FF72
:1007000008E04F488078042804D1FFF7BCFF282078
:10071000FFF788FF0E20FFF785FFFFF7ACFF70BDE6
:1007200010B549480078401C4749087000204549E9
:1007300008704348007844490978884202DC002068
:10074000414908704149404A1278885CFFF76AFFC6
:1007500010BD10B53A49C8780121FFF72FFE38497E
:1007600008790021FFF72AFE354948790121FFF772
:1007700025FE0A20FFF7C4FD314948790021FFF723
:100780001DFE10BD10B50446FFF702FF2C4880780F
:10079000082803D12046FFF7E0FE06E02046FFF7D9
:1007A000C2FEFFF7D6FF2007040E2046FFF7BBFE70
:1007B000FFF7CFFF10BD10B504462148407821490E
:1007C0000978884201DD0A2C01D1FFF7A9FF0A2C24
:1007D00007D02046FFF7D6FF1A480078401C194979
:1007E000087010BD10B5044603E014F8010BFFF7C4
:1007F000E2FF20780028F8D110BD2DE9F04107462E
:100800000E460F480078B84200DC00270C20FFF7A6
:1008100009FF00252AE03846FFF71DFF002405E008
:100820002919705CFFF7C7FF601CC4B20448407808
:10083000A04203DD2819305C0028F1D10DE0000052
:100840000C00001005000010040000100000001053
:100850002020FFF7B0FF601CC4B2C9484078A04216
:10086000F6DCC820FFF759FD681CC5B2705D002892
:10087000D1D10E20FFF7D6FEBDE8F081FEB50746C8
:100880000E4615460024022F14D110E0681E0121E7
:1008900001FA00F0304201D0012000E00020C4B293
:1008A00004F13000C0B2FFF786FF681EC5B2002D0C
:1008B000ECD13CE05EB9002404E03020FFF77BFF80
:1008C000601CC4B2AC4232DA0A2CF6D32FE000240A
:1008D00014E04EB1B6FBF7F007FB1060C0B20DF8A4
:1008E0000400B6FBF7F607E0FF2D01D00A2D00D972
:1008F00006E000200DF80400601CC4B2AC42E8DB46
:1009000000BF12E0611E1DF80110092904DD611EFF
:100910001DF80110373103E0611E1DF80110303160
:10092000C8B2FFF748FF601EC4B2002CEAD1FEBD7A
:100930002DE9F04104460D462046294600F03EFBD5
:100940008046FF2241460A20FFF798FF2E20FFF73E
:1009500032FF404600F05FFB064622462B4600F081
:1009600065FC04460D460022864B2046294600F0D1
:1009700065FB064600F022FB8046FF2241460A2026
:10098000FFF77CFFBDE8F0810FB42DE9FE4F0DA805
:1009900002900C9FEAE03E78252E79D17F1C3E78AC
:1009A000302E13DB392E11DC4FF0000809E0A6F1E0
:1009B000300008EB880100EB410000F0FF087F1CCD
:1009C0003E78302E04DB392EF1DD01E04FF0FF08D8
:1009D000582E7AD010DC442E3DD006DC252E70D067
:1009E000422E6FD0432E20D117E0462E6BD0532ECF
:1009F0006AD0552EF7D14CE0662E72D006DC622EFE
:100A000072D0632E0AD0642EEDD10FE0732E6AD01F
:100A1000752E32D0782EE6D147E000BF029802C88A
:100A2000CEB202903046FFF7C6FE9AE0029802C8A6
:100A30000FFA81F90290B9F1000F06DAC9F100004E
:100A40000FFA80F92D20FFF7B6FE424649460A20EC
:100A5000FFF714FF85E0029850F804AB0290BAF15A
:100A6000000F04DACAF1000A2D20FFF7A4FE424667
:100A700051460A20FFF702FF73E0029802C8029075
:100A800088B2019042460A200199FFF7F7FE68E01C
:100A900068E00298006800900298001D02904246AB
:100AA0000A200099FFF7EAFE5BE0029802C8029074
:100AB00088B20190424610200199FFF7DFFE50E016
:100AC00003E04AE020E030E03EE002980068009059
:100AD0000298001D0290424610200099FFF7CEFEBA
:100AE0003FE023E000E030E0029802C8029088B2C4
:100AF0000190B8F1FF0F01D14FF0100842460220DB
:100B00000199FFF7BBFE2CE0029800680090029864
:100B1000001D0290B8F1FF0F01D14FF010084246BE
:100B200002200099FFF7AAFE1BE000BF0298C01D3B
:100B300020F007000290D0E90045083002902046DE
:100B40002946FFF7F5FE0CE000BF029850F804BB01
:100B500002905846FFF746FE03E02520FFF72BFEE4
:100B600000BF02E03046FFF726FE7F1C38780028E1
:100B70007FF411AF0290BDE8FE0F5DF814FB00009A
:100B80000C00001080842E4191480068C0F3016081
:100B9000032868D18F48006810F0030006D00128B0
:100BA00023D002283FD003285CD100E000BF884852
:100BB0000068C0F30E0000F101004FEA40008649D2
:100BC00000FB01F08549D1F88810C1F3074101F11C
:100BD0000101B0FBF1F182480068C0B200F10100F0
:100BE000B1FBF0F07F4908603CE079480068C0F351
:100BF0000E0000F101004FEA40007B4900FB01F0CC
:100C00007649D1F88810C1F3074101F10101B0FB29
:100C1000F1F173480068C0B200F10100B1FBF0F0DF
:100C2000704908601EE06A480068C0F30E0000F1D9
:100C300001004FEA40004FF4FA4100FB01F0674920
:100C4000D1F88810C1F3074101F10101B0FBF1F1C6
:100C500063480068C0B200F10100B1FBF0F06149E7
:100C6000086000BF2FE05B48006810F0030006D06A
:100C7000012810D0022819D0032823D100E000BF9A
:100C800057480068C0B200F101005349B1FBF0F0D1
:100C90005449086016E052480068C0B200F10100F3
:100CA0005149B1FBF0F04F4908600BE04C48006837
:100CB000C0B200F101004FF4FA41B1FBF0F0494934
:100CC000086000BF00BF704720204849086000BF8F
:100CD0004648006810F0400FFAD0032040490860F1
:100CE0004FF001003D49C1F80C01414841490860FD
:100CF0004FF0AA00404908604FF0550008604FF0DF
:100D000001003E4908604FF0AA003B4908604FF0DF
:100D100055003249C1F88C0000BF2D48006810F022
:100D2000806FFAD00320354908604FF0AA002B49A4
:100D3000C1F88C004FF055002F49086000BF2448CF
:100D4000006810F0407FFAD023202D4908604FF052
:100D5000AA002249C1F8AC004FF0550029490860AB
:100D60004FF00100284908604FF0AA0025490860AB
:100D70004FF055001949C1F8AC0000BF2348006886
:100D800010F4806FFAD003201F4908604FF0AA00CA
:100D90001249C1F8AC004FF055001A49086000BF75
:100DA0001A48006810F4407FFAD000201849086003
:100DB0000A49C1F8AC011748174908604FF0000014
:100DC0001649086043F23A00044908607047000081
:100DD00088C00F400CC10F4000093D0000C00F400B
:100DE00004C10F4008000010001BB700A0C10F4055
:100DF0006300050084C00F408CC00F4080C00F40CE
:100E0000A4C00F40ACC00F40A0C00F40A8C00F400E
:100E1000A8C10F40DE872804C4C00F40C8C10F40DE
:100E20007546FFF753FAAE4605006946534620F073
:100E30000700854618B020B5FFF7A4F9BDE82040AB
:100E40004FF000064FF000074FF000084FF0000B86
:100E500021F00701AC46ACE8C009ACE8C009ACE839
:100E6000C009ACE8C0098D467047000010B591EA92
:100E7000030F48BF83F0004300F1EC81841A71EB4B
:100E8000030C05D2121943EB0C03001B61EB0C01A0
:100E9000DFF824E14FEA1154A4EB135C1EEA430F80
:100EA00018BF9EEA445F73D023EA0E03DCF1200EE4
:100EB00021EA045143F4801332D322FA0CFE10EBE2
:100EC0000E0023FA0CFE41EB0E01CCF1200E03FACA
:100ED0000EFE10EB0E0051F10001B1F5801FCCF1B8
:100EE000200E32D201EB045112FA0EF2BDE810408E
:100EF00058BF7047401C38BF5FEA420218BF7047B6
:100F0000002814BF20F0010041F100014FEA410325
:100F100013F5001F38BF7047A1F1C041FFF7E5B9D5
:100F2000012A43EB0302ACF1200CDCF11F0E32BFAF
:100F30004FF0000E23FA0CF310EB030041EB0451C9
:100F4000B4EB115FD0D0A1EB045101F58011490839
:100F50005FEA300001EB04510ED350F1000038BFBE
:100F600012FA0EFE08D1BDE81040C9E7401C38BF98
:100F70005FEA4202CAD1C3E7BDE810404FEA41032D
:100F800013F5001F38BF7047A1F1C041FFF7ADB99D
:100F90009EEA445F08D011EA5E0FBDE8104004BF2E
:100FA00001F0004100207047BDE8104070B500F02E
:100FB000EFF800BF64FBBE3E0000E0FF4FEA1153B4
:100FC000A3F58063D3F11E03A8BFD3F1200C08DB87
:100FD0004FF0004242EAC12252EA505232FA03F084
:100FE000704709420BD4102BC4BF0020704703F593
:100FF000787CBCF1FF3F05D04FF0FF3070474FF0D9
:101000000000704770B500F0C3F800BF499224801B
:1010100000207047F0E7B0FA80F310FA03F10AD02D
:10102000C3F11D0303F580634FEA41504FEA0352B9
:1010300002EBD12170474FF000007047DFF848C144
:1010400070B51CEA111E1EBF1CEA13159EEA0C0F98
:1010500095EA0C0F00F06F8081EA030423EA4C1339
:101060004EEAD47E21EA4C1141F4801143F48013FE
:10107000AE44A1FB024CA0FB0365AEF17F7E3619A6
:1010800055EB0C05A1FB034C4CF10003A0FB021C2B
:1010900016EB0C06654153F10003094218BF46F0F8
:1010A000010613F4007F0BD14FEA03314FEA0530FC
:1010B000340341EA155140EA16506FF003020AE08A
:1010C0004FEAC3214FEAC520F40241EA555140EAF4
:1010D00056506FF0020202EB2E4201EB025585EAF8
:1010E000CE710AD05FEA440C18BF24F0004450F1DE
:1010F000000041F1000120EAD47040F2FE7C62451C
:1011000000D270BDA84214BF4FF080444FF040445D
:10111000002E08BF0024BEF1806FA8BFA1F1C0411E
:10112000BDE87040BFF6E1A84FF0000001F1C041FA
:1011300001F0004170479EEA0C0F0CEA131518BF2E
:1011400095EA0C0F06D04FF0000081EA030E0EF076
:10115000004170BD00F01CF88900013E00F007B8A6
:1011600000F009B84FEA430C5FEA5C5C08D081EA02
:101170000301FFF7BAB84FEA410C5FEA5C5CF6D1B5
:101180004FF00000014970470000FF070000F87FA2
:101190000EF1020E2EF0030E5EF8046B364205D4FB
:1011A000012A43EB030515F5001F12D8012841EB76
:1011B000010C1CF5001F0CD80ED14FEAD17C15F59F
:1011C000001F0CEB4C0C0CF1020C08BF4CEBD37C59
:1011D00004E04FF0080C01E04FEAD37C0CEB4C0527
:1011E00026FA05F606F00706B6F1040C06D20EEB59
:1011F000860CBDE870404CF0010C6047DFE80CF055
:10120000090B02024FF000414FF00000A1F5002150
:1012100070BD19461046012851EB010418BFD4F5E2
:10122000001484BF002001F0004170BD91EA030F5B
:1012300010B581F000413FF521AE83F0004300F08E
:1012400009B8000010B591EA030F48BF83F00043CE
:101250003FF514AE841A71EB030C07D212198CF00F
:10126000004C43EB0C03001B61EB0C01DFF8A4E125
:101270004FEA1154A4EB135C1EEA430F18BF9EEA19
:10128000445F00F0B08023EA6E03524221EA045129
:10129000C3EB6E0338BF5B1EDCF1200E25D322FAB0
:1012A0000CFE10EB0E0043FA0CFE41EB0E01CCF1EC
:1012B000200E03FA0EFE10EB0E0051F10001CCF1EE
:1012C000200E29D412FA0EF201EB0451BDE81040B1
:1012D00058BF7047401C1CBFB2F1004F7047002838
:1012E0000CBF491C20F00100704712EB020E43EBCB
:1012F000030218BF4FF0010E4EEA4202ACF1200C7F
:10130000DCF11E0E54D943FA0CFE10EB0E0051F125
:10131000FF31CCF11E0ED5D50EF1010E12FA0EFEE4
:10132000404141EB010101EB445C5FEA5C5C10D998
:1013300010EBDE7001EB045138BFBEF1004FBDE889
:10134000104018BF704700280CBF491C20F0010056
:10135000704730D24FEAD42C11F5001124F4006408
:101360001BD0B1FA81F20B3AA41AA41ED2F12003C9
:10137000914030FA03F31943904001EBCC71002CFB
:1013800001EB0451BDE81040A8BF704701F1C04116
:101390004FF0000001F000417047B0FA80F310FAFE
:1013A00003F100D110BDE41A173C4805C90AE4E76F
:1013B00001EB045110BD491001EB0451BDE8104090
:1013C0004FEA300002E04FF0000170474A0008BFCA
:1013D0000042F8D0B2F5001F28BF704701F000416D
:1013E0004FF0000070479EEA445F07D011EA5E0F9D
:1013F000BDE8104004BF002100207047BDE8104048
:1014000070B5FFF7C5FE00BF40DFF63E83F0004138
:10141000104670470000E0FF10B5FEF75BFF4FF08D
:101420000001016010BD0000481400000000001021
:101430000C00000008010000541400000C00001013
:10144000740200002401000080C090D00000000061
:0414500000E1F505BD
:040000050000016D89
:00000001FF
