:020000040000FA
:1000000070020010690100006D0100006F01000026
:100010007101000073010000750100000000000084
:100020000000000000000000000000007701000058
:1000300079010000000000007B010000C105000004
:100040007F0100007F0100007F0100007F010000B0
:100050007F0100007F0100007F0100007F010000A0
:100060007F0100007F0100007F0100007F01000090
:100070007F0100007F0100007F0100007F01000080
:100080007F0100007F0100007F0100007F01000070
:100090007F0100007F0100007F0100007F01000060
:1000A0007F0100007F0100007F0100007F01000050
:1000B0007F0100007F0100007F0100007F01000040
:1000C0007F0100007F0100007F01000000F002F8C6
:1000D00000F03AF80AA090E8000C82448344AAF1A8
:1000E0000107DA4501D100F02FF8AFF2090EBAE8A6
:1000F0000F0013F0010F18BFFB1A43F0010318475C
:100100003405000054050000103A24BF78C878C1B7
:10011000FAD8520724BF30C830C144BF04680C600D
:10012000704700000023002400250026103A28BF55
:1001300078C1FBD8520728BF30C148BF0B60704759
:100140001FB51FBD10B510BD00F04EFA1146FFF7E8
:10015000F7FF00F028F800F0B2F803B4FFF7F2FF61
:1001600003BC00F0B9F8000008480047FEE7FEE7CE
:10017000FEE7FEE7FEE7FEE7FEE7FEE7FEE7FEE757
:1001800003480449024A044B70470000CD000000B8
:1001900070000010700200107000001010B54020B8
:1001A00000F062F810BD00F044F90121402000F099
:1001B0002DF800F0DFF9AFF21B0000F0EAF900F0D3
:1001C000DEF900BFFEE7000030B50A46A0281CDAC1
:1001D000032A1AD8431100F01F005C06230E1028D2
:1001E00004DB5C1CE3B2A0F11004E0B24406200E74
:1001F0002F4C04EB8301032585400C68AC430C6055
:1002000002FA00F50C682C430C6030BD30B50A468C
:10021000A02811DA431100F01F00264C04EB431113
:100220002AB10C68012585402C430C6004E00C6861
:1002300001258540AC430C6030BD30B50A46A0288E
:1002400011DA431100F01F001A4C04EB43112AB1DC
:100250008C69012585402C438C6104E0CC69012523
:1002600085402C43CC6130BD10B5A0280ADA42117C
:1002700000F01F000F4B03EB42114B690124844037
:1002800063404B6110BD30B501460020A0290EDA55
:100290004A1101F01F01074C04EB42135C69012570
:1002A0008D402C400CB1012400E00024204630BDDC
:1002B00000C0024000C0092070477047704710B569
:1002C0000446AFF300802046BDE81040FFF745BF6D
:1002D000004870470C00001001491820ABBEFEE733
:1002E000260002007047000000000000000000002F
:1002F000000000000000000000000000FFFFFFFF02
:1003000095480068C0F30160032860D192488430AA
:10031000006800F0030030B1012820D0022839D055
:10032000032853D100E000BF8B480068C0F30E00E3
:10033000401C40008949484387498839D1F88810D2
:10034000C1F30741491CB0FBF1F183487C300068E0
:10035000C0B2401CB1FBF0F08149086036E07E4835
:100360000068C0F30E00401C40007E4948437A49B3
:100370008839D1F88810C1F30741491CB0FBF1F16D
:1003800075487C300068C0B2401CB1FBF0F0744985
:1003900008601BE070480068C0F30E00401C40007D
:1003A0004FF4FA4148436C498839D1F88810C1F3B9
:1003B0000741491CB0FBF1F167487C300068C0B2CE
:1003C000401CB1FBF0F06649086000BF30E06248B5
:1003D0008430006800F0030030B1012810D00228FA
:1003E00019D0032823D100E000BF5B487C300068AF
:1003F000C0B2401C5949B1FBF0F05949086016E001
:1004000055487C300068C0B2401C5649B1FBF0F042
:10041000534908600BE050487C300068C0B2401C73
:100420004FF4FA41B1FBF0F04D49086000BF00BF46
:10043000704720204C49086000BF4B48006800F01E
:1004400040000028F9D0032043497C310860012096
:1004500041498839C1F80C0144483F49091F0860E7
:10046000AA203D49091D08605520086001203A492D
:1004700008390860AA203849091D08605520364906
:100480008839C1F88C0000BF3348006800F08060F4
:100490000028F9D00320304908390860AA202E49E5
:1004A0008839C1F88C0055202B49091D086000BF10
:1004B0002948006800F040700028F9D02320264920
:1004C0001C310860AA2024498839C1F8AC005520A5
:1004D00021492431086001201F4918310860AA20F1
:1004E0001D492431086055201B498839C1F8AC00EA
:1004F00000BF19482030006800F480600028F8D060
:100500000320154918310860AA2013498839C1F819
:10051000AC00552010492431086000BF0E4820303F
:10052000006800F440700028F8D000200E4908311F
:10053000086009498839C1F8AC010D4806493C31C9
:100540000860002008492831086043F23A00024957
:10055000883908607047000088C00F4000093D00DE
:1005600000000010001BB700A0C10F406300050091
:10057000DE87280419484FF0E021486170470720C2
:100580004FF0E0210861704700204FF0E021086142
:1005900070471349086070471248006870474FF071
:1005A000E02189690D4A511A6422B1FBF2F10D4A2A
:1005B000126802EB4203C3EBC21201EBC2007047A8
:1005C00010B508480068401C0649086004480068E7
:1005D00010B103480068804710BD00009F860100ED
:1005E00008000010040000107546FFF771FEAE46CB
:1005F00005006946534620F00700854618B020B52F
:10060000FFF7BEFDBDE820404FF000064FF00007A9
:100610004FF000084FF0000B21F00701AC46ACE8AA
:10062000C009ACE8C009ACE8C009ACE8C0098D4617
:100630007047000054060000000000100C0000008D
:1006400008010000600600000C00001064020000B9
:100650002401000000E1F50500000000000000009A
:04000005000001698D
:00000001FF
