:020000040000FA
:1000000010090010690100006D0100006F0100007F
:100010007101000073010000750100000000000084
:100020000000000000000000000000007701000058
:1000300079010000000000007B0100007D0100004C
:100040007F0100007F0100007F0100007F010000B0
:100050007F0100007F0100007F0100007F010000A0
:100060007F0100007F0100007F0100007F01000090
:100070007F0100007F0100007F0100007F01000080
:100080007F0100007F0100007F0100007F01000070
:100090007F0100007F0100007F0100007F01000060
:1000A0007F0100007F0100007F0100007F01000050
:1000B0007F0100007F0100007F0100007F01000040
:1000C0007F0100007F0100007F01000000F002F8C6
:1000D00000F03AF80AA090E8000C82448344AAF1A8
:1000E0000107DA4501D100F02FF8AFF2090EBAE8A6
:1000F0000F0013F0010F18BFFB1A43F0010318475C
:10010000B4270000D4270000103A24BF78C878C173
:10011000FAD8520724BF30C830C144BF04680C600D
:10012000704700000023002400250026103A28BF55
:1001300078C1FBD8520728BF30C148BF0B60704759
:100140001FB51FBD10B510BD02F0D2F81146FFF764
:10015000F7FF01F073FD00F0C0F803B4FFF7F2FF02
:1001600003BC02F0EBF8000008480047FEE7FEE79A
:10017000FEE7FEE7FEE7FEE7FEE7FEE7FEE7FEE757
:1001800003480449024A044B70470000CD000000B8
:1001900010070010100900101007001030B50A46B3
:1001A000A0281CDA032A1AD8431100F01F005C06AD
:1001B000230E102804DB5C1CE3B2A0F11004E0B2B3
:1001C0004406200E2F4C04EB8301032585400C6868
:1001D000AC430C6002FA00F50C682C430C6030BD97
:1001E00030B50A46A02811DA431100F01F00264C52
:1001F00004EB43112AB10C68012585402C430C60A7
:1002000004E00C6801258540AC430C6030BD30B57E
:100210000A46A02811DA431100F01F001A4C04EB23
:1002200043112AB18C69012585402C438C6104E07F
:10023000CC69012585402C43CC6130BD10B5A02888
:100240000ADA421100F01F000F4B03EB42114B6919
:100250000124844063404B6110BD30B5014600204D
:10026000A0290EDA4A1101F01F01074C04EB4213DA
:100270005C6901258D402C400CB1012400E0002474
:10028000204630BD00C0024000C0092040EA010302
:10029000024630B59B0710D14FF0013400E008C290
:1002A00008C91D1B9D4315EAC41FF8D013F0FF01B8
:1002B00002F8011B0DD01B0AF8E711F8013B002BD7
:1002C00002F8013B05D011F8013B002B02F8013B7D
:1002D000F3D130BD70477047704710B50446AFF397
:1002E00000802046BDE81040FFF737BF0048704748
:1002F000B00600107047000000000000FFFFFFFF85
:100300000146881EFE4A1288FE4B1B6800FB023025
:1003100070472DE9F05F06460C46174698464FF0A9
:100320000009A000F8490988B0FBF1F0F749096815
:10033000F74A1288114400EB010BA000F24909882A
:10034000B0FBF1F201FB12001FFA80FA09E05946F6
:10035000304600F0ABFF00B906E009F1010000F003
:10036000FF09B9F10A0FF2DB00BF06EB0A0527B956
:10037000286820F07040BDE8F09FC5F8008059461D
:10038000304600F0D1FF0020F5E72DE9F0470746A1
:100390000D4605F07F002D1A2E4620E0B000DA4908
:1003A0000988B0FBF1F0D9490968D94A128811448B
:1003B00000EB01094946384600F078FF00240BE0C5
:1003C00007EB8408D8F8000020F0704010B930190D
:1003D000BDE8F087601CC4B2802CF1DB8036CD48CC
:1003E00000688642DAD30020F2E72DE9FF410D468E
:1003F00017461E466C46C5480168491C009800F027
:1004000055FFC5492068884209D1C449D4F8E401A0
:10041000884204D1C249D4F8FC01884204D04FF08C
:10042000FF3004B0BDE8F0813FB9012D02D1D4F80E
:10043000E801F6E7D4F8EC01F3E7012D02D1C4F8A6
:10044000E86101E0C4F8EC61B0480168491C00981B
:1004500000F06AFF4FF0FF30E3E73EB503460021AE
:1004600005E0585C2E2800D103E0481CC1B20C29DD
:10047000F7DB00BF082901DD04203EBD002204E0B7
:10048000985C0DF80200501CC2B28A42F8DB0A46A2
:1004900004E020200DF80200501CC2B2072AF8DD4B
:1004A000481CC1B2082213E0585C30B108464C1C0D
:1004B000E1B2185C0DF8020008E005E020251046C6
:1004C000541CE2B20DF800500B2AF7DB501CC2B2EC
:1004D0000B2AE9DB002111E01DF80100612808DB8F
:1004E0001DF801007A2804DC1DF80100203858545A
:1004F00002E01DF801005854481CC1B20B29EBDB87
:100500000320BAE72DE9F35F0C468648D0F8008057
:1005100004F23220FFF7A1FF0646042E6DD05526C7
:1005200000BF4046FFF7ECFE82464FF0000941E075
:100530000AEB090104F12C0000F0B8FE4FF0000BAB
:100540002FE004F12C0000EB0B05287808B90126F8
:100550002DE02878E52820D0E87A0F281DD0002744
:1005600008E0E95D04F23220C05D814200D003E082
:10057000781CC7B20B2FF4DB00BF0B2F0DD10AEB99
:100580000900E060C4F810B0688BA98A40EA014015
:100590002062E8696061002609E00BF120001FFA83
:1005A00080FB59480088834501DA552EC9D000BF29
:1005B00009F1010952480088814501D2552EB7D072
:1005C000552E0ED100231A46414604F12C00FFF7A8
:1005D000A0FE80465448804502D8B8F1000F00D1F3
:1005E0000526552E9DD046B9009830B9688BA98A4A
:1005F00040EA01406060E86960613046BDE8FC9F08
:100600002DE9F05F81460E4615460024A2460027DC
:10061000DAE007EBC700454901EB801090F82D02A6
:1006200000286BD14FF0010A07EBC70001EB8014E3
:10063000012084F82D02494604F23220FFF726FEFD
:1006400084F82C62002020606060E061E06020613E
:100650006061A0612062A084E08484F82E0284F8A6
:1006600031024EB92146FFF74DFF28702878002847
:1006700065D00020BDE8F09F022E01D0032E5ED190
:1006800021460120FFF73EFF28702878002857D127
:10069000012084F82F02206A60604FF0000B10E008
:1006A00000231A4604F12C006168FFF732FE8046F1
:1006B0006FF07041884500D104E0C4F804800BF16C
:1006C000010BEDE700BF0E4800880BFB00F00E4A5F
:1006D0001288616900FB12100B490988B0FBF1F028
:1006E000A0846068FFF70CFEA18C0844E06104F16F
:1006F0002C00E16900F0DAFD034919E062E0000036
:100700000E000010000000100C000010140000107B
:1007100010000010080000105252614172724161D5
:10072000000055AA04000010F6FFFF0F3000001073
:1007300009886069B0FBF1F201FB1200E08438E047
:100740002878012834D10020287000231A4602217D
:1007500004F12C00FFF749FE6060FE4960680968FB
:10076000884202D9FC480068606004F12C0061688E
:10077000FFF70BFE6060606818B905202870002044
:1007800078E76FF07043012204F12C006168FFF7F5
:10079000C0FD6068000C2085A08860850020606135
:1007A0006068FFF7ADFDE0610020E084A08400E018
:1007B00000243CB1012007EBC701E84A02EB81119C
:1007C00081F82D02781CC7B2022F03DABAF1000FAC
:1007D0003FF41FAFBAF1000F01D107202870204667
:1007E00048E710B1002180F82D1270472DE9F04143
:1007F00007460E461446C4F3080008B9640A02E02E
:10080000012000EB542404F0070008B9E40802E0DA
:10081000012000EBD404D248007880B100231A46AE
:1008200001213846FFF7E1FD05460EB9254400E0F9
:100830002D1B2B46012211463846FFF7D6FDBDE899
:10084000F0812DE9F14FC448056876E02846FFF7AE
:1008500057FD804600275FE008EB0701C14800F024
:1008600025FD4FF0000B52E0BE4800EB0B04207852
:1008700010B90120BDE8F88F2078E52845D0E07A4E
:100880000F2842D0002607E0A15D0098805D8142DC
:1008900000D003E0701CC6B20B2EF5DB00BF0B2EA0
:1008A00033D1608BA18A40EA0149E520207008EB32
:1008B0000701AC4800F038FD0021AA48E269FFF7C3
:1008C00095FF00231A460221A648FFF78EFD054634
:1008D000A94505D24B4601220221A248FFF785FD1A
:1008E00012E000231A4649469E48FFF712FD824651
:1008F0000023012249469B48FFF70BFD9A48824599
:1009000001D90120B6E7D146EBE70BF1200B974860
:1009100000888345A8D37F1C9548008887429BD3D5
:1009200000231A4629468F48FFF7F3FC05468E48F8
:10093000854200D80DB901209CE787E770B586B0E5
:100940000546294601A8FFF7A1FC01A8FFF785FD90
:100950000646032E23D1002416E004EBC4007F4991
:1009600001EB801090F82D0201280BD104EBC4009C
:100970000A4602EB801000F2322101A801F078FC57
:1009800000B903E0601CC4B2022CE6DB00BF022CFD
:1009900001DA062603E001A8FFF753FF01263046DF
:1009A00006B070BD70B50446D4E90510884235D252
:1009B00094F82D02012831D1E08C60B9A08C18B9CF
:1009C0006068FFF79DFC2060A28C2068811804F10C
:1009D0002C0000F06BFCE18C04F12C00455CE08CF9
:1009E000401CE084A069401CA061E08CB0F5007F51
:1009F00015D1A08C401CA0840020E084A08C5C4910
:100A0000098888420BD10020A08400231A4604F1F3
:100A10002C006168FFF77DFC606000E01A25284625
:100A200070BD10B502210A2240F2DF73A3F2BC743C
:100A3000640244EA42140C43A0B210BD30B50D214B
:100A400028221E23CC0244EA42141F2505EA43054E
:100A500044EA050030BD2DE9F04104460E4694F805
:100A60002D02012874D194F83102002871D11A2E78
:100A70006FD094F8300201280CD10A21E28C501C6E
:100A8000E08404F12C0081546069401C6061002006
:100A900084F83002082E08D1E08C78B1E08C401E3A
:100AA000E0846069401E606108E0E18C481CE084DD
:100AB00004F12C0046546069401C60610D2E11D178
:100AC000E08CB0F5007F03D1012084F8300209E00A
:100AD0000A21E28C501CE08404F12C0081546069EE
:100AE000401C6061E08CB0F5007F31DB0020E084C9
:100AF00004F12C00E16900F017FCA08C401CA084DC
:100B0000A08C1B490988884235D10020A0846068E8
:100B1000A06004F12C00A168FFF737FC60606068FA
:100B200008B9BDE8F081012204F12C00D4E90131BB
:100B3000FFF7EFFB6FF07043012204F12C006168B6
:100B4000FFF7E7FB6068FFF7DBFBE061002011E0E7
:100B5000E9E014E00800001004000010300000106C
:100B600018000010B0040010F6FFFF0F0C0000107A
:100B70000E000010E084E069401CE061D3E094F8CE
:100B800031020028FAD1012084F8310207E0002167
:100B9000E28C04F12C008154E08C401CE084E08C59
:100BA000B0F5007FF3DB04F12C00E16900F0BCFB41
:100BB0000122022104F12C006368FFF716FC94F86F
:100BC0002F02D0B104F12C00E16800F06FFB04F1BA
:100BD0002C0021690D186069E969A0EB01086069C2
:100BE000E86104F12C00E16800F09EFB424601211F
:100BF00004F12C00FFF7FAFD93E7FE480068A060BF
:100C000090E0A068FFF77CFB20600020A08457E004
:100C1000A28C2068811804F12C0000F047FB002012
:100C2000E08445E0E18C04F12C000D1894F82E02CC
:100C300010B10020287074E7287810B12878E528D2
:100C400033D1002705E004F23220C05DE855781C5E
:100C5000C7B20B2FF7DB2020E872002028736873DF
:100C6000FFF7ECFEE881FFF7DCFE2882FFF7D9FEF4
:100C70006882FFF7E3FEE882FFF7D3FE2883208D2A
:100C8000A882608D68836069E861A28C2068811801
:100C900004F12C0000F048FB012084F82E02012111
:100CA00004F12C006269FFF7A1FDE08C2030E084A4
:100CB000E08CD14909888842B4DBA08C401CA08418
:100CC000A08CCE4909888842A2DB00231A4604F191
:100CD0002C00A168FFF71DFB6060C949606888426D
:100CE0001BD96FF070416068884215D104F12C0067
:100CF000A168FFF74AFB6060012204F12C00D4E9EF
:100D00000131FFF706FB6FF07043012204F12C0064
:100D10006168FFF7FEFA00E003E7606800B900E7EA
:100D20006068A0606DE700BFFBE62DE9F041054675
:100D30000027B4480068401CB0B9AE480068B1490B
:100D400008600020B0490860B0490880AD480068DC
:100D5000FFF7D6FAAE49086008460068AA4A12684A
:100D60008118AC4800F0A2FA00BFAA48A749098838
:100D70004418207830B94FF0FF30A24908600920AC
:100D8000BDE8F0812078E5281ED0E07A0F281BD03E
:100D9000002612E0082E05D12E223846791CCFB24B
:100DA000291D0A54A05D202805D0A25D3846791C73
:100DB000CFB2291D0A54701CC6B20B2EEADB0021EB
:100DC000281DC155E06928609048008820308F496F
:100DD0000880084600888849098888423BDB002053
:100DE0008A49088088480068401C8749086008468E
:100DF000006882490988884225D10020824908601C
:100E000000231A467F4801688248FFF782FA7D492D
:100E10000860084600687A49884205D94FF0FF30DB
:100E2000784908600920ABE77648006828B94FF098
:100E3000FF30744908600920A2E772480068FFF794
:100E40005FFA73490860724800686F4A1268811837
:100E5000704800F02BFA002F87D0082090E72DE98A
:100E6000F05F05460E4600276B4800686349098815
:100E70004843800A286060490988286848432860F8
:100E800000231A4601216348FFF7AFFA074662487C
:100E90000068874238D900206049087000278046E2
:100EA0005448D0F800902DE04FEA89005249098853
:100EB000B0FBF1F05A4909685A4A1288114400EB14
:100EC000010A5146534800F0F1F9002412E051485C
:100ED00000EB840BDBF8000020F0704000B97F1CB1
:100EE00008F101084C480068801C804500D103E0EF
:100EF000601CC4B2802CEADB00BF802C00DA02E068
:100F000009F18009D0E700BF3C4800887843800A97
:100F1000306039490988306848433060BDE8F09F47
:100F200030B502460B460020002105E0545CCD00A0
:100F3000AC4020444C1CE1B29942F7DB30BD2DE9B6
:100F4000F0410020364908600021324800F0AEF937
:100F5000304C2078E92820D02078EB281DD0254679
:100F6000B5F8FE014AF65521884202D00320BDE8BB
:100F7000F08104212C48FFF7D3FF29490860084677
:100F80000168244800F092F9224C2078E92804D026
:100F90002078EB2801D00320E9E7022104F10B00BF
:100FA000FFF7BEFF14490880607B144908800221C6
:100FB00004F10E00FFF7B4FF1A490880042104F180
:100FC0002C00FFF7ADFF0B490860042104F11C0061
:100FD000FFF7A6FF134909884718042104F12400EC
:100FE000FFF79EFF217C01FB00701049086004217F
:100FF0001EE00000040000100C0000100E000010A5
:10100000F6FFFF0F1C000010200000102800001049
:1010100024000010B0040010080000101800001098
:1010200014000010100000107606001000000010E0
:1010300004F12000FFF774FF11490988471A0421C1
:1010400004F12400FFF76CFF217C01FB10760D48B2
:101050000088B6FBF0F00C49086000231A46012115
:101060000A48FFF7C2F908490968884203D90020F5
:101070000749087002E0012005490870002076E762
:10108000100000100E00001008000010B004001046
:10109000180000102DE9F04104460D464FF00008FD
:1010A000D548007860B9112C09D0122C07D0182C23
:1010B00005D0192C03D0202C01D0212C00D16D0299
:1010C00000211020FFF7A3F844F0400000F0F1F9F0
:1010D000280E00F0EEF9C5F3074000F0EAF9C5F379
:1010E000072000F0E6F9E8B200F0E3F9082C03D19C
:1010F000872000F0DEF902E0952000F0DAF906E042
:101100004046411C01F0FF08FE2800DD04E000F02D
:10111000E1F90646FF28F3D000BFA6B93A2C12D158
:1011200000F0D8F900F04007402F03D10120B24968
:10113000087002E00020B049087000F0CBF900F020
:10114000C9F900F0C7F900F0C5F901211020FFF737
:101150005EF83046BDE8F0812DE9F04106460024F6
:10116000A04606E0FF2000F0A4F908F1010000F01D
:10117000FF08B8F10A0FF5DB00211020FFF747F850
:1011800000BF00210846FFF785FF0546601C84B2BA
:10119000202C02DD0120BDE8F081012DF1D10121DB
:1011A0001020FFF734F8FF2000F083F9FF2000F053
:1011B00080F90024022700BF4FF4D5710820FFF703
:1011C00069FF0546601C84B2FE2C03DD0127012067
:1011D000307001E0012DEFD100BF002400BF0021DD
:1011E0003720FFF757FF05464FF080412920FFF7D2
:1011F00051FF0546601C84B2FE2C01DD0220CAE7C7
:10120000002DECD1002400207B490870022F18D15A
:1012100000BF00213A20FFF73DFF0546601C84B265
:10122000FE2C02DD0020307001E0002DF1D100BF66
:1012300071480078012802D10220307001E00120BD
:1012400030702846A7E770B50646002500F0F3F891
:1012500000BF3046FFF780FF0446681CC5B20CB1E2
:101260000A2DF6D114B9FFF76AFE0446204670BD78
:1012700070B505460E4629462020FFF70BFF0446B1
:101280000CB1204670BDA819411E2120FFF702FFB6
:1012900004460CB12046F5E700212620FFF7FAFEB0
:1012A00004460CB12046EDE70020EBE72DE9F041C4
:1012B00005460F464FF0000839461120FFF7EAFEB9
:1012C000064616B13046BDE8F08100211020FEF739
:1012D0009EFF4FF000080DE04046411C1FFA81F8C8
:1012E0004FF6FE71884205DD01211020FEF78FFFC9
:1012F0000120E8E700F0EEF8FE28EDD1002404E03C
:1013000000F0E8F82855601C84B2B4F5007FF7DBE4
:1013100000F0E0F800F0DEF800F0DCF80121102029
:10132000FEF775FF0020CEE72DE9F041064688461E
:10133000002741461820FFF7ADFE054615B12846A7
:10134000BDE8F08100211020FEF761FFFE2000F0D3
:10135000B0F8002404E0305D00F0ABF8601C84B20B
:10136000B4F5007FF7DBFF2000F0A3F8FF2000F0CA
:10137000A0F800F0AFF8054605F01F00052805D0DD
:1013800001211020FEF743FF2846D9E70CE038463C
:10139000791C8FB24FF6FE71884205DD01211020C5
:1013A000FEF735FF0120CBE700F094F80028EED0DF
:1013B00001211020FEF72BFFFF2000F07AF800211A
:1013C0001020FEF724FF0CE03846791C8FB24FF650
:1013D000FE71884205DD01211020FEF718FF012073
:1013E000AEE700F077F80028EED001211020FEF7DC
:1013F0000EFF0020A4E700002A0000103E4A1268F9
:10140000C2F3014131B1012908D0022909D00329D1
:101410000FD10AE0394A126890080AE0374A10688A
:1014200007E0364A1268500803E0344A1268D008D0
:1014300000BF00BF704710B503210F20FEF7AEFEBE
:1014400003211220FEF7AAFE03211120FEF7A6FEBB
:1014500000211020FEF7A2FE01210F20FEF7C0FEA2
:1014600001211220FEF7BCFE00211120FEF7B8FE7C
:1014700001211020FEF7B4FE01211020FEF7C7FE67
:101480001D48E438006840F480701D49C1F8C4006C
:10149000FFF7B4FF1B49B0FBF1F01B49C8603020D7
:1014A0000860084640681949087017488068087045
:1014B00010BD1549886000BF13494968C1F3C011C8
:1014C0000029F9D010494968104A11700E498968FD
:1014D00011707047FF210C4A916000BF0A494968AA
:1014E000C1F3C0110029F9D007494968074A1170B2
:1014F00005498968C8B27047A8C10F402C00001088
:1015000000C00F4000093D00000002402B00001009
:1015100095480068C0F30160032860D19248843088
:10152000006800F0030030B1012820D0022839D033
:10153000032853D100E000BF8B480068C0F30E00C1
:10154000401C40008949484387498839D1F88810B0
:10155000C1F30741491CB0FBF1F183487C300068BE
:10156000C0B2401CB1FBF0F08149086036E07E4813
:101570000068C0F30E00401C40007E4948437A4991
:101580008839D1F88810C1F30741491CB0FBF1F14B
:1015900075487C300068C0B2401CB1FBF0F0744963
:1015A00008601BE070480068C0F30E00401C40005B
:1015B0004FF4FA4148436C498839D1F88810C1F397
:1015C0000741491CB0FBF1F167487C300068C0B2AC
:1015D000401CB1FBF0F06649086000BF30E0624893
:1015E0008430006800F0030030B1012810D00228D8
:1015F00019D0032823D100E000BF5B487C3000688D
:10160000C0B2401C5949B1FBF0F05949086016E0DE
:1016100055487C300068C0B2401C5649B1FBF0F020
:10162000534908600BE050487C300068C0B2401C51
:101630004FF4FA41B1FBF0F04D49086000BF00BF24
:10164000704720204C49086000BF4B48006800F0FC
:1016500040000028F9D0032043497C310860012074
:1016600041498839C1F80C0144483F49091F0860C5
:10167000AA203D49091D08605520086001203A490B
:1016800008390860AA203849091D086055203649E4
:101690008839C1F88C0000BF3348006800F08060D2
:1016A0000028F9D00320304908390860AA202E49C3
:1016B0008839C1F88C0055202B49091D086000BFEE
:1016C0002948006800F040700028F9D023202649FE
:1016D0001C310860AA2024498839C1F8AC00552083
:1016E00021492431086001201F4918310860AA20CF
:1016F0001D492431086055201B498839C1F8AC00C8
:1017000000BF19482030006800F480600028F8D03D
:101710000320154918310860AA2013498839C1F8F7
:10172000AC00552010492431086000BF0E4820301D
:10173000006800F440700028F8D000200E490831FD
:10174000086009498839C1F8AC010D4806493C31A7
:101750000860002008492831086043F23A00024935
:10176000883908607047000088C00F4000093D00BC
:101770002C000010001BB700A0C10F406300050043
:10178000DE87280470B50B46042835D2F54D2D6848
:10179000C5F3811434B1012C08D0022C09D0032CDC
:1017A0000FD10AE0F04D2D68A9080AE0EE4D296836
:1017B00007E0ED4D2D68690803E0EB4D2D68E90861
:1017C00000BF00BF1D01B1FBF5F2E84E06EBC006FD
:1017D00076683270150AE54E06EBC00676683571FC
:1017E000E24D05EBC0056D682D7B25F08005DF4ED1
:1017F00006EBC0067668357370BD70B504460D46BD
:10180000042C2FD2D94A02EBC4029178D74A12F89D
:101810003400FEF7C3FCD54A02EBC4029178D34AE8
:1018200002EBC4025078FEF7B9FCCE48E4380068F9
:10183000CE4901EBC401CA78012191400843CC494B
:10184000C1F8C4000720C94901EBC4014968087206
:101850008320C64901EBC401496808732946204624
:10186000FFF790FF70BD0146002004290ED200BF93
:10187000BE4A02EBC1025268127D02F00102002A48
:10188000F6D0BA4A02EBC1025268107870470428B9
:101890000ED200BFB54A02EBC0025268127D02F0C0
:1018A0002002002AF6D0B14A02EBC0025268117041
:1018B000704710B504460B4604E013F8011B2046A0
:1018C000FFF7E5FF18780028F7D110BD70B5064680
:1018D0000D46002318E03046FFF7C5FF04462146B9
:1018E0003046FFF7D4FF0D2C01D00A2C03D15BB199
:1018F0000020E85409E0082C03D113B1581EC3B2EC
:1019000002E0EC54581CC3B2E5E700BF184670BDB6
:10191000FEB507460E4614461D460023022E15D17D
:1019200011E0681E012101FA00F0204008B10120F9
:1019300000E00020034603F13000C1B23846FFF753
:10194000A6FF681EC5B2002DEBD136E024B93021C8
:101950003846FFF79CFF30E0002314E04CB1B4FBA5
:10196000F6F006FB1040C0B20DF80300B4FBF6F42D
:1019700007E0FF2D01D00A2D00D906E000200DF868
:101980000300581CC3B2AB42E8DB00BF13E0581E93
:101990001DF80000092804DD581E1DF8000037302E
:1019A00003E0581E1DF800003030C1B23846FFF782
:1019B0006EFF581EC3B2002BE9D1FEBD2DE9F041E8
:1019C00006460C46204600F0A1FD0546FF232A46A8
:1019D0000A213046FFF79CFF2E213046FFF757FFC4
:1019E000284600F0B3FD0746214600F08FFE04466E
:1019F0006049204600F0BEFD074600F087FD054621
:101A0000FF232A460A213046FFF782FFBDE8F08116
:101A10000FB42DE9FF5F10A803900F9D05E12C780E
:101A2000252C72D16D1C2C78302C11DB392C0FDC5D
:101A3000002608E0A4F1300006EB860100EB41002F
:101A4000C6B26D1C2C78302C03DB392CF2DD00E0A3
:101A5000FF26582C74D010DC442C42D006DC252CF8
:101A60006FD0422C6ED0432C22D117E0462C6AD086
:101A7000532C69D0552CF7D155E0662C7CD006DC70
:101A8000622C7AD0632C0AD0642CEDD111E0732C37
:101A900074D0752C3AD0782CE6D156E000BF03986C
:101AA00010F8041BCCB2039021460E98FFF7EFFE0E
:101AB000B5E0039830F8041B0FFA81F90390B9F1EF
:101AC000000F07DAC9F100000FFA80F92D210E98F6
:101AD000FFF7DDFE33464A460A210E98FFF718FF4E
:101AE0009DE0039850F804AB0390BAF1000F05DABB
:101AF000CAF1000A2D210E98FFF7C9FE334652465F
:101B00000A210E98FFF704FF89E089E0039830F876
:101B1000041B039088B2029033460A21029A0E9861
:101B2000FFF7F6FE7BE00398006801900398001D24
:101B3000039033460A21019A0E98FFF7E9FE6EE002
:101B40001DE067E038E047E05AE0039830F8041BF6
:101B5000039088B2029033461021029A0E98FFF744
:101B6000D7FE5CE0A8C10F402C0000100C2800003C
:101B700000C00F40002474492FE00DE041E00398BD
:101B8000006801900398001D039033461021019ACC
:101B90000E98FFF7BDFE42E0039830F8041B039057
:101BA00088B20290FF2E00D1102633460221029AFD
:101BB0000E98FFF7ADFE32E003980068019003989D
:101BC000001D0390FF2E00D1102633460221019AFA
:101BD0000E98FFF79DFE22E000BF0398C01D20F085
:101BE00007000390D0E9007808300390384641465A
:101BF00000F0AAFB014600900E98FFF7DFFE0EE012
:101C000000BF039850F804BB039059460E98FFF7A5
:101C100050FE04E025210E98FFF739FE00BF03E0D7
:101C200021460E98FFF733FE6D1C287800287FF4BC
:101C3000F6AE0390BDE8FF1F5DF814FB8EB0FFF712
:101C400000FD4FF416510020FFF7D7FD0CA8FFF759
:101C5000FAFA0D909DF8340000281BD09DF834004E
:101C6000012804D1A4A10020FFF723FE10E09DF875
:101C70003400022804D1A7A10020FFF71AFE07E0D4
:101C80009DF83400032803D1AAA10020FFF711FE1C
:101C900000BFFEE7AEA10020FFF70BFE2BE1B1A1D4
:101CA0000020FFF706FE0020FFF7DDFDB5A10020B4
:101CB000FFF7FFFDBCA10020FFF7FBFDBEA1002048
:101CC000FFF7F7FDC1A10020FFF7F3FDC3A100203E
:101CD000FFF7EFFDC6A10020FFF7EBFDC9A1002033
:101CE000FFF7E7FDCDA10020FFF7E3FDD3A1002022
:101CF000FFF7DFFD00BF0020FFF7B5FD0446312CE4
:101D0000F9DB362CF7DC21460020FFF7C0FDD3A11C
:101D10000020FFF7CEFDA4F1310006282DD2DFE828
:101D200000F0032D63A8C6DACEA10020FFF7C1FDA5
:101D300009A90020FFF7CAFD0DAA002109A8FEF796
:101D40005FFC064626B9D5A10020FFF7B2FD14E0DE
:101D5000D8A10020FFF7ADFD0AE03046FEF722FED5
:101D600005461A2D00D104E029460020FFF78FFD1B
:101D7000F3E700BF3046FEF734FDBBE0B9A1002019
:101D8000FFF797FD09A90020FFF7A0FD0DAA02218A
:101D900009A8FEF735FC064626B9C0A10020FFF7CA
:101DA00088FD20E0C7A10020FFF783FD12E000209E
:101DB000FFF759FD05463E2D04D11A213046FEF7A6
:101DC0004AFE08E029460020FFF761FD294630461B
:101DD000FEF741FEEBE700BFC2A10020FFF769FD5F
:101DE0003046FEF7FEFC85E0C8A10020FFF761FD4C
:101DF00009A90020FFF76AFD0DAA002109A8FEF736
:101E0000FFFB064626B9D0A10020FFF752FD2FE0C8
:101E1000D5490020FFF74DFD06A90020FFF756FD2C
:101E20000DAA022106A8FEF7EBFB074627B9CFA1B2
:101E30000020FFF73EFD18E0D5A10020FFF739FD97
:101E40000AE03046FEF7AEFD054629463846FEF765
:101E500002FE1A2D00D100E0F3E700BFD1A100205F
:101E6000FFF727FD3846FEF7BCFC3046FEF7B9FC0D
:101E700040E0D1490020FFF71CFD09A90020FFF731
:101E800025FDCEA10020FFF714FD09A8FEF756FDA1
:101E90000D909DF83400062804D1CDA10020FFF755
:101EA00008FD03E0D3A10020FFF703FD22E00FE0CF
:101EB00002A8FEF73AFF0D909DF83400092806D0DD
:101EC00003AAD2A10020029BFFF7A2FD00E000E0E0
:101ED000EEE700BF0EE0D1A10020FFF7EAFC694663
:101EE00001A8FEF7BCFFD7A10020DDE90032FFF713
:101EF0008FFD00BF00BFD2E60A0D2053442063616E
:101F00007264206E6F742064657465637465642EFA
:101F10002E0000000A0D204361726420496E69742E
:101F200069616C697A6174696F6E206661696C655C
:101F3000642E2E000A0D20496E76616C696420467D
:101F400061742066696C6573797374656D00000057
:101F50000A0D5344204361726420446574656374C0
:101F6000656421000A0D0A0D507265737320616E5D
:101F700079206B657920746F20636F6E74696E755C
:101F8000650000000A0D0A0D2D2D2D2D2D2D466901
:101F90006C65206F7074696F6E732D2D2D2D2D2D36
:101FA0002D2D2D0A0D000000313A2052656164206C
:101FB00046696C65200A0D00323A205772697465D3
:101FC0002046696C65200A0D00000000333A204667
:101FD000696C6520436F7079200A0D00343A204403
:101FE000656C6574652046696C65200A0D0000000B
:101FF000353A204765742046696C65204C697374D6
:10200000200A0D00363A204D656D6F7279205374A9
:102010006174696373200A0D000000002D2D2D2DC1
:102020002D2D2D2D2D2D2D2D2D2D2D2D2D2D2D2DE0
:102030002D2D2D2D2D2D2D200A0D000043686F6FA5
:102040007365206F6E65206F6620746865206F7001
:1020500074696F6E733A200A0D0000000A0D0A0DB4
:10206000000000000A0D456E7465722046696C65BB
:10207000206E616D65206D6178203131206368616B
:10208000727320696E636C7564696E672066696C33
:102090006520747970653A20000000000A0D4669D9
:1020A0006C65204F70656E696E67204661696C656E
:1020B0006400000046696C6520436F6E74656E7441
:1020C0003A2000000A0D456E7465722074657874BC
:1020D00020656E64696E67207769746820273E27E3
:1020E000203A00000A0D44617461207361766564D2
:1020F00020746F2066696C652C20636C6F73696E49
:1021000067207468652066696C652E000A0D456E4F
:1021100074657220736F757263652046696C652003
:102120006E616D65206D6178203131206368617268
:102130007320696E636C7564696E672066696C658F
:1021400020747970653A20000A0D536F75726365CB
:102150002046696C65204F70656E696E6720466128
:10216000696C656400000000702800000A0D446579
:102170007374696E6174696F6E2046696C65204F77
:1021800070656E696E67204661696C656400000069
:102190000A0D436F7079696E6720746865206669FF
:1021A0006C652E000A0D446F6E6520436F7079696F
:1021B0006E672E2E000000002C2800000A0D4465DA
:1021C0006C6574696E672046696C653A2000000092
:1021D0000A0D46696C65206973206F70656E206317
:1021E000616E6E6F742062652064656C65746564F1
:1021F000000000000A0D446F6E65212046696C6581
:102200002044656C65746564000000000A0D257348
:102210002020202555627974657300000A0D4D65F4
:102220006D6F7279205374617469637320697320D0
:102230006265696E672063616C63756C6174656467
:102240002E2E00000A0D546F74616C206D656D6F49
:1022500072793A25556279746573202046726565F6
:10226000206D656D6F72793A2555627974657300DA
:102270004FF0013C50F8042B51F8043B9A4221D115
:10228000A2EB0C03934313EACC1317D150F8042BA1
:1022900051F8043B9A4215D1A2EB0C03934313EA85
:1022A000CC130BD150F8042B51F8043B9A4209D1BE
:1022B000A2EB0C03934313EACC13DBD04FF00000E6
:1022C000704700BFD01A01BAB1FA81F101F01801CC
:1022D00022FA01F0CB40C1F12001DBB2C0B2C01A3A
:1022E0002CFA01F3D11A914311EAC311E6D17047D8
:1022F0007546FDF7FBFFAE4605006946534620F0E4
:102300000700854618B020B5FDF73AFFBDE820402C
:102310004FF000064FF000074FF000084FF0000BA1
:1023200021F00701AC46ACE8C009ACE8C009ACE854
:10233000C009ACE8C0098D4670470000014918206B
:10234000ABBEFEE72600020021F00042A2F160527F
:10235000B2F5801F01F0004328BFD2F17F6C0BD98A
:102360005FEA001C43EAC20242EB507018BF70479C
:1023700028BF20F001007047B2F5801FBCBF18468F
:1023800070474FEA410C1CF5001F02D2084600F0CE
:10239000B8B970B500F009F800000089FFF7F6BF82
:1023A0004FF00040A0F5800070470EF1020E2EF0B5
:1023B000030E5EF8046B364205D4012A43EB030595
:1023C00015F5001F12D8012841EB010C1CF5001F68
:1023D0000CD80ED14FEAD17C15F5001F0CEB4C0C3C
:1023E0000CF1020C08BF4CEBD37C04E04FF0080C5E
:1023F00001E04FEAD37C0CEB4C0526FA05F606F01B
:102400000706B6F1040C06D20EEB860CBDE8704050
:102410004CF0010C6047DFE80CF0090B02024FF0B2
:1024200000414FF00000A1F5002170BD1946104693
:10243000012851EB010418BFD4F5001484BF00201B
:1024400001F0004170BD000090EA010F48BF81F02B
:10245000004100F16C81421A3CBF801A89184FEA92
:10246000D0524FF07F4C1CEA410FA2EBD15318BF62
:102470009CEA026F00F03B804FF0004C4CEA0020D9
:102480004CEA012121FA03FC10EB0C0C1ED202F1E4
:10249000FF325FEA1C2040EBC25038BF70471CF08F
:1024A0007F0F4FEA400C18BFBCF17F4F38BF704719
:1024B000C3F12003994008BF20F00100BCF17F4F19
:1024C00038BF7047A0F1C04000F01BB94FEA3C0094
:1024D000000A40EBC25028BF1CF0FF0F4FEA400C2F
:1024E000E6D018BFBCF17F4F38BF7047EAE79CEADF
:1024F000026F05D010EA5C0F08BF00F00040704783
:1025000010B500F0B8F800BF64FBBE3EC10DD1F1BC
:102510009E0206DB4FEA002343F0004323FA02F059
:102520007047004207D54FEA4001B1F1FE4F02D299
:102530004FF00000704710B500F09DF849922480DC
:10254000002070476FEA200070470000B0FA80F367
:1025500010FA03F2C3F19D030AD0D90501EB122052
:10256000530638BF704700F1010008BF20F001009A
:10257000704700004FF47F0C1CEAD0121EBF1CEA0B
:10258000D11392EA0C0F93EA0C0F00F0478090EA07
:10259000010F48BF42F480724FF0004C4CEA00201B
:1025A0004CEA012102EB0302A0FB0113A2F5000299
:1025B000002918BF43F001035B0028BF4FEA330333
:1025C00042EB22425FEA132C4CEBC2502EBFBCEB15
:1025D000436FB2F57C0F70474FEA036CBCF1004FBC
:1025E00008BF20F00100B2F57C0F38BF70470BD553
:1025F00082F0FF0212F5803FC8BF704700F1C04073
:10260000D8BF00F00040704700F5000C5FEA4C0CAA
:1026100048BF7047B0F1C04000F073B890EA010FB6
:102620000CEAD11348BF42F48072624538BF63455B
:1026300004D280EA010000F00040704710B500F0BD
:102640001AF800BF8900013E00F007B800F009B891
:102650005FEA410C5FEA1C6C08D080EA010000F0E0
:1026600050B85FEA400C5FEA1C6CF6D14FF00040B6
:10267000A0F5800070470EF1020E2EF0030E5EF8FA
:10268000044B244204D44FEA4102B2F17F4F11D8E7
:102690004FEA4003B3F17F4F0CD80ED14FEAD07C04
:1026A000B2F17F4F0CEB4C0C0CF1020C08BF4CEB61
:1026B000D17C04E04FF0080C01E04FEAD17C0CEB38
:1026C0004C0324FA03F404F00704B4F1040C06D21A
:1026D0000EEB840CBDE810404CF0010C6047DFE8C5
:1026E0000CF0070802024FF00040A0F5800010BD7A
:1026F0000846420018BFD2F1807288BF00F0004047
:1027000010BDFF2141EAD050C005704780F0004065
:1027100090EA010F7FF59FAE81F0004100F007B80D
:1027200090EA010F48BF81F000413FF594AE421A94
:1027300004D882F00042A0EB020011444FEAD052CC
:102740004FF07F4C1CEA410FA2EBD15318BF9CEA1B
:10275000026F4AD04FF0004C4CEA00204CEA0121B5
:1027600021FA03FCB0EB0C0C0FD412F0FE0F36D0A4
:102770005FEA4C001DD5001240EBC25038BF7047D5
:102780001CF03F0F18BF70470BE0A2F101025FEA97
:102790001C2040EBC25038BF70471CF07F0F18BFA1
:1027A0007047C3F12003994014BF401E20F0010080
:1027B000704780084FEA122308BF7047B0FA80FCC8
:1027C000A2EB0C02CCF1280C60FA0CF093EA122F69
:1027D00004BF00EBC25070474FEAC3707047130A42
:1027E0005FEADC1008BF7047F6E79CEA026F04D08E
:1027F00010EA5C0F08BF0020704710B5FFF73BFFE1
:1028000040DFF63E81F00040704700000203010304
:1028100000C0004040410204000001400A0B0118C2
:10282000008009400001021900C009400A0D456EF0
:102830007465722046696C65206E616D6520746FE9
:102840002062652064656C65746564206D61782024
:10285000313120636861727320696E636C756469DD
:102860006E672066696C6520747970653A20000097
:102870000A0D456E7465722064657374696E6174C7
:10288000696F6E2046696C65206E616D65206D61B3
:102890007820313120636861727320696E636C75D2
:1028A00064696E672066696C6520747970653A208A
:1028B00000000000D42800000000001030000000DC
:1028C000080100000429000030000010E0080000AA
:1028D00024010000000000000000000000000000D3
:1028E00000000000000000000000000000000000E8
:1028F000FFFFFFFF000000000000000000000000DC
:0429000000E1F505F8
:04000005000001698D
:00000001FF
