:020000040000FA
:1000000068020010690100006D0100006F0100002E
:100010007101000073010000750100000000000084
:100020000000000000000000000000007701000058
:1000300079010000000000007B010000B701000012
:100040007F0100007F0100007F0100007F010000B0
:100050007F0100007F0100007F0100007F010000A0
:100060007F0100007F0100007F0100007F01000090
:100070007F0100007F0100007F0100007F01000080
:100080007F0100007F0100007F0100007F01000070
:100090007F0100007F0100007F0100007F01000060
:1000A0007F0100007F0100007F0100007F01000050
:1000B0007F0100007F0100007F0100007F01000040
:1000C0007F0100007F0100007F01000000F002F8C6
:1000D00000F03AF80AA090E8000C82448344AAF1A8
:1000E0000107DA4501D100F02FF8AFF2090EBAE8A6
:1000F0000F0013F0010F18BFFB1A43F0010318475C
:100100004801000068010000103A24BF78C878C197
:10011000FAD8520724BF30C830C144BF04680C600D
:10012000704700000023002400250026103A28BF55
:1001300078C1FBD8520728BF30C148BF0B60704759
:100140001FB51FBD10B510BD00F043F81146FFF7F5
:10015000F7FF00F023F800F061F803B4FFF7F2FFB7
:1001600003BC00F069F8000008480047FEE7FEE71E
:10017000FEE7FEE7FEE7FEE7FEE7FEE7FEE7FEE757
:1001800003480449024A044B70470000CD000000B8
:1001900068000010680200106800001000F049F9C3
:1001A00008484FF0E0214861072008610120064916
:1001B000086400BFFEE70448406D80F0010002497A
:1001C000486570479F86010000C00920704770474E
:1001D0007047754600F02CF8AE4605006946534658
:1001E00020F00700854618B020B5FFF7C9FFBDE82D
:1001F00020404FF000064FF000074FF000084FF08E
:10020000000B21F00701AC46ACE8C009ACE8C0091E
:10021000ACE8C009ACE8C0098D46704710B504468B
:10022000AFF300802046BDE81040FFF796BF000006
:10023000004870470400001001491820ABBEFEE7DB
:100240002600020070470000740500000000001046
:100250000400000008010000780500000400001000
:100260006402000024010000000000000000000003
:10027000000000000000000000000000000000007E
:10028000000000000000000000000000000000006E
:10029000000000000000000000000000000000005E
:1002A000000000000000000000000000000000004E
:1002B000000000000000000000000000000000003E
:1002C000000000000000000000000000000000002E
:1002D000000000000000000000000000000000001E
:1002E000000000000000000000000000000000000E
:1002F000000000000000000000000000FFFFFFFF02
:1003000095480068C0F30160032860D192488430AA
:10031000006800F0030030B1012820D0022839D055
:10032000032853D100E000BF8B480068C0F30E00E3
:10033000401C40008949484387498839D1F88810D2
:10034000C1F30741491CB0FBF1F183487C300068E0
:10035000C0B2401CB1FBF0F08149086036E07E4835
:100360000068C0F30E00401C40007E4948437A49B3
:100370008839D1F88810C1F30741491CB0FBF1F16D
:1003800075487C300068C0B2401CB1FBF0F0744985
:1003900008601BE070480068C0F30E00401C40007D
:1003A0004FF4FA4148436C498839D1F88810C1F3B9
:1003B0000741491CB0FBF1F167487C300068C0B2CE
:1003C000401CB1FBF0F06649086000BF30E06248B5
:1003D0008430006800F0030030B1012810D00228FA
:1003E00019D0032823D100E000BF5B487C300068AF
:1003F000C0B2401C5949B1FBF0F05949086016E001
:1004000055487C300068C0B2401C5649B1FBF0F042
:10041000534908600BE050487C300068C0B2401C73
:100420004FF4FA41B1FBF0F04D49086000BF00BF46
:10043000704720204C49086000BF4B48006800F01E
:1004400040000028F9D0032043497C310860012096
:1004500041498839C1F80C0144483F49091F0860E7
:10046000AA203D49091D08605520086001203A492D
:1004700008390860AA203849091D08605520364906
:100480008839C1F88C0000BF3348006800F08060F4
:100490000028F9D00320304908390860AA202E49E5
:1004A0008839C1F88C0055202B49091D086000BF10
:1004B0002948006800F040700028F9D02320264920
:1004C0001C310860AA2024498839C1F8AC005520A5
:1004D00021492431086001201F4918310860AA20F1
:1004E0001D492431086055201B498839C1F8AC00EA
:1004F00000BF19482030006800F480600028F8D060
:100500000320154918310860AA2013498839C1F819
:10051000AC00552010492431086000BF0E4820303F
:10052000006800F440700028F8D000200E4908311F
:10053000086009498839C1F8AC010D4806493C31C9
:100540000860002008492831086043F23A00024957
:10055000883908607047000088C00F4000093D00DE
:1005600000000010001BB700A0C10F406300050091
:08057000DE87280400E1F50517
:04000005000001698D
:00000001FF
