:020000040000FA
:10000000880200106D010000710100007301000002
:100010007501000077010000790100000000000078
:100020000000000000000000000000007B01000054
:100030007D010000000000007F0100008101000040
:1000400083010000830100008301000083010000A0
:100050008301000083010000830100008301000090
:100060008301000083010000830100008301000080
:100070008301000083010000830100008301000070
:1000800083010000830100003304000051040000DC
:100090006F0400008D040000830100008301000054
:1000A0008301000083010000830100008301000040
:1000B0008301000083010000830100008301000030
:1000C00083010000830100008301000000F002F8BA
:1000D00000F03CF80AA090E8000C82448344AAF1A6
:1000E0000107DA4501D100F031F8AFF2090EBAE8A4
:1000F0000F0013F0010F18BFFB1A43F0010318475C
:10010000C0060000E0060000103A24BF78C878C19D
:10011000FAD8520724BF30C830C144BF04680C600D
:10012000704700000023002400250026103A28BF55
:1001300078C1FBD8520728BF30C148BF0B60704759
:100140001FB500F035FB1FBD10B510BD00F004FB5E
:100150001146FFF7F5FF00F0A5F800F0BEF803B474
:10016000FFF7F2FF03BC00F01DFB0000084800474A
:10017000FEE7FEE7FEE7FEE7FEE7FEE7FEE7FEE757
:10018000FEE7FEE703480449024A044B70470000BB
:10019000CD000000880000108802001088000010C8
:1001A00030B50A46A0281BDA032A19D8431100F0FB
:1001B0001F005B00102804DB5C1CE3B2A0F11004FC
:1001C000E0B24406200E304C04EB83010325854049
:1001D0000C68AC430C6002FA00F50C682C430C6010
:1001E00030BD30B50B46A02811DA421100F01F00D7
:1001F000264C04EB42112BB10C68012585402C43A1
:100200000C6004E00C6801258540AC430C6030BDF7
:1002100030B50B46A02811DA421100F01F001B4C2C
:1002200004EB42112BB18C69012585402C438C6174
:1002300004E0CC69012585402C43CC6130BD10B56C
:10024000A0280ADA421100F01F00104B03EB421104
:100250004B690124844063404B6110BD30B50146B9
:100260000020A0290EDA4A1101F01F01074C04EB0F
:1002700042135C6901258D402C4201D0012400E02D
:100280000024E0B230BD000000C0024000C00920E0
:1002900010B54020FFF7D3FF10BD10B54120FFF788
:1002A000CEFF10BD00F0ACF901214020FFF799FF0F
:1002B00001214120FFF795FFAFF22B020121002021
:1002C00000F01EF8AFF22D020121084600F018F8E8
:1002D00000BFFEE77047704770470446AFF30080E9
:1002E0002046FFF73CFF0000004870472400001044
:1002F000004870472800001070470000FFFFFFFF14
:1003000070B504460D461646042C7EDA674901EBAB
:10031000C40148790121FFF743FF644901EBC4019F
:1003200091F9040000F01F020121914042094FF0B1
:10033000E02303EB8202C2F8001100BF5B4840F8E3
:10034000346035B1012D1BD0022D30D0032D5ED18C
:1003500044E0574800684FF0010101FA04F140EA17
:1003600001005449C1F84801534800684FF00101A9
:1003700001FA04F140EA01004E49C1F84C0146E09F
:100380004B4801684FF0010000FA04F041EA000117
:100390004848C0F84811484801684FF0010000FA89
:1003A00004F021EA00014348C0F84C112FE0404816
:1003B00001684FF0010000FA04F021EA00013D4815
:1003C000C0F848113C4801684FF0010000FA04F001
:1003D00041EA00013748C0F84C1118E03448016880
:1003E0004FF0010000FA04F021EA00013148C0F8A2
:1003F0004811314800684FF0010101FA04F120EA88
:1004000001002C49C1F84C0100E001E000BF00BF31
:1004100070BD10B50446042C0ADA244901EBC4016E
:1004200048790021FFF7BCFE0020204941F8340044
:1004300010BD10B52148006840F001001D49C1F809
:1004400040011A48006810B118490868804710BD7B
:1004500010B51A48006840F002001649C1F8400182
:100460001248806810B111498868804710BD10B5E6
:100470001248006840F004000E49C1F840010B48E2
:10048000006910B109490869804710BD10B50B48D3
:10049000006840F008000749C1F84001034880693E
:1004A00010B102498869804710BD000000000010AB
:1004B00048C10F4000C00F404CC10F4040C10F4029
:1004C00091480068C0F30160032868D18F48006834
:1004D00010F0030006D0012823D002283FD00328C3
:1004E0005CD100E000BF88480068C0F30E0000F156
:1004F00001004FEA4000864900FB01F08549D1F830
:100500008810C1F3074101F10101B0FBF1F182480C
:100510000068C0B200F10100B1FBF0F07F49086053
:100520003CE079480068C0F30E0000F101004FEA9A
:1005300040007B4900FB01F07649D1F88810C1F3F7
:10054000074101F10101B0FBF1F173480068C0B24D
:1005500000F10100B1FBF0F0704908601EE06A484C
:100560000068C0F30E0000F101004FEA40004FF4B4
:10057000FA4100FB01F06749D1F88810C1F3074147
:1005800001F10101B0FBF1F163480068C0B200F174
:100590000100B1FBF0F06149086000BF2FE05B484B
:1005A000006810F0030006D0012810D0022819D0EE
:1005B000032823D100E000BF57480068C0B200F113
:1005C00001005349B1FBF0F05449086016E052486D
:1005D0000068C0B200F101005149B1FBF0F04F4991
:1005E00008600BE04C480068C0B200F101004FF415
:1005F000FA41B1FBF0F04949086000BF00BF704705
:1006000020204849086000BF4648006810F0400FAD
:10061000FAD00320404908604FF001003D49C1F87D
:100620000C014148414908604FF0AA004049086068
:100630004FF0550008604FF001003E4908604FF050
:10064000AA003B4908604FF055003249C1F88C00C0
:1006500000BF2D48006810F0806FFAD003203549A4
:1006600008604FF0AA002B49C1F88C004FF05500EC
:100670002F49086000BF2448006810F0407FFAD07E
:1006800023202D4908604FF0AA002249C1F8AC0090
:100690004FF05500294908604FF0010028490860D3
:1006A0004FF0AA00254908604FF055001949C1F8DC
:1006B000AC0000BF2348006810F4806FFAD003201C
:1006C0001F4908604FF0AA001249C1F8AC004FF072
:1006D00055001A49086000BF1A48006810F4407FAE
:1006E000FAD00020184908600A49C1F8AC0117483F
:1006F000174908604FF000001649086043F23A00BD
:10070000044908607047000088C00F400CC10F40CA
:1007100000093D0000C00F4004C10F402000001040
:10072000001BB700A0C10F406300050084C00F404C
:100730008CC00F4080C00F40A4C00F40ACC00F4021
:10074000A0C00F40A8C00F40A8C10F40DE872804FA
:10075000C4C00F40C8C10F407546FFF7C5FDAE4687
:1007600005006946534620F00700854618B020B5BD
:10077000FFF708FDBDE820404FF000064FF00007EE
:100780004FF000084FF0000B21F00701AC46ACE839
:10079000C009ACE8C009ACE8C009ACE8C0098D46A6
:1007A0007047000001491820ABBEFEE7260002009A
:1007B00010B5FFF79DFD4FF00001016010BD000076
:1007C000E007000000000010240000000801000005
:1007D000040800002400001064020000240100004E
:1007E00000000000124A000000000000134B00004F
:1007F00000000000144C000000000000154D000037
:0408000000E1F50519
:040000050000016D89
:00000001FF
