:1000000008080010C500000000000000000000000B
:10001000B5010000B5010000B501000000000000BE
:10002000000000000000000000000000B50100001A
:10003000B501000000000000B5010000B50100009E
:10004000B5010000B5010000B5010000B5010000D8
:10005000B5010000B5010000B5010000B5010000C8
:10006000B5010000B5010000B5010000B5010000B8
:10007000B5010000B5010000B5010000B5010000A8
:10008000B5010000B5010000B5010000B501000098
:10009000B5010000B5010000B5010000B501000088
:1000A000B5010000B5010000B5010000B501000078
:1000B000B5010000B5010000B5010000B501000068
:1000C000B5010000684620F007018D4681B583B078
:1000D00000AF00F0D3FC40F62C52C0F2000240F218
:1000E0000003C1F200039A421DD040F62C53C0F227
:1000F00000033B6040F20003C1F200037B600BE0B1
:100100003B681A687B681A607B6803F104037B60B4
:100110003B6803F104033B607A6840F20403C1F2D8
:1001200000039A42ECD340F62C52C0F2000240F297
:100130000003C1F200039A421DD040F62C53C0F2D6
:1001400000033B6040F20003C1F200037B600BE060
:100150003B681A687B681A607B6803F104037B6064
:100160003B6803F104033B607A6840F20003C1F28C
:1001700000039A42ECD340F20403C1F200037B6017
:1001800007E07B684FF000021A607B6803F104030C
:100190007B607A6840F20403C1F200039A42F0D314
:1001A00000F00CF807F10C07BD46BDE8814085461C
:1001B000704700BF80B400AFFEE700BF80B500AF5E
:1001C00000F05CFC00204FF4165100F09BF8012079
:1001D0004FF4165100F096F802204FF4165100F03B
:1001E00091F803204FF4165100F08CF800201D49BF
:1001F00040F2D2424AF6CD3300F070FA01201A499B
:1002000041F22E62DD2300F069FA0220174940F620
:100210005D52EE2300F062FA0320154942F2D0222B
:10022000FF2300F05BFA00200E4940F2D2424AF66A
:10023000CD3300F053FA01200B4941F22E62DD2349
:1002400000F04CFA0220094940F65D52EE2300F01E
:1002500045FA0320064942F2D022FF2300F03EFA7D
:10026000FEE700BF9C0C0000B80C0000D40C00009E
:10027000F00C000080B485B000AF02460B46FA7166
:10028000BB71FB79BB73FB794FEA5313FB73BB7BE9
:1002900003F01F03BB73FB7B4FEA4303FB73BB7B82
:1002A0000F2B07D9FB7B03F10103FB73BB7BA3F18E
:1002B0001003BB73BB7B4FEA4303BB73FB7B4FEA6B
:1002C000830303F1804303F53033BB60BB681A68D6
:1002D000BB7B4FF0030101FA03F36FEA030302EA69
:1002E0000302BB681A60BB681A68B979BB7B01FA64
:1002F00003F342EA0302BB681A6007F11407BD4624
:1003000080BC704780B582B000AF03463960FB7196
:10031000FB79032B61D8FA7940F60C53C0F2000345
:1003200013F83210FB7940F60C52C0F200024FEA8B
:10033000C30313449B7808461946FFF79BFFFB79DC
:1003400040F60C52C0F200024FEAC303134459783E
:10035000FB7940F60C52C0F200024FEAC30313448B
:100360009B7808461946FFF785FF4FF44043C4F2D7
:100370000F034FF44042C4F20F02D2F8C400FA79DE
:1003800040F60C51C0F200014FEAC2020A44D27892
:100390004FF0010101FA02F240EA0202C3F8C42060
:1003A000FB7940F60C52C0F200024FEAC30313443B
:1003B0005B684FF007021A72FB7940F60C52C0F2EC
:1003C00000024FEAC30313445B684FF083021A73C1
:1003D000FB791846396800F005F807F10807BD46B3
:1003E00080BD00BF80B487B000AF03463960FB71A9
:1003F000FB79032B73D84FF44043C4F20F03D3F8B7
:10040000A8314FEA931303F003033B613B69032BCD
:100410002CD801A252F823F0290400003B0400006C
:10042000490400005B04000040F20003C1F2000335
:100430001B684FEA93037B6118E040F20003C1F2AE
:1004400000031B687B6111E040F20003C1F200036E
:100450001B684FEA53037B6108E040F20003C1F2DE
:1004600000031B684FEAD3037B6100BF3B684FEA80
:1004700003137A69B2FBF3F3FB60FB7940F60C528D
:10048000C0F200024FEAC30313445B68FA68D2B2B9
:100490001A70FB7940F60C52C0F200024FEAC30317
:1004A00013445B68FA684FEA1222D2B21A71FB79E0
:1004B00040F60C52C0F200024FEAC30313445968DD
:1004C000FB7940F60C52C0F200024FEAC30313441A
:1004D0005B681B7BDBB203F07F03DBB20B7307F1BE
:1004E0001C07BD4680BC704780B483B000AF024695
:1004F0000B46FA71BB71FB79032B1AD800BFFB794D
:1005000040F60C52C0F200024FEAC30313445B688A
:100510001B7DDBB203F02003002BF0D0FB7940F60B
:100520000C52C0F200024FEAC30313445B68BA796D
:100530001A7007F10C07BD4680BC704780B582B0C9
:1005400000AF03463960FB710AE03B681B783A68EC
:1005500002F101023A60FA7910461946FFF7C4FF2A
:100560003B681B78002BF0D107F10807BD4680BD22
:1005700080B588B000AFBA600246FA730A46BA7313
:10058000FB714FF00003FB77BB7B022B21D11CE0FA
:10059000FB7903F1FF334FF0010202FA03F31A462D
:1005A000BB6802EA0303002B0CBF00230123FB7787
:1005B000FB7F03F13003DBB2FA7B10461946FFF7ED
:1005C00093FFFB7903F1FF33FB71FB79002BDFD144
:1005D0007FE0BB68002B15D14FF00003FB7709E0EB
:1005E000FB7B18464FF03001FFF77EFFFB7F03F1E6
:1005F0000103FB77FA7FFB799A4269D2FB7F092BD3
:10060000EED966E04FF00003FB772EE0BB68002BCD
:1006100019D0FB7FBA68D1B2BA7BB868B0FBF2F2EE
:10062000D2B2B87B00FB02F2D2B2C2EB0102D2B26C
:1006300007F120010B4403F80C2CBB7BBA68B2FB1A
:10064000F3F3BB600DE0FB79FF2B3DD0FB790A2B68
:100650003AD8FB7F07F1200213444FF0000203F861
:100660000C2CFB7F03F10103FB77FA7FFB799A42A5
:10067000CCD329E0FB7F03F1FF3307F120010B44CA
:1006800013F80C3C092B0BD9FB7F03F1FF3307F167
:100690002002134413F80C3C03F13703DBB20AE0E9
:1006A000FB7F03F1FF3307F120010B4413F80C3CEF
:1006B00003F13003DBB2FA7B10461946FFF714FF53
:1006C000FB7F03F1FF33FB77FB7F002BD2D100E0F0
:1006D00000BF07F12007BD4680BD00BF0EB480B546
:1006E0008BB000AF0346FB7107F13803FB607B6BF7
:1006F0007B62B6E17B6A1B78FB76FB7E252B40F0A4
:10070000A4817B6A03F101037B627B6A1B78FB7621
:10071000FB7E2F2B22D9FB7E392B1FD84FF00003F5
:10072000BB7614E0BB7E1A464FEA820213444FEABE
:100730004303DAB2FB7E1344DBB2A3F13003BB7692
:100740007B6A03F101037B627B6A1B78FB76FB7E8D
:100750002F2B07D9FB7E392BE4D904E04FF0FF03A0
:10076000BB7600E000BFFB7EA3F12503532B00F214
:10077000738101A252F823F03D0A0000590A0000DB
:10078000590A0000590A0000590A0000590A0000DD
:10079000590A0000590A0000590A0000590A0000CD
:1007A000590A0000590A0000590A0000590A0000BD
:1007B000590A0000590A0000590A0000590A0000AD
:1007C000590A0000590A0000590A0000590A00009D
:1007D000590A0000590A0000590A0000590A00008D
:1007E000590A0000590A0000590A0000F9090000DE
:1007F000C90800001F090000590A0000590A00003A
:10080000590A0000590A0000590A0000590A00005C
:10081000590A0000590A0000590A0000590A00004C
:10082000590A0000590A0000590A0000590A00003C
:10083000230A0000590A000075090000590A000047
:10084000590A0000B1090000590A0000590A0000C5
:10085000590A0000590A0000590A0000590A00000C
:10086000590A0000590A0000590A0000CF09000087
:10087000C9080000E3080000590A0000590A0000F6
:10088000590A0000590A0000590A0000590A0000DC
:10089000590A0000590A0000590A0000590A0000CC
:1008A000590A0000590A0000590A0000590A0000BC
:1008B000230A0000590A000057090000590A0000E5
:1008C000590A000093090000FB6803F10402FA6072
:1008D0001B68FB76FA79FB7E10461946FFF704FE8B
:1008E000BBE0FB6803F10402FA601B687B84B7F984
:1008F0002230002B09DA7B8CC3F100037B84FB7967
:1009000018464FF02D01FFF7EFFDB7F92220F979D6
:10091000BB7E08464FF00A01FFF72AFE9DE0FB6808
:1009200003F10402FA601B68FB61FB69002B09DA22
:10093000FB69C3F10003FB61FB7918464FF02D0101
:10094000FFF7D2FDFA69F979BB7E08464FF00A013C
:10095000FFF70EFE81E0FB6803F10402FA601B68FA
:100960003B833A8BF979BB7E08464FF00A01FFF7CB
:10097000FFFD72E0FB6803F10402FA601B687B6113
:10098000FA79BB7E10464FF00A017A69FFF7F0FD55
:1009900063E0FB6803F10402FA601B683B833A8B57
:1009A000F979BB7E08464FF01001FFF7E1FD54E0F6
:1009B000FB6803F10402FA601B687B61FA79BB7E75
:1009C00010464FF010017A69FFF7D2FD45E0FB6851
:1009D00003F10402FA601B683B83BB7EFF2B02D14C
:1009E0004FF01003BB763A8BF979BB7E08464FF087
:1009F0000201FFF7BDFD30E0FB6803F10402FA607D
:100A00001B687B61BB7EFF2B02D14FF01003BB76CE
:100A1000FA79BB7E10464FF002017A69FFF7A8FD14
:100A20001BE0FB6803F10402FA601B683B61FB7981
:100A300018463969FFF782FD00BF0EE0FB791846C2
:100A40004FF02501FFF750FD07E0FA79FB7E1046D5
:100A50001946FFF749FD00E000BF7B6A03F101037F
:100A60007B627B6A1B78002B7FF444AE07F12C0776
:100A7000BD46BDE8804003B0704700BF80B400AF02
:100A80004FF44043C4F20F034FF02002C3F8A021FB
:100A900000BF4FF44043C4F20F03D3F8A03103F07A
:100AA0004003002BF5D04FF44043C4F20F034FF046
:100AB0000302C3F804214FF44043C4F20F034FF084
:100AC0000102C3F80C214FF44043C4F20F034FF06E
:100AD0006302C0F20502C3F884204FF44043C4F21D
:100AE0000F034FF0AA02C3F88C204FF44043C4F226
:100AF0000F034FF05502C3F88C204FF44043C4F26B
:100B00000F034FF00102C3F880204FF44043C4F2BA
:100B10000F034FF0AA02C3F88C204FF44043C4F2F5
:100B20000F034FF05502C3F88C2000BF4FF4404331
:100B3000C4F20F03D3F8883003F08063002BF5D0A4
:100B40004FF44043C4F20F034FF00302C3F8802078
:100B50004FF44043C4F20F034FF0AA02C3F88C20B5
:100B60004FF44043C4F20F034FF05502C3F88C20FA
:100B700000BF4FF44043C4F20F03D3F8883003F0B2
:100B80004073002BF5D04FF44043C4F20F034FF0F5
:100B90002302C3F8A4204FF44043C4F20F034FF0E4
:100BA000AA02C3F8AC204FF44043C4F20F034FF045
:100BB0005502C3F8AC204FF44043C4F20F034FF08A
:100BC0000102C3F8A0204FF44043C4F20F034FF0DA
:100BD000AA02C3F8AC204FF44043C4F20F034FF015
:100BE0005502C3F8AC2000BF4FF44043C4F20F03DA
:100BF000D3F8A83003F48063002BF5D04FF44043C2
:100C0000C4F20F034FF00302C3F8A0204FF4404397
:100C1000C4F20F034FF0AA02C3F8AC204FF44043D4
:100C2000C4F20F034FF05502C3F8AC2000BF4FF4DD
:100C30004043C4F20F03D3F8A83003F44073002BF1
:100C4000F5D04FF44043C4F20F034FF00002C3F855
:100C5000A8214FF44043C4F20F034FF00002C3F841
:100C6000AC214FF44043C4F20F0348F2DE72C0F2ED
:100C70002842C3F8C4204FF44043C4F20F034FF09E
:100C80000002C3F8C8214FF44043C4F20F0343F2FB
:100C90003A021A60BD4680BC704700BF4368616E6F
:100CA0006E656C205A65726F202534642C202025D7
:100CB00032780A0D000000004368616E6E656C209A
:100CC0004F6E65202534642C2020202532780A0DB3
:100CD000000000004368616E6E656C2054776F20E1
:100CE0002534642C2020202532780A0D00000000D5
:100CF0004368616E6E656C205468726565202534AA
:100D0000642C202532780A0D000000000203010344
:100D100000C0004040410204000001400A0B0118DD
:0C0D2000008009409C9D031900C00940A0
:040D2C0000E1F505E8
:00000001FF
