:1000000008080010C500000000000000000000000B
:10001000750100007501000075010000000000007E
:10002000000000000000000000000000750100005A
:10003000750100000000000075010000750100005E
:1000400075010000750100007501000075010000D8
:1000500075010000750100007501000075010000C8
:1000600075010000750100007501000075010000B8
:1000700075010000750100007501000075010000A8
:100080007501000075010000750100007501000098
:100090007501000075010000750100007501000088
:1000A0007501000075010000750100007501000078
:1000B0007501000075010000750100007501000068
:1000C00075010000684620F007018D4681B583B0B8
:1000D00000AF00F033FC1F4A1F4B9A4210D01D4B5B
:1000E0003B601D4B7B6007E07B681A1D7A603A68B5
:1000F000111D396012681A607B68184A9342F3D365
:10010000174A184B9A4210D0154B3B60154B7B6039
:1001100007E07B681A1D7A603A68111D3960126821
:100120001A607B68104A9342F3D3104B7B6004E063
:100130007B681A1D7A6000221A607B680C4A934221
:10014000F6D300F01BF80C37BD46BDE8814085466C
:10015000704700BF040B00000000001004000010F6
:10016000040B00000000001000000010040000104C
:100170000400001080B400AFFEE700BF80B500AF00
:1001800000F0DCFB00204FF4165100F09BF801203A
:100190004FF4165100F096F802204FF4165100F07B
:1001A00091F803204FF4165100F08CF800201D49FF
:1001B00040F2D2424AF6CD3300F016FA01201A4935
:1001C00041F22E62DD2300F00FFA0220174940F6BB
:1001D0005D52EE2300F008FA0320154942F2D022C6
:1001E000FF2300F001FA00200E4940F2D2424AF605
:1001F000CD3300F0F9F901200B4941F22E62DD23E5
:1002000000F0F2F90220094940F65D52EE2300F0B9
:10021000EBF90320064942F2D022FF2300F0E4F973
:10022000FEE700BF740A0000900A0000AC0A00005C
:10023000C80A000080B485B000AF02460B46FA71D0
:10024000BB71FB79BB73FB794FEA5313FB73BB7B29
:1002500003F01F03BB73FB7B4FEA4303FB73BB7BC2
:100260000F2B07D9FB7B03F10103FB73BB7BA3F1CE
:100270001003BB73BB7B4FEA4303BB73FB7B4FEAAB
:10028000830303F1804303F53033BB60BB681A6816
:10029000BB7B4FF0030101FA03F36FEA030302EAA9
:1002A0000302BB681A60BB681A68B979BB7B01FAA4
:1002B00003F342EA0302BB681A6007F11407BD4664
:1002C00080BC704780B582B000AF03463960FB71D7
:1002D000FB79032B3CD8FB791F4A12F83310FB79CA
:1002E0001D4ADB0013449B7808461946FFF7A2FF1E
:1002F000FB79194ADB0013445978FB79164ADB0075
:1003000013449B7808461946FFF794FF1349134B93
:10031000D3F8C420FB791048DB000344DB7818468F
:10032000012383401343C1F8C430FB790A4ADB0040
:1003300013445B6807221A72FB79074ADB001344F7
:100340005B6883221A73FB791846396800F008F855
:100350000837BD4680BD00BFE40A000000C00F4062
:1003600080B487B000AF03463960FB71FB79032B83
:100370004ED82A4BD3F8A8319B0903F003033B6105
:100380003B69032B1DD801A252F823F09D03000006
:10039000A7030000AF030000B9030000204B1B6857
:1003A0009B087B610DE01E4B1B687B6109E01C4BC9
:1003B0001B685B087B6104E0194B1B68DB087B61F1
:1003C00000BF3B681B017A69B2FBF3F3FB60FB796A
:1003D000144ADB0013445B68FA68D2B21A70FB79E6
:1003E000104ADB0013445B68FA68120AD2B21A7131
:1003F000FB790C4ADB0013445A68FB790949DB009E
:100400000B445B681B7BDBB203F07F03DBB213732F
:100410001C37BD465DF8047B704700BF00C00F402D
:1004200000000010E40A000080B483B000AF03466F
:100430000A46FB711346BB71FB79032B12D800BF30
:10044000FB790B4ADB0013445B681B7DDBB203F0D6
:100450002003002BF4D0FB79054ADB0013445B68D2
:10046000BA791A700C37BD465DF8047B704700BF3F
:10047000E40A000080B582B000AF03463960FB712A
:1004800008E03B685A1C3A601B78FA791046194616
:10049000FFF7CAFF3B681B78002BF2D10837BD4637
:1004A00080BD00BF80B586B000AF3A601A460346F3
:1004B000FB710B46BB7113467B710023FB75BB7947
:1004C000022B1DD118E07B79013B012202FA03F3D4
:1004D0001A463B681340002B14BF01230023DBB2F4
:1004E000FB75FB7D3033DBB2FA7910461946FFF716
:1004F0009BFF7B79013B7B717B79002BE3D170E023
:100500003B68002B12D10023FB7507E0FB791846EE
:100510003021FFF789FFFB7D0133FB75FA7D7B7985
:100520009A425ED2FB7D092BF0D95AE00023FB757D
:100530002BE03B68002B18D0FB7D3A68D1B2BA792A
:100540003868B0FBF2F2D2B2B87900FB02F2D2B254
:100550008A1AD2B207F118010B4403F80C2CBB79AC
:100560003A68B2FBF3F33B600CE07B79FF2B10D0D1
:100570007B790A2B0DD8FB7D07F11802134400226A
:1005800003F80C2CFB7D0133FB75FA7D7B799A42D5
:10059000CFD323E0FB7D013B07F11802134413F88E
:1005A0000C3C092B09D9FB7D013B07F118021344D0
:1005B00013F80C3C3733DBB208E0FB7D013B07F15D
:1005C0001802134413F80C3C3033DBB2FA791046AE
:1005D0001946FFF729FFFB7D013BFB75FB7D002BD7
:1005E000D8D11837BD4680BD0EB480B58BB000AFF2
:1005F0000346FB7107F13803FB607B6B7B6292E182
:100600007B6A1B78FB76FB7E252B40F083817B6A1F
:1006100001337B627B6A1B78FB76FB7E2F2B1DD917
:10062000FB7E392B1AD80023BB7610E0BB7E1A461E
:10063000920013445B00DAB2FB7E1344DBB2303B22
:10064000BB767B6A01337B627B6A1B78FB76FB7E21
:100650002F2B02D9FB7E392BE8D901E0FF23BB7693
:10066000FB7E253B532B00F25B8101A252F823F065
:1006700005090000210900002109000021090000EE
:1006800021090000210900002109000021090000C2
:1006900021090000210900002109000021090000B2
:1006A00021090000210900002109000021090000A2
:1006B0002109000021090000210900002109000092
:1006C0002109000021090000210900002109000082
:1006D0002109000021090000210900002109000072
:1006E00021090000CB080000C10700000F0800002E
:1006F0002109000011090000210900002109000062
:100700002109000021090000210900002109000041
:100710002109000021090000210900002109000031
:100720002109000021090000EF0800002109000054
:100730005908000021090000210900008D0800006F
:100740002109000021090000210900002109000001
:1007500021090000210900002109000021090000F1
:1007600021090000A7080000C1070000D907000008
:1007700021090000110900002109000021090000E1
:1007800021090000210900002109000021090000C1
:1007900021090000210900002109000021090000B1
:1007A0002109000021090000EF08000021090000D4
:1007B0003F08000021090000210900007308000023
:1007C000FB681A1DFA601B68FB76FA79FB7E1046FF
:1007D0001946FFF729FE9CE0FB681A1DFA601B68AA
:1007E0007B84B7F92230002B08DA7B8C5B429BB20A
:1007F0007B84FB7918462D21FFF716FEB7F92220DE
:10080000F979BB7E08460A21FFF74CFE81E0FB68C0
:100810001A1DFA601B68FB61FB69002B07DAFB6994
:100820005B42FB61FB7918462D21FFF7FDFDFA695C
:10083000F979BB7E08460A21FFF734FE69E0FB68C0
:100840001A1DFA601B683B833A8BF979BB7E084618
:100850000A21FFF727FE5CE0FB681A1DFA601B689F
:100860007B61FA79BB7E10460A217A69FFF71AFE8E
:100870004FE0FB681A1DFA601B683B833A8BF979DD
:10088000BB7E08461021FFF70DFE42E0FB681A1DF3
:10089000FA601B687B61FA79BB7E104610217A6989
:1008A000FFF700FE35E0FB681A1DFA601B683B830A
:1008B000BB7EFF2B01D11023BB763A8BF979BB7E2F
:1008C00008460221FFF7EEFD23E0FB681A1DFA60DF
:1008D0001B687B61BB7EFF2B01D11023BB76FA79AD
:1008E000BB7E104602217A69FFF7DCFD11E0FB6850
:1008F0001A1DFA601B683B61FB7918463969FFF7DE
:10090000B9FD06E0FB7918462521FFF78DFD00E0D3
:1009100000BF05E0FA79FB7E10461946FFF784FD1B
:100920007B6A01337B627B6A1B78002B7FF468AEA5
:100930002C37BD46BDE8804003B0704780B400AF9F
:10094000494B2022C3F8A02100BF474BD3F8A03168
:1009500003F04003002BF8D0434B0322C3F80421DB
:10096000414B0122C3F80C213F4B404AC3F884207D
:100970003D4BAA22C3F88C203B4B5522C3F88C2058
:10098000394B0122C3F88020374BAA22C3F88C20B0
:10099000354B5522C3F88C2000BF334BD3F8883039
:1009A00003F08063002BF8D02F4B0322C3F8802084
:1009B0002D4BAA22C3F88C202B4B5522C3F88C2038
:1009C00000BF294BD3F8883003F04073002BF8D0D8
:1009D000254B2322C3F8A420234BAA22C3F8AC2022
:1009E000214B5522C3F8AC201F4B0122C3F8A02095
:1009F0001D4BAA22C3F8AC201B4B5522C3F8AC20D8
:100A000000BF194BD3F8A83003F48063002BF8D053
:100A1000154B0322C3F8A020134BAA22C3F8AC2025
:100A2000114B5522C3F8AC2000BF0F4BD3F8A830B0
:100A300003F44073002BF8D00B4B0022C3F8A8211D
:100A4000094B0022C3F8AC21074B094AC3F8C42064
:100A5000054B0022C3F8C821034B43F23A021A6047
:100A6000BD465DF8047B704700C00F406300050081
:100A7000DE8728044368616E6E656C205A65726F6C
:100A8000202534642C20202532780A0D0000000037
:100A90004368616E6E656C204F6E65202534642C52
:100AA0002020202532780A0D000000004368616E86
:100AB0006E656C2054776F202534642C202020250F
:100AC00032780A0D000000004368616E6E656C208C
:100AD0005468726565202534642C202532780A0D0F
:100AE000000000000203010300C000404041020476
:100AF000000001400A0B0118008009409C9D031969
:040B000000C00940E8
:040B040000E1F50512
:00000001FF
